:1000000055AA55AA0200000036700000000000004A
:1000100036F20000000000000E400000000000006A
:1000200000000000000000000E400000707A000098
:1000300000080000000000000000000085C0D3A5FB
:100040009F6474309B1E0000609B8BCF64E1FFFFB8
:1000500000021000E1000000A3650000FD010000A7
:100060004902000095020000E102000000000000CB
:10007000000000000000000000000000AB65000070
:10008000B3650000000000002D030000BB65000008
:10009000C3650000CF650000D7650000E365000080
:1000A000EF650000FB650000036600000F660000BE
:1000B0005B6600003B0300001B6600002366000037
:1000C00000000000336600005D6600005F6600000F
:1000D0006B6600006D6600006F6600004B660000F6
:1000E000536600003B660000436600007166000036
:1000F000736600007F6600002B66000000000000B1
:1001000000000000000000000000000000000000EF
:1001100036F2000001000140000000000000000075
:1001200000000000000000000000000000000000CF
:1001300000F002F800F068F80AA090E8000C824491
:100140008344AAF10107DA4501D100F05DF8AFF26E
:10015000090EBAE80F0013F0010F18BFFB1A43F0A5
:10016000010318470C7600003C7600000A444FF06B
:10017000000C10F8013B13F0070408BF10F8014B06
:100180001D1108BF10F8015B641E05D010F8016B4B
:10019000641E01F8016BF9D113F0080F1EBF10F8AF
:1001A000014BAD1C0C1B09D16D1E58BF01F801CBD2
:1001B000FAD505E014F8016B01F8016B6D1EF9D555
:1001C0009142D6D370470000103A24BF78C878C156
:1001D000FAD8520724BF30C830C144BF04680C604D
:1001E000704700000023002400250026103A28BF95
:1001F00078C1FBD8520728BF30C148BF0B60704799
:100200001FB51FBD10B510BDDFF80CD0FFF7F8FF0C
:1002100006F0F1FA06F00AFF0002100003B4FFF73F
:10022000F1FF03BC06F00CFF40BA7047C0BA70473C
:1002300072B6784600F10A004DF8080C62B630BF7D
:1002400000BF704740BA7047C0BA704711484FF0BE
:100250000F0100F8011B4FF0010100F8011B4FF0E6
:10026000020100F8011B4FF0000100F8011B00F82B
:10027000011B00F8011B00F8011B00F8011B1EF018
:10028000040F0CBFEFF30880EFF309804FF0020179
:1002900005F0CAB80002002011484FF00F0100F825
:1002A000011B4FF0010100F8011B4FF0030100F8A2
:1002B000011B4FF0000100F8011B00F8011B00F8C2
:1002C000011B00F8011B00F8011B1EF0040F0CBFFE
:1002D000EFF30880EFF309804FF0030105F0A4B8B5
:1002E0000002002011484FF00F0100F8011B4FF0F1
:1002F000010100F8011B4FF0040100F8011B4FF051
:10030000000100F8011B00F8011B00F8011B00F8B8
:10031000011B00F8011B1EF0040F0CBFEFF3088057
:10032000EFF309804FF0040105F07EB800020020D1
:1003300011484FF00F0100F8011B4FF0010100F8C8
:10034000011B4FF0050100F8011B4FF0000100F800
:10035000011B00F8011B00F8011B00F8011B00F84D
:10036000011B1EF0040F0CBFEFF30880EFF30980B0
:100370004FF0050105F058B80002002000B506F066
:100380002FF95DF804EB00F02FB81EF0040F0CBF3E
:10039000EFF30880EFF309804FF0000105F044B857
:1003A0000A484FF0FF0101704FF0000080F3118800
:1003B0004FF0000080F3098805484FF002010170FA
:1003C00062B604484FF080510160704722ED00E0B2
:1003D0007D05100004ED00E002484FF080510160FF
:1003E0007047000004ED00E04FF0200080F311881A
:1003F000EFF3098098B112480068124909688842F1
:1004000017D0EFF309800E49096820E9F00F8860E2
:1004100000B50B48006806F0C2FA5DF804EB084826
:1004200008490A68026000688168B1E8F00F81F34A
:1004300009884EF0040E4FF0000080F311887047D9
:100440008005100084051000EFF311804FF02001AB
:1004500081F31188704700004FF0000080F311888D
:100460007047000062B6704772B6704710B5022040
:1004700000F00AFA032000F007FA042000F004FA62
:10048000052000F001FA062000F0FEF9072000F038
:10049000FBF9082000F0F8F9092000F0F5F90F2029
:1004A00000F0F2F94FF00051002001F84A0F887176
:1004B000F022CA710F224A70F94908628862086303
:1004C000886008618861C8604861C8614862C86224
:1004D00048630621022000F0F6F90621032000F00F
:1004E000F2F90621042000F0EEF90621052000F0C3
:1004F000EAF90621084600F0E6F90621072000F097
:10050000E2F90621082000F0DEF90421092000F0BC
:10051000DAF906210F2000F0D6F9022000F0C8F920
:10052000032000F0C5F9042000F0C2F9052000F016
:10053000BFF9062000F0BCF9072000F0B9F9082047
:1005400000F0B6F9092000F0B3F9022000F091F9AB
:10055000032000F08EF9042000F08BF9052000F054
:1005600088F9062000F085F9072000F082F90820BC
:1005700000F07FF9BDE81040092000F07AB94FF093
:100580000051C98C4FEA90100A06C54901D5C54AE9
:1005900000E0C54AB2FBF0F0086070474FF0005031
:1005A00090F84A00000700D0012070477047BF490B
:1005B00000200860BA498860C8607047B84AD160B6
:1005C000642148430A2190FBF1F0B0F5803F06DB3F
:1005D000A0F57F40FF3890604FF6FF7002E00021E9
:1005E00080B2916000F07FB9AD4910B58868B0F570
:1005F000803F06DBA0F57F40FF3888604FF6FF7034
:1006000003E030B10022C0B28A60BDE8104000F0C3
:100610006AB9CA68FFF7CBFF12B1BDE810401047B6
:100620000020FFF7C3FF10BDA0490020091D08608E
:100630009B49086148617047994A51616421484368
:100640000A2190FBF1F0B0F5803F06DBA0F57F407A
:10065000FF3810614FF6FF7002E0002180B2116197
:1006600000F04BB98E4910B50869B0F5803F06DB44
:10067000A0F57F40FF3808614FF6FF7004E00028C6
:1006800006DD002280B20A61BDE8104000F035B9F5
:100690004A69FFF7C9FF12B1BDE8104010470120B9
:1006A000FFF784FF10BD81490020083108607C49B4
:1006B0008861C86170477A4910B58869B0F5803F94
:1006C00006DBA0F57F40FF3888614FF6FF7003E03E
:1006D00030B1002280B28A61BDE8104000F017B945
:1006E000CA69FFF7E0FF12B1BDE8104010470220D1
:1006F000FFF75CFF10BD6D490020103108606849AC
:10070000086248627047664910B5086AB0F5803FD4
:1007100006D3A0F57F40FF3808624FF6FF7003E074
:1007200030B1002280B20A62BDE8104000F0F9B892
:100730004A6AFFF7E0FF12B1BDE8104010470420FD
:10074000FFF734FF10BD59490020143108605449A7
:100750008862C8627047524AD162116848430A21D0
:10076000B0FBF1F0B0F5803F06DBA0F57F40FF382D
:1007700090624FF6FF7002E0002180B2916200F0BB
:10078000DBB84FF00050B0F85A00454909690844F9
:100790007047434910B5886AB0F5803F06D3A0F58D
:1007A0007F40FF3888624FF6FF7003E030B10022CF
:1007B00080B28A62BDE8104000F0BEB8CA6AFFF796
:1007C000C2FF12B1BDE8104010470520FFF7EEFE52
:1007D00010BD4020C10581F8210070473348002139
:1007E0001C3001604FF000524FF6FF71A2F8661006
:1007F0000121016070472D4900201C3108607047BD
:100800004FF0005090F82110C90606D510F8211FAE
:1008100021F010010170012070470020704710B5D1
:1008200004460F2000F044F80F2000F022F81C4886
:1008300044604FF00050C18C090602D54EF660218D
:1008400001E04AF6C871416518490120B8310860D5
:10085000091D086010BD10B50F2000F015F84FF00D
:100860000050C06C0E4920F07F404968BDE8104040
:10087000084700F01F02012191404009800000F16B
:10088000E020C0F80011704700F01F0201219140E4
:100890004009800000F1E020C0F88011704700009E
:1008A00000021000C0270900D0DD06004009002228
:1008B00000F01F02012191404009800000F1E0207A
:1008C000C0F88012EAE74907090E002806DA00F0AE
:1008D0000F0000F1E02080F8141DDFE700F1E020B8
:1008E00080F80014DAE71A4900220A604FF000523B
:1008F000A2F8580001200860D0E715490022091D20
:100900000A60CA06A2F85A0001200860C6E710492A
:10091000002208310A608A06A2F85C000120086003
:10092000BCE70B49002210310A604FF00052A2F8D8
:10093000600001200860B1E70549002214310A6017
:100940004FF00052A2F8620001200860A6E7000004
:100950004009002210B55B4C002020605A4800F08E
:100960009BFD0120206010BD10B54FF0E0214FF03D
:100970008060C1F88001C1F880025449A02081F84C
:100980000004FFF7E7FF4FF00051C88CCA8C00F05D
:100990000300120600EB400001D54D4A01E04C4A2D
:1009A000303A12F8203001F8983F02EB800042788C
:1009B0004A7082788A70C278CA7002790A71427964
:1009C0004A7182798A71C279CA71027A0A72427A4C
:1009D0004A72827A8A72C07AC87210BD70B54FF0BE
:1009E000005400F07F00049D84F88D0084F88E1080
:1009F000A4F8942001213748002283B1C0F8801167
:100A000094F8913023F0700384F8913094F8913089
:100A1000702606EA05152B4384F8913001E0C0F8F2
:100A2000802114F8923F23F034032370C0F844224D
:100A3000C0F84012D0F89C110129FBD170BDF0B56F
:100A40004FF00054DDE90765DDE905C700F07F00E0
:100A500084F88D0084F88E10A4F8942084F88F30E8
:100A6000A4F896C001211B48002287B1C0F880116C
:100A700094F8913023F0700384F8913094F8913019
:100A8000702707EA05152B4384F8913001E0C0F880
:100A9000802114F8923F23F034032370237843F02D
:100AA0002003237016B1C0F8481201E0C0F84822B4
:100AB000C0F84422C0F84012D0F89C110129FBD1A3
:100AC000F0BD000084140022AA8206001AE000E0B3
:100AD00084700000001000223748012101600021CD
:100AE00001607047354801210160002101607047B5
:100AF00000B54FF0E0230122C3F8802103F5C07355
:100B0000FFF7F0FFFFF7E8FF2C4808380260A0204D
:100B100083F88002C3F8002143F8802C00BD2749E8
:100B2000083910B10020086070470120FBE7234816
:100B300001217838016000210160704710B572B65C
:100B40001F490C78002104E01D4A521C525C42549B
:100B5000491CA142F8DB40F6FC0000F09DFC62B6A7
:100B6000204610BD144901201C3908607047144804
:100B700020300078124921310978401A00F03F00F6
:100B800070474FF00051027881F80022427881F8D6
:100B90000122827881F80222C27881F80322027948
:100BA00081F80422427981F80522827981F80622AF
:100BB000C07981F8070270475C8400229405002206
:100BC0000004002010B50A2000F05AF80B2000F0B5
:100BD00057F80A2000F05FF80B2000F05CF80521C0
:100BE0000A2000F063F805210B2000F05FF84FF0B9
:100BF00000507F2100F8351F4170C1700021C17184
:100C000001724172817210BD01238340D8B24FF04E
:100C10000053002993F8361001D0014300E08143CE
:100C200083F8361013F8381F0AB1014300E08143FE
:100C30001970704701238340D8B24FF00053002948
:100C400093F83C1006D0014383F83C1093F83E1013
:100C5000014305E0814383F83C1093F83E10814343
:100C600083F83E1013F83D1F22B1014319709978A3
:100C7000014303E08143197099788143997070476B
:100C800000F01F02012191404009800000F1E020A6
:100C9000C0F88011704700F01F0201219140400907
:100CA000800000F1E020C0F8801270474907090E6B
:100CB000002806DA00F00F0000F1E02080F8141D93
:100CC000704700F1E02080F8001470477047FE4B39
:100CD000FE4A998A814203D2401AD080084601E038
:100CE0000021D180DA68FA491047F74810B5006949
:100CF0008047F649C88810B1BDE81040E7E7896829
:100D0000002903D0BDE810400120084710BDEE487F
:100D100010B500698047ED4C4FF00000A16819B193
:100D200088470020A06010BDFFF7D0FF10BDE74945
:100D3000CA780B7952005A43E34B0878D2B29B68C9
:100D400040F48070C968184701461822DE4806F052
:100D500073B838B5DD4A8179132311714179D170A7
:100D6000027901F0070102F01F028DF800208DF8D2
:100D70000110C078032200F01F008DF80200D24855
:100D8000694644681846A04738BDF8B50446007C5B
:100D9000CD4DC0F34002014662F35F01C0F3800213
:100DA00041EA8201C0F3C00241EAC201C0F300126D
:100DB00041EA0211C0F3401241EA42118DF80010DD
:100DC0008109607C272300F0010241EA0211C0F38F
:100DD000400041EA40108DF80100607CC0F38001C2
:100DE000C0F3C00241EA0211C0F3001241EA42110D
:100DF000C0F3401241EA8211800941EAC0108DF827
:100E000002006E68032269461846B047E0792B233A
:100E1000C0F38002014662F39F01C0F3C10241EAC0
:100E20000211C0F3401041EA80108DF80000607C90
:100E3000A17CC00901F0030140EA01108DF8010016
:100E40006E68022269461846B0472D262B6801229B
:100E5000694630469847A17C9DF80000C1F38001A7
:100E600008438DF800006B680122694630469847B8
:100E7000F8BD10B50446FFF76CFF204600F04FF9AF
:100E80002046BDE8104080E738B53D218DF80010C0
:100E90008D49044612204B68012269469847A08874
:100EA000FFF715FF38BD10B5044600F07AF920466B
:100EB000BDE81040E8E7F8B5834C122506462368E4
:100EC00001226946284698479DF80000012240F01B
:100ED00008008DF800006368694628469847482551
:100EE000236801226946284698479DF800000122A0
:100EF00020F0060040EA46008DF80000636869466D
:100F000028469847236801226946284698479DF855
:100F10000000012240F001008DF80000636869467E
:100F200028469847F8BD38B5674D482401222B68FC
:100F30006946204698479DF80000012220F00100F4
:100F40008DF800006B6869462046984738BD38B573
:100F50005D4D2A2401222B686946204698479DF85A
:100F60000000012220F0100040F001008DF8000088
:100F70006B6869462046984738BD38B5524D2A24DB
:100F800001222B686946204698479DF800000122FF
:100F900020F001008DF800006B68694620469847F4
:100FA00038BDF8B5484C44250646236801226946F9
:100FB000284698479DF80000012240F082008DF8F5
:100FC000000063686946284698472D25236801225A
:100FD0006946284698479DF80000012220F0FC0051
:100FE00040F08E008DF800006368694628469847F7
:100FF0001425236801226946284698479DF8000079
:10100000012220F0070040F001008DF80000636825
:1010100069462846984715252368012269462846CF
:1010200098479DF8000006F01F0120F01F000143C3
:101030008DF8001063680122694628469847F8BD7C
:101040002DE9F843204C132517468846814623682E
:10105000012269462846984701269DF8000006FAB5
:1010600008F120F01F0001F01F0101438DF800106E
:101070006368324669462846984727252368012237
:101080006946284698479DF80000BE4020F03F0082
:1010900006F03F0101438DF80010636801226946A4
:1010A000284698472E2523680122694628469847F6
:1010B0009DF80000012240F00C008DF800006368EC
:1010C00069462846984705E0900510003802100050
:1010D0009B0C00003E2023680122694698479DF83A
:1010E000000000F0300189F80010BDE8F883554B8E
:1010F00040F480701B681847524B40F480705B6866
:10110000184701B506209DF80010012201F01F01CB
:101110008DF800104B494B686946984708BDFEB5ED
:10112000494D04460078287060786870454EA07874
:10113000A870312733680122694638469847E0791C
:1011400040069DF8000002D540F0200001E020F0AC
:1011500020008DF80000E179090602D540F08000FA
:1011600001E020F080008DF80000736801226946DC
:101170003846984721893220C1F30801ADF80010A4
:10118000E168CDF8021029788DF8061069788DF89D
:101190000710A9788DF808107368092269469847E6
:1011A000FEBD70B504460168274886B0254D8160B4
:1011B000A168C160E1680161217C162001F0010194
:1011C0008DF80010617C8DF80110A17C8DF8021063
:1011D00000218DF80310A18A0F22C1F30C01ADF894
:1011E0000410E18AC1F30B01ADF80610218BC1F3A5
:1011F0000B01ADF80810618BC1F30B01ADF80A10BB
:10120000A18BC1F30B01ADF80C10A17F8DF80E106E
:101210006B686946984731262B68012204A930463D
:1012200098479DF81000E17F20F01F0001F01F019A
:1012300001438DF810106B68012204A930469847CD
:1012400006B070BD90051000380210004FF0E0218C
:101250004FF48030C1F88001C1F880027249A020AB
:1012600081F80004704730B5704C01252560E50613
:1012700003F03F0385F86B30002304E051F823505E
:1012800040F823505B1C9342F8DB0020206030BD07
:1012900030B595B00446302105F02AFE6448006858
:1012A00000906348001D00680190614808300068A4
:1012B00002905F480C30006803905D481030006871
:1012C00004905B4814300068059059481830006855
:1012D000069057481C300068079055482030006839
:1012E000089053482430006809905148283000681D
:1012F0000A904F482C3000680B904D483030006801
:101300000C904B48343000680D90494838300068E4
:101310000E9047483C3000680F90454840300068C8
:1013200010904348443000681190414848300068AC
:1013300012903F483F494C306FF00205006813900F
:10134000009888424DD1A810A06120612060A06261
:10135000E062E061206203A8029900F06FF8019951
:1013600081423ED10B9845F2AA5180B2884208D101
:101370000498C0B2A061139A92B28A4200D0801D34
:10138000E0610C9880B2884217D10398039A00F468
:101390007F40D2B240EA0240039AC2F307421043B0
:1013A000254A904203D30598C0F3012000E00020B5
:1013B0002061059800F00F0020600D9880B28842EF
:1013C00001D10698A0620E9880B2884201D1079898
:1013D000E0620F9880B2884201D10898206215B06F
:1013E00030BDA56125612560A562E562E5612562E4
:1013F000F5E710B50446142105F07AFD0C487C3859
:10140000006820600A4880380068606008487838C2
:101410000068A060064874380068E06004487038CE
:101420000068206110BD000010E000E0441B0022B5
:10143000B41E04005C000D6000010200F0B5074618
:1014400000200346184E10E057F8235003224FEABD
:10145000C20C45FA0CF484EA2064E4B2521E56F839
:10146000244084EA0020F2D55B1C8B42ECDBF0BD0B
:1014700070B5054600200C4C0246103C09E0AB5C00
:10148000521C03F00F0604EB1313A65D1B783044C7
:1014900018448A42F3DB70BD08B50090401E0090EE
:1014A0000028FBDC08BD0000C47000004FF00051B4
:1014B000C88C4C4A00F0030012687AB101280AD0A7
:1014C000022806D0032802D04FF416700EE0462002
:1014D0000CE096200AE04FF4967007E001280ED049
:1014E00002280AD0032806D04FF4E170401E21F8EC
:1014F000520F088070473220F8E76E20F6E7DC20B4
:10150000F4E748F61971480720F82A1F0B2180F8E4
:101510003E1000214183022180F8C0104FF0085195
:101520000120C1F8D4032F49983908602E4908607A
:1015300070474FF0005141F29840C884B6E74FF031
:10154000005140F29A70C884B0E74FF00050C08C50
:10155000A0F5A051983901D00020704701207047B4
:101560004FF000518A8C60F304028A8470471F4850
:10157000016841F00401016070471C48016821F0D6
:101580000401016070474FF000510881704717490E
:10159000283109680160154918310968416013490B
:1015A0001C3109688160114920310968C1600F4907
:1015B0002C31096801610D490C39096841610B49F9
:1015C00014310968816170474FF00050808870477E
:1015D0004FF00050807970474FF000514C2081F857
:1015E00020007047DC040022EC1B002210ED00E01C
:1015F00030B41DC8484981E81D00012130BC0020DD
:1016000005F0FEB92DE9F84F44480124006810F8B0
:101610006C5F417890F846004D4300F0030004FAF7
:1016200000FA3D486421103005F062FC3C4804F0AB
:1016300091FD3B483B490471097809B902210171C8
:10164000DFF8D480002408F1100B36E0DFF8D090EA
:10165000032735490026C9F80010484604F07EFDEE
:1016600000226B460121104605F01AFA01210020E4
:1016700005F0F5F998F8000060B103F008FF7F1E4F
:10168000002F0AD0E9DC76B34FF000005946D8F8B5
:1016900004200FE04FF00106F5E74FF0040004F0DE
:1016A00052FDF0E751F8203032F910703B4441F818
:1016B0002030401CA842F5DB641C5445C6DB012EDB
:1016C00011D1164900205C46184A0B6809E093F8CE
:1016D000B26054F8201006F00306314122F81010D1
:1016E000401CA842F3DB124901200870BDE8F88FC6
:1016F00010B50446002005F034FA022005F031FA56
:10170000E00701D0FFF77EFF022005F045FABDE8B3
:101710001040002005F040BAA80510005405100044
:101720004C02100079051000A1150000B0580120EE
:101730008C02100010B51C4C40F2FF112068FFF71E
:101740007DFE2168C1F8FC07FFF748F800213F2023
:101750000EF17EFAFFF742F82168BDE810403F2302
:101760004FF400721148FFF77EBD10B540F2FF3113
:101770000F48FFF763FE0E49C1F8FC0FFFF72EF884
:1017800000213D200EF164FA00213E200EF160FAA6
:10179000FFF724F8BDE810403D234FF48062044970
:1017A0000448FFF760BD000054051000F0EF03008F
:1017B00050000120F0CF030030B41DC84F4981E82C
:1017C0001D00012130BC002005F01AB910B5002021
:1017D00005F0C7F9FFF7BBFB00F064F80446FFF71C
:1017E000CCFB012C04D13C224549A020FFF77FFC13
:1017F000002005F0D1F9012010BD10B5FEF714FF4F
:10180000BDE81040822003F055BE2DE9F0470020CE
:1018100005F0A7F900253B4F4FF0360A6E1EA8468B
:10182000E8B2FFF76EFC0020FFF745FB3C68386824
:10183000A042FCD03868A042FCD133496420FEF7B6
:10184000FBFEFEF79EFF81463868A042FCD0386858
:10185000A042FCD1FEF795FF0446FFF764FBFEF7BC
:10186000E3FEA9EB040080B2B0EB0A0001D401460C
:1018700000E04142B14204D2002800DA404206466C
:10188000A8466D1C6DB2202DCADB1D4908F0FF0073
:10189000743981F8B000FFF734FCBDE8F047002050
:1018A00005F07AB9FEB50025684604F053FC1748E8
:1018B00000900320114E8DF804000446684604F0A1
:1018C0004DFC002202AB0121104605F0E9F8012190
:1018D000002005F0C4F8307838B1641E03F0D7FD5D
:1018E000002C05D0EADC2846FEBD4FF00105FAE7E2
:1018F0004FF0020004F027FCF5E700001C06100082
:10190000C4000120981B0022AB17000069170000DB
:1019100030B41DC88E4981E81D00012130BC002073
:1019200005F06EB82DE9F84F8A48006810F86C4F42
:1019300040784443FEF75FFF85486421103005F08E
:10194000D7FA3221844805F0B1FA3221834805F0F4
:10195000ADFA814842F21071323005F0A7FADFF893
:10196000F8A10020AAF1320A47F6FF71AAF1320B62
:10197000CA4304E02AF810102BF81020401CA042A3
:10198000F8DB774804F0E6FB754901200025087173
:10199000DFF8CC9103267349DFF8B4810027C9F83A
:1019A0000010484604F0DAFB00226B460121104685
:1019B00005F076F80121002005F051F898F80000B4
:1019C000C0B103F064FD761E002E16D0E9DCBFB373
:1019D0006148D8F8041005FB04F200F13200DFF88A
:1019E000708100EB42034FF0000056465F4608F15D
:1019F000100823E04FF00107E9E74FF0040004F07E
:101A0000A2FBE4E731F8102023F8102058F820203A
:101A100031F910C0624448F8202031F9102037F91C
:101A200010C0624501DD27F8102031F9102036F989
:101A300010C0624501DA26F81020401CA042E1DB0C
:101A40006D1CC82DA4DBDFF808810020C821424DA1
:101A500052465B4608F110080EE033F9106032F987
:101A60001070F61B761025F8106058F8206096FB71
:101A7000F1F648F82060401CA042EEDB364F002013
:101A8000364E3237894615E0002258F8203011468C
:101A900001FB040C37F91CC0BCEB030C01D5CCF1E5
:101AA000000C491C6244C829F2DB92FBF9F126F8CC
:101AB0001010401CA042E7DB002707E036F9172092
:101AC00035F91710F8B203F0F4FE7F1CA742F5DBDE
:101AD000BDE8F84FFEF782BE2DE9F84300248DF8EB
:101AE0000040FEF788FE002005F03BF8194D2868FD
:101AF00090F86B00FFF755FA2F680025A1464FF0CC
:101B00000108A1370024785D08FA04F68DF80090EA
:101B100006400DD0224629466846FFF791FA9DF807
:101B20000000202804D132462946052003F0BEFDDE
:101B3000641CE4B2062CE6D36D1CEDB2052DE1D396
:101B4000002005F029F8FEF749FEBDE8F883000003
:101B50002C06100054051000B4100120F6370120A7
:101B600054021000C118000010B5044602210020E4
:101B700004F046FF0F48046010BD08B50E48FEF79C
:101B80004EFE00226B460221104604F089FF02211E
:101B9000002004F064FF09485522016805480A71D5
:101BA00000684871020A8A71020CCA71FEF7E7FCEC
:101BB00008BD00005C021000191B00005805100051
:101BC00008B50024DFF85881564F4FF400492646E7
:101BD00000226B464146104604F062FF00988003E5
:101BE00019D5FEF741FC504804680660FEF73AFC40
:101BF000E00701D0FFF709FEA00701D5FFF7E6FDDA
:101C000000231A460121022003F03AFE4FF400316E
:101C1000002004F024FF0098000411D500256D1C5D
:101C2000EDB2FFF7D3FD01286ED0032DF7D90022C6
:101C30004946082003F03AFD4946002004F00FFF12
:101C40000098000510D53948046806602046FFF763
:101C50004FFD4FF40061002004F001FF0023E1B2CA
:101C60001A46062003F00CFE0098C0040CD5FFF7BE
:101C700084FF002301221946022003F001FE4FF4E5
:101C80008051002004F0EBFE0098800406D5FFF799
:101C900051FD4FF40051002004F0E1FE0098400493
:101CA00006D5FFF762FD4FF48041002004F0D7FE17
:101CB0000098400311D5386890F8A000C0070CD0F8
:101CC000FFF70AFF4FF48021002004F0C8FE002334
:101CD0001A4619460C2003F0D3FD009800037FF547
:101CE00077AF386890F8A0008007F8D5FFF71AFEA4
:101CF0004FF40021002004F0B2FE00231A461946DA
:101D00000E2003F0BDFD63E70120FFF7F1FCE1B217
:101D10000023C4F30722082003F0B2FD8CE7000083
:101D200003F80F0054051000740510007005100032
:101D300010B58143C80711D06448016841F0010122
:101D400001604FF40061002004F05AFE01220023DC
:101D5000BDE810401146052003F092BD10BDFEF70E
:101D6000F2BC10B5FEF7EFFC0121BDE810400846BB
:101D700004F046BE5649012805D0022805D00328A4
:101D800005D1042002E0022000E003200870704723
:101D900038B5002004F0E5FE4E48006810B1FFF7AA
:101DA000E9FF01E000F0CCF949484B4900780228EE
:101DB00013D003280ED0042812D001240025FEF7EA
:101DC000D6FE00B101256946032004F058FE0098B4
:101DD00058B909E00868847AF0E70868447AEDE7C2
:101DE0000868B0F80B40E9E715B1142C00D21424B0
:101DF00020463A49FEF7AFFC0324394D00F043FA80
:101E0000012807D1287858B1641E03F040FB002C4C
:101E10000DD0F3DCBDE838404FF0000004F0BCBE4C
:101E2000304801683048006800F01CF9F2E70320F0
:101E300004F089F9EEE770B52C4804682C490D6868
:101E40000C6095EA040F27D0214E2DB1A4B1214694
:101E50002846BDE870406BE7022030701E480068DD
:101E60000079000701D40420307021462846FFF78E
:101E70005FFFBDE870408BE7FEF765FC0121084677
:101E800004F0EDFD0120307021462846FFF750FF99
:101E9000BDE8704000F0F7B870BD10B5FEF753FC18
:101EA0000121084604F0DBFD09490420087000F018
:101EB000B1F8BDE810406BE710B5FEF744FC012116
:101EC000084604F0CCFDBDE8104061E77005100045
:101ED000700210006805100054051000131D00006A
:101EE000A00610007C0210007802100060051000AF
:101EF000740210002DE9FC5F0E4600281BD05549E6
:101F00000978042917D1002A15D1DFF84C91DFF8A0
:101F10004C81534DD9F800109246097A49070ED5E5
:101F2000A978491CC9B2A970032906D8018808EB11
:101F3000460020F8021CBDE8FC9F85F802A00320A3
:101F400004F00FFE454801906C78B5F904B028788C
:101F5000274640B941480F235A460094801D0199F5
:101F600003F049FF002734B93C4A5B46921D901D9F
:101F7000019903F031FF39496F700C31B5F9042034
:101F8000B5F90630002007E031F910409C4201DD30
:101F9000012404E0401CC0B29042F5DB0024032081
:101FA00004F0FAFDD9F8000090F8E307DA2823D10D
:101FB000D8F80010C8F81210B8F80410A8F81610D5
:101FC000D8F80610C8F81810B8F80A10A8F81C10AD
:101FD000D8F80C10C8F81E10B8F81010A8F8221085
:101FE0001E48C8F824A0C8F828A01230A8F82CA0D1
:101FF0004682A9788182C4822C70002C9BD0FFF786
:10200000AEFEBDE8FC5F0121084604F0F9BC1448AF
:1020100000787047124A012050700F480068017A1A
:102020004B0790F8711002D590F86C3001E090F8F1
:10203000703059439180B0F84B00D08000210748A0
:1020400011709170C1600182C0F80610418100F0EA
:1020500017BBDFE77002100054051000283801207C
:102060006002100070B5054630480C46224690F9D3
:102070000D102F484068FFF73DFF21462846BDE878
:10208000704000F014B810B5032004F06AFD482138
:10209000284804F02DFF274901200870032004F090
:1020A0007BFD0121BDE81040022004F0A9BC2DE910
:1020B000F041DFF884800746002698F800000D46BE
:1020C00004282CD047EA0504032004F04AFD194AED
:1020D000174B978115619868506098F800000428A4
:1020E0001FD0FF2111751070E0070DD01348016853
:1020F00011F86C0F49784843906042000D485968C8
:10210000163004F054FE0126032004F045FD002E95
:1021100009D0BDE8F0410121022004F071BC0C4659
:10212000D2E7197BDEE7BDE8F0810000E40610008D
:10213000A0061000280710007002100054051000BF
:102140002DE9F0418A4C0026DFF82882207802270A
:10215000894D04280ED000F001FD012819D08748D0
:10216000237802680320022B517B10D198F80030AD
:1021700093B113E0FFF74BFF012803D098F800005C
:10218000012804D17E49277001202E600870BDE827
:10219000F08127702E60FAE7917B0420127AD30732
:1021A00001D19207F3D52A68521C2A608A42EEDDDB
:1021B0002E602070EBE730B41DC8724981E81D0025
:1021C000082130BC012004F01BBC2DE9F0416B4814
:1021D00000250068C17BC90753D06B49664E2F4666
:1021E0000978C90748D0DFF888810125002498F8CC
:1021F0000010664A022904D0032914D0042921D1F1
:102200000FE090F8241192F90030994205DB90F923
:102210001C1192F90020914201DD847C12E0447C83
:1022200010E0447D0EE090F8241192F900309942BC
:1022300005DB90F91C1192F90020914201DD047D2B
:1022400000E0C47C00F08AFC012804D050480078EB
:10225000012807D00AE098F80000042806D00025DD
:10226000776006E098F80000022807D07068401CEC
:1022700070607068A04203DD776002E07760F8E785
:102280000025284683E72DE9FE4339483E4D0126C7
:102290000078404FDFF80081032816D004286846F4
:1022A00010D0002403F056FFFFF78FFF2978C907ED
:1022B00000D0012440EA0401C90716D02D4909784D
:1022C00001B310E000F02EF812E06846002403F09D
:1022D00041FFFFF77AFF2978C90700D0012440EABF
:1022E0000401C90701D08DF804603860C8F80040C7
:1022F0002A480090684603F031FF012806D00020EC
:10230000BDE8FE8302218DF80410EEE702AB002247
:102310000821012004F0C4FB0821012004F09FFBE8
:102320000120EDE770B50446002503F013FFFFF729
:102330004CFF1249C3074FF0020205D00968C97B60
:1023400089070FD504210BE00F4B1B78DB0700D06A
:102350000225AB0707D50968097A490702D5052187
:10236000217100E022710B4908600B48056070BDC7
:10237000700210007905100068021000540510006A
:102380008C021000A0061000740210006C051000F2
:102390005C0510007C02100078021000672100002C
:1023A0001C4808B500210122416002708160C160B3
:1023B000491E104604F053FBFFF74BFE6B4600220C
:1023C0001721012004F06CFB0098800705D5FFF76A
:1023D00032FD0221012004F042FB0098C00705D025
:1023E0000121084604F03BFBFFF7D2FC00984007B0
:1023F00005D50421012004F032FBFFF74EFD0098C3
:10240000C006DBD51021012004F029FBFFF754FDA5
:10241000D4E70000700210003221914804F046BD5C
:102420002DE9FF4F8F4F064683B0386893468E4A9A
:10243000017C6FF0130C01F00F050121029112785D
:10244000B0F91840B0F91C10C5F110094FF00008A0
:102450004FF0010A012A2DD1C27B92062AD5B0F98C
:102460001E40B0F92010012B02D0022B10D04FE0FB
:10247000C28BCDE90028438C28223C21584603F02A
:1024800099FB04B23868028CCDE90028838C25E0E2
:10249000028BCDE9002AD046438CE24662460021F9
:1024A000584603F087FB04B23868828BCDE90028D8
:1024B000838C27E0012B02D0022B12D028E0028B64
:1024C000CDE90028C38A28223C21584603F072FB3C
:1024D00004B23868828BCDE90028438B28223C2146
:1024E00012E0018BCDE9001AD046C38AE24662466B
:1024F0000021584603F05EFB04B23868828BCDE9B8
:102500000028438B52460021584603F053FB01B28A
:102510005648554ADFF848A10068137883463F685B
:1025200017E036F910C03AF91020022811D0012B1B
:1025300008D197F80F805FEA886803D5049A32F9CA
:10254000102002E0ACEB020212B2A24215DCCA4239
:1025500013D4401EE5D2029800280ED058465346A8
:1025600009E033F9102036F910106A4301FB092104
:10257000091123F81010401EF3D207B0BDE8F08F08
:102580002DE9F0411C46069F15460E46C00718D09F
:1025900000F0E4FA002814D132480068C07B8007BC
:1025A00003D533480078042806D03B462246294606
:1025B0003046BDE8F04133E73046BDE8F04100F079
:1025C00002B8BDE8F0812DE9F04F2649294C4FF0C3
:1025D000010E0A68DFF888B094F90040117CB2F966
:1025E00018A001F00F0692F86D10C6F11008B2F9AC
:1025F0001C900B4614E093FBF1F7C3EB440501FB81
:102600001737EDB2FFB23BF9155030F9177005EBF3
:102610000A0CBC45B2DBA5EB0905BD42AEDC5B1E76
:10262000012BE8DABEF1000FA8D0DC4614E092F8E6
:102630006D50C1EB440391FBF5F705FB1715EDB2A7
:10264000DBB230F915703CF91350754307FB0855A0
:102650002D112CF81350491E0129E8DA8EE70000ED
:10266000B058012054051000F04F0120140510004F
:102670001005100011051000F54800210160704799
:10268000F34800210160801F8180142141703421B2
:10269000F04804F00BBCF04A10B512680146520035
:1026A000EE4804F084FBEE490120087010BDF0B440
:1026B000EC4D944600222E68EB4D144613462D68CF
:1026C000A6B995F91C618E4210DD00210CE030F9AD
:1026D000116095F8BA70BE4201DD641CE4B2FE429E
:1026E00001D55B1CDBB2491C6145F0D395F8BB00FA
:1026F000A04200D213B9984201D204B1012295F848
:10270000BD10F0BCD248801C00F092B92DE9FF4FFB
:102710000746002081B0DFF83893D44C461EDFF81E
:1027200038B3984682460546A9F106090090012A69
:102730000CD1DBF8000039464200C648643804F08A
:1027400036FB89F80180012189F80210C149DBF8C4
:1027500000C021F81C8099F80130A3EB0802D3B225
:10276000C14A126892F8BF80984506D8002189F8BE
:102770000210BF49012008704BE099F802000128BF
:1027800047D1DFF8D0B20020ABF1640B0BF1320E71
:10279000894613E037F810802EF810803BF81010AF
:1027A00037F81080A1EB080109B229F81010A142F6
:1027B00001DD0C4646B229440DB2401C6045E9D308
:1027C00092F8BE00984212D9B2F8C000A0420EDAC8
:1027D000117CB6EB111F0AD1B2F8C210A94206DA79
:1027E000029931F91610814201DD4FF0010A92F889
:1027F000E307FE2805D109EB4C0043808680C480A6
:102800000581934892F8C4105246401C00F010F91C
:102810000090009805B0BDE8F08F2DE9F041924B93
:102820004FF0000C65461B686446664693F824E149
:1028300067468E4520DD6046BDE8F08130F9121014
:10284000B3F8B8C0614502DD0D442DB209E011EBCB
:102850000C0F06D593F810C0B2EB1C1F01D00C442E
:1028600024B2B3F818C0CCF1000C614504DA197C2D
:10287000B2EB111F00D00126521EDFD2002C00DA6D
:102880006442AC4201DD06B1012793F8B5103A4627
:10289000BDE8F0416E48C01C00F0CAB82DE9FF4FFA
:1028A00081B090468B4600240220DDF83CA004F065
:1028B00058F9DFF8B491664F2546D9F80000A7F122
:1028C000060690F8B000800711D5694802780570B7
:1028D000CDF800A058460E9B0499FFF717FF044659
:1028E000012801D024B12BE01220307028E07D7047
:1028F000D9F8003093F8B000C00721D04FF0000B9A
:10290000444652465946584608E034F910C093F8F8
:10291000B380C44501DD491CC9B2401C9042F4D3C8
:10292000514501D14FF0010B93F8B4105A46484875
:1029300000F07EF80446012803D11020307013E027
:102940003D708CB9D9F8000090F8B00000070BD5A5
:102950000AF0FF020E990498FFF75FFF0446012872
:1029600003D11420307012E0FD7084B9D9F8000052
:1029700090F8B00040070AD552460E990498FFF728
:1029800096FE0446012803D1132030701DE0BD706F
:10299000DCB9D9F8000090F8B000C00614D535486D
:1029A000007888B134480078012801D0B5800CE067
:1029B000B088401C80B2B080B0F5166F05D91620E3
:1029C000B5803070012400E03D60022004F0E4F89E
:1029D00020461FE770B506460C7800200870244892
:1029E000214D01210170286890F8B100C00709D07D
:1029F000022004F0B6F83046FFF74DFE022004F046
:102A0000CBF809E01D48016841F0010101604FF475
:102A10000061002003F0F4FF28682246012190F8AD
:102A2000B100BDE8704000F00103052002F028BFAE
:102A300010B500231C4642B10278521CD2B202707B
:102A40008A4203D90470012300E00470184610BDC7
:102A500086021000B638012014051000B05801207D
:102A60008C02100098021000540510000080FFFF37
:102A70007B05100079051000910210007005100010
:102A800070B5FF4C01200025207065711921FD48AB
:102A900004F00CFAFB483221193004F007FAF94827
:102AA00032214B3004F002FAF6484FF496710D389B
:102AB00045602561E5606570A5714FF4C87060617F
:102AC000BDE87040F04804F0F1B9F0B5EF48F04BC4
:102AD00001680020186058601881C3F80A00C3F824
:102AE0000E0001F13F0201F14704588203F10A058B
:102AF0000AE032F8106023F8106032F81060275CAA
:102B0000F61B25F81060401C91F86C608642F0DCE2
:102B1000E048007800280AD0DF480078002806D175
:102B2000D84831F8652F0D38028089784180F0BD92
:102B3000D648006890F8801069B1490010F88C2FD1
:102B4000521C40784A43C2EB022100F01F000141B1
:102B5000CB48018170470121F0E77047C848006900
:102B6000002800D00120704710B5014601248C4098
:102B7000C349C44BC74AC9680020A3F10D030C42E6
:102B80001988127807D1012A04D1C44A1278002A80
:102B900000D0084610BD012AFCD15888081A80B21E
:102BA00010BD02460020012905D0BA4B1B7813B195
:102BB000BA4B1B785BB9B24B01209040DB681842DE
:102BC00001D1B34801E0B2480A3030F812000029C0
:102BD00001D11046C8E77047F0B516460A46DDF841
:102BE0001CC004461D46002761461046FFF7D9FF6A
:102BF0000246A648006890F83A00C00702D0BCF12F
:102C0000010F0FD034F9160034F91510884200DC9A
:102C10000846904204DD012707FA06F0AF4007435B
:102C20003846F0BD34F8160034F81510084400B2E8
:102C3000EFE7014600208A0700D0012011F00C0FB9
:102C400001D040F0020011F0300F01D040F004003C
:102C500070472DE9FF4315461C460B9F00910397D3
:102C6000CDE901540E460022814601231146FFF7AB
:102C7000B3FF03970096CDE9015480460323022257
:102C800001214846FFF7A8FF03970096CDE90154BC
:102C900040EA08080523042202214846FFF79CFF6A
:102CA00040EA080004B0C0B2BDE8F0832DE9F0416D
:102CB0000C4601463222744804F079F872483222F8
:102CC0007749323004F073F86E496F483222193177
:102CD000643004F06CF86B496B4832224B3196300B
:102CE00004F065F8674A0020FF230D3A4FF0010E0B
:102CF00056686C4A07466449156814E00EFA00F2FB
:102D0000224201EB400C02D0ACF8C83001E0ACF834
:102D1000C870324201EB400202D0A2F8FA3001E062
:102D2000A2F8FA70401CA842E8D3BDE8F0812DE972
:102D3000F04F00259B469AB0531EDFB22C462B461F
:102D40000DF1340AE94611E031F9136035445E1C97
:102D5000B44695FBF6F629F81360FE1A5B1C31F9B0
:102D60001680444494FBFCFC2AF816C09342EBDB2B
:102D7000BBF1010F01D1921ED2B24C4655460FE075
:102D800034F9123035F91260334403EBD3735B101E
:102D90001BB2002B04DD31F81260F31A20F8123058
:102DA000521EEDD21AB0BDE8F08F2DE9FE4F344D22
:102DB00082463448894600262C782E703221AF3066
:102DC00004F074F814B1BAF8060068812F4F354D3D
:102DD000386890F82A10C9070BD0009490F82B009F
:102DE000514600F00F03288802B22648193003F03C
:102DF00002F8022003F0B5FE2888224900B21931FA
:102E000000904B46264A01F1960002F030FF022066
:102E100003F0C2FE1B493222AF31A1F1320003F0B0
:102E2000C6FF3868DFF88080C07B000715D51948D9
:102E30000078012811D198F8000070B9174800787F
:102E400058B128880F4900B200901848AF31026885
:102E50000846938E243202F0AEFD286809494200EC
:102E6000AF31A1F1640003F0A2FF114800780128FE
:102E700022D12888034A03B24B320949504619E04F
:102E80008C021000F938012000EC012054051000DC
:102E9000B0061000F04F01207805100079051000F1
:102EA000B0580120140510005C05100058051000F2
:102EB0003C05100002F045FEFC4998F80000097836
:102EC00008432FD1386890F82A00400706D5F84902
:102ED0002A78012301F13200FFF729FF386890F8C2
:102EE0002A1089070BD590F86D100091F04990F8E1
:102EF0006C3090F82C203231084600F04DFAEC4945
:102F000032223231EA4803F052FF2968CDF80090AE
:102F1000CDE90114E64BE64A323BE6495046FFF75D
:102F2000BDFC06463046BDE8FE8F2DE9F041002588
:102F3000E24B06462C46681E2A46AE46DFF878C3AA
:102F40001F680CE036F912308B4202DA0B44002B7A
:102F500004DC012536F9124050B203E0521CBA429B
:102F6000F0D3A5B19CF80110491CC9B28CF801102E
:102F700032290ED9D24A8CF801E001211160C3B286
:102F8000E2B2C4F30721ED2002F07AFC01E08CF8F4
:102F900001E02846C9E6CB4A10B512680446002075
:102FA000128D891A0BB2C549096806E034F911205F
:102FB0009A4201DCDA4200D50120491EF6D210BD4A
:102FC00070B5C04D024600242868C07B40071CD560
:102FD0001046FFF7E0FF012817D1FDF745FABA4C7C
:102FE000206840F002002060FDF73CFA4FF40041F9
:102FF000002003F005FD286822780121C07BC0F382
:103000008003072002F03CFC0124204670BD30B54F
:10301000A949AC4B0022CD681B68002D14464FEA2D
:10302000C07505D07DB185070DD58D782DB10AE02D
:103030004DB1850707D58C7005E001258D700C71A9
:1030400093F89750CD7010B18C7834B901E08C7042
:103050000C71024693F89700C870104630BDF0B569
:103060009A4C954F0E4620780025A8B1B6F9060077
:10307000B7F90A100A1A00D55242924910B20968EB
:10308000B1F86010814207DA0020914920700220D7
:1030900001250870FFF719FD38782178084301D120
:1030A000F08878812846F0BD2DE9F74F84B04FF0C5
:1030B0000008814ECDF80480CDF80880CDF80C8052
:1030C00015464446B6F908100498FFF72EFF01286C
:1030D0002BD0B6F908100498FFF772FF012834D0FE
:1030E000784F386890F83A00000704D573480168B3
:1030F000049800F018FADDE90401FFF756FE824655
:1031000001287CD003F0B4FF0128FAD06D48DFF825
:10311000C4B1DFF8C4910068C07B0107644820D5C2
:103120006E490978012919D01BE06548006801281B
:103130000AD170694FF00051401E706111F8350FCF
:1031400005D040F00F000870002007B02BE620F0FB
:1031500002000870624900200860FDE761490978B3
:1031600079B1C9F80000CBF8000000220123114614
:103170000095FFF76EFD070023D05A48007860B134
:103180001FE04B4F323FC9F80070CBF8000000231E
:103190001A46194638460095EBE73846FFF749FDD1
:1031A0000190042101A8FEF763F9C0B20246009520
:1031B000039001230199DBF80000FFF74AFD00EAC4
:1031C00007084046FFF735FD0290042102A8FEF7EC
:1031D0004FF900F0FF084348344900780978084364
:1031E00062D1384F386890F83A00000710D5F0796E
:1031F000A8420DD0284600F093FF284600E0B4E036
:1032000001F031F9284601F036FA284601F03EFB7C
:10321000B8F1000F39D00120B8F1010F06D92449C7
:1032200000208239B1F8031001B10120F168C9B959
:103230000028386890F83A004FEA00700AD0002859
:1032400010DA002202A9D9F8000000F0FCFB04000B
:1032500008D014E0002805DA02A9D9F8000000F02F
:10326000DEFAF4E7386890F83A0080070DD5134885
:1032700002A90278D9F8000000F064FA0446012C93
:1032800003D1386890F85F00B071029868B9386867
:1032900090F83A00000727D52946049800F059F91C
:1032A00018B101282AD02CE03BE01DE05D0510009C
:1032B00076390120B05801208C021000140510004E
:1032C0006805100054051000740510007A05100000
:1032D000800210002805100024051000F04F012086
:1032E0005C0900225C0510005CB97079012808D1E6
:1032F000B07930B1401EB071F57136E00020B07188
:1033000004467471386890F83A00400709D502986D
:1033100038B1B8F1010F04D102A9DBF8000000F0C8
:10332000A5FEF5710322F168029800F088F80446C2
:103330000499FFF794FE5A4DC8B100246C602046F2
:103340004246059B039902F0CBFA2879214602F008
:1033500013FE4FF0010A53480078042803D0029965
:103360000498FFF7A3FC6868F0605046EDE66868D3
:1033700084420ED0E0B26C60FFF749FE0446287923
:103380004246059B039902F0ABFA2879214602F0E8
:10339000F3FD00F08DF8DEE72DE9FF4F91468646FC
:1033A00000250D9F46E005FB07F00199012247F635
:1033B000FF7C01EB40066FEA0C040EEB400B13465A
:1033C0000021C9F1000A16E036F9110048450FDA6C
:1033D00050450DDD844500DD8446844200DA044614
:1033E000002802DA4FF0000202E001DD4FF0000396
:1033F00001F1010189B2B942E6D352EA030009D0D2
:1034000012B1012A04D004E0012B02D1204601E0D0
:1034100023B1002041000BD0002107E06046F9E70E
:1034200036F81120121A2BF81120491CB942F7DB8B
:103430006D1CADB203988542B5D3BDE8FF8F2DE971
:10344000F043DFF8648004461548D8F81010174B95
:1034500084EA010C124F002140684FF001090D373A
:103460001E6812E009FA01F313EA0C0F07D0234299
:1034700002D096F83B5001E096F83E507D547D56C0
:1034800045B16D1E7D54491C09B29142EADBC8F872
:10349000104009E4234201D01843F4E79843F2E7CF
:1034A000EC380120700210008C021000540510004E
:1034B00010B50B4CA078002805D0E07820B1401E54
:1034C000E070207910B910BD01202071054803215A
:1034D000007902F051FD0020A070207110BD0000A5
:1034E0008C021000EC380120F0B588496425884E24
:1034F000096811F86C2F49784A43D3B2002202FBC5
:1035000003F106EB4104002104E030F8117024F8C7
:103510001170491C9942F8DB521CAA42EFDB7D492D
:1035200000204870F0BD0B4630B47A490446487814
:10353000401CC0B24870642801D9002048705A006D
:10354000C0B27349584301EB4000214630BC03F040
:103550002EBC2DE9F34F70A08B46ADB007C829AB48
:103560004FF0000A83E80700DFF8A8916D4EDFF8FE
:103570009C815446554629A8415D99F80100401A9E
:103580006421643090FBF1F201FB1200C7B23421D8
:1035900001A803F0ADFC30685D494200784301EBBF
:1035A00040010EA803F003FC022003F0DAFA308891
:1035B00000B200905C4890F900300EAA01A82D9945
:1035C00002F055FB022003F0E7FAD8F80000474666
:1035D000C07B000714D555480078012810D1544805
:1035E000007868B95348007850B1308801A900B21A
:1035F0000090514802680846938E243202F0DBF9AD
:10360000306801A942001BA803F016FC32780123A0
:1036100001A91BA8FFF78BFB4849002001ABD6F896
:1036200000C005E033F910208A4200DD1146401C3D
:103630006045F7D33868B0F8620088422FDC00227A
:10364000012311461BA8CDF800B0FFF702FBFFF7DE
:10365000F0FA0746C00708D001200246289028A9A2
:1036600001A800F0F0F900B90124B80709D502203B
:10367000289034B9012228A901A800F0E4F900B982
:103680000124780702D50420289014B1012C0CD015
:1036900005E0012228A901A800F0D5F928B1ED1C08
:1036A000092DFFF668AF4CB32BE0D8F8001019488D
:1036B000444691F864200178491CC9B201709142D6
:1036C0001FD900210170022003F04BFA30680EA9C7
:1036D00042001B4803F06BFB022003F05DFA2068F8
:1036E0001722012190F8B10000F00103052002F03B
:1036F000C7F8FEF7C1FF4FF0010A02E0002089F889
:1037000000002FB05046BDE8F08F000054051000B7
:10371000DA390120A40210000204070A0F14284617
:1037200063000000140510006C051000F04F01202C
:103730005C05100079051000580510000080FFFF9F
:10374000B058012010B508680024072802D10020D5
:1037500001240860FE48006890F8E307DC2804D1E3
:103760001CB17F22114601F08AFF204610BD2DE9D1
:10377000F04708AC002594E80016FF242E462F469B
:1037800009E033F91680884504DB16F0FF0404D104
:10379000076033E0761C6645F3DB066876B3FF2CE2
:1037A0002CD003EB440636F9026C8E4228DC33F948
:1037B0001480884524DB09EB440339F914C033F93C
:1037C000023C891BACEB030C0CFB01FCA8EB0606CE
:1037D0009CFBF6FC63443AF914C00AEB44041BB2A8
:1037E00034F9024CACEB040C0CFB01FC9CFBF6F135
:1037F000214409B28A4201DB9A4201DD01250760BA
:103800002846BDE8F08770B5DDE90545049E012D29
:1038100002D002600B6070BD06600C6070BD2DE9C7
:10382000FF5F00260546039608680427884634464D
:1038300006285BD1B5F90800002800DD0446B5F97B
:103840000A00002801DD204404B2B5F90400214635
:10385000002801DD084404B2B5F90600002801DDA6
:10386000204404B24FF47A70414391FBF4F00FFA14
:1038700080FBB5F902004FF47A71484390FBF4F0F5
:103880000FFA80FAB3485246A0F10801CDE90010C2
:10389000A0F11003029759464046FFF768FF060063
:1038A0004FF0000917D1B5F900004FF47A71484381
:1038B00090FBF4F00FFA80F9A6484A461830A0F1C0
:1038C0000801CDE90010A0F11003029759464046C7
:1038D000FFF74DFF0646A048A0F800B0A0F802A0F0
:1038E000A0F80490B8F80010C1800681D8F8000054
:1038F00003284BD1B5F90000002800DD0446B5F9D6
:103900000200002801DD204404B2B5F9040021467C
:10391000002801DD084404B2B5F90600002801DDE5
:10392000204404B24FF47A70414391FBF4F00FFA53
:1039300080F9B5F90A004FF47A71484390FBF4F02E
:1039400002B2844802973030A0F10801CDE900109E
:10395000A0F1100349464046FFF709FF060015D1C4
:10396000B5F908004FF47A71484390FBF4F002B2C5
:10397000784802974830A0F10801CDE90010A0F185
:10398000100349464046FFF7F2FE0646D8F800000D
:10399000052846D1B5F90000002800DD0446B5F938
:1039A0000200002801DD204404B2B5F908102046C9
:1039B000002904DDA988EA88014411440CB24FF4BF
:1039C0007A71484390FBF4F00FFA80F9B5F90600DC
:1039D0000297484390FBF4F002B25E486030A0F1D9
:1039E0000801CDE90010A0F1100349464046FFF759
:1039F000BEFE060015D1B5F904004FF47A714843B4
:103A000090FBF4F002B2534802977830A0F108011D
:103A1000CDE90010A0F1100349464046FFF7A7FE8C
:103A20000646D8F8000050B949480126006890F8C9
:103A3000E307DD2803D10021039A01F020FE04B042
:103A40003046BDE8F09F2DE9F04F054687B040486D
:103A50000024069400680426DFF8FCA090F8E397A1
:103A600017468B46B9F1DC0F1FD18C21504603F06D
:103A70001DFADBF80000C0F30741AAF800109BF81C
:103A80000010AAF802102988AAF804106988AAF878
:103A90000610A988AAF80810E988AAF80A10298946
:103AA000AAF80C106989AAF80E109BF80000C0074C
:103AB0007ED04FF00008B9F1DC0F02D10B21AAF83B
:103AC0001410B5F90000002800DD8046B5F90200A9
:103AD000002803DD00EB08010FFA81F84FF47A713A
:103AE000484390FBF8F00FFA80F9B5F90600029709
:103AF000484390FBF8F000B205901848A0F1080187
:103B0000CDE90010A0F15803A0F1600203A904A8B8
:103B1000FFF779FEDDE90301CDE900100F4B0296B6
:103B2000683B49465846059AFFF721FE0446084877
:103B3000006890F8E307DC2804D1AAF816900599EC
:103B4000AAF81810002C33D1B5F9040008E00000E1
:103B5000540510008E041000624D01200E03100069
:103B60004FF47A71484390FBF8F004B2FE48029794
:103B7000A0F10801CDE90010A0F15003A0F1580216
:103B800003A904A8FFF73FFEDDE90301CDE900101A
:103B9000F54B2246603B029649465846FFF7E7FD43
:103BA0000446F248006890F8E307DC2809D100E0F9
:103BB00046E00C21AAF81E10AAF820900599AAF850
:103BC0002210ECBBB5F90A004FF47A71484390FB20
:103BD000F8F000B20590E44802971030A0F1080117
:103BE000CDE90010A0F14803A0F1500203A904A8F8
:103BF000FFF709FEDDE90301CDE90010DA4B02967B
:103C0000483B49465846059AFFF7B1FD0446D74858
:103C1000006890F8E307DC2807D10D21AAF82810E6
:103C2000AAF82A900599AAF82C104CB9B5F9080001
:103C30004FF47A71484390FBF8F00FFA80F800E0F7
:103C400028E0C94802972030A0F10801CDE9001012
:103C5000A0F14003A0F1480203A904A8FFF7D3FD97
:103C6000DDE90301CDE90010BF4B4246303B02962F
:103C700049465846FFF77BFD0446BC48006890F86B
:103C8000E307DC2806D10E21AAF83210AAF83490F6
:103C9000AAF836809BF8000080077CD5B5F90400AF
:103CA0004FF00009002800DD8146B5F90600002824
:103CB00003DD00EB09010FFA81F94FF47A714843F3
:103CC00090FBF9F000B20590B5F90200484390FB73
:103CD000F9F004B2A44803A988300090CDE90107A7
:103CE000A0F15003A0F1580204A8FFF78CFDDDE914
:103CF0000301CDE900109C4B22462833029658461A
:103D00000599FFF734FD04469848006890F8E307EA
:103D1000DC2807D11521AAF83C100599AAF83E1015
:103D2000AAF84080002C36D1B5F900004FF47A7122
:103D3000484390FBF9F00FFA80F88B4802979830CF
:103D4000A0F10801CDE90010A0F14803A0F1500254
:103D500003A904A8FFF757FDDDE90301CDE9001031
:103D6000814B42464033029658460599FFF7FFFCC7
:103D700004467E48006890F8E307DC2807D15046E7
:103D8000162120F8461F05994180AAF84A8014B9E7
:103D9000B5F90A0000E064E04FF47A71484390FB03
:103DA000F9F00FFA80F870480297A830A0F10801E6
:103DB000CDE90010A0F14003A0F1480203A904A836
:103DC000FFF721FDDDE90301CDE90010664B424616
:103DD0005833029658460599FFF7C9FC04466348D4
:103DE000006890F8E307DC2807D15046172120F837
:103DF000501F05994180AAF8548094BBB5F908007A
:103E00004FF47A71484390FBF9F00FFA80F8564866
:103E10000297B830A0F10801CDE90010A0F13803F5
:103E2000A0F1400203A904A8FFF7EDFCDDE90301BE
:103E3000CDE900104C4B4246703302965846059926
:103E4000FFF795FC04464948006890F8E307DC2832
:103E500007D15046182120F85A1F05994180AAF829
:103E60005E809BF8000040077CD5B5F908004FF054
:103E70000008002800DD8046B5F90A00002803DDAF
:103E800000EB08010FFA81F84FF47A71484390FB78
:103E9000F8F00FFA80F9B5F902000297484390FB59
:103EA000F8F000B205903248A0F10801CDE9001009
:103EB000A0F15803A0F1600203A904A8FFF7A3FC36
:103EC000DDE90301CDE90010294B0296683B494624
:103ED0005846059AFFF74BFC04462448006890F8C2
:103EE000E307DC2807D11F21AAF86410AAF866901E
:103EF0000599AAF86810002C34D1B5F900004FF4E8
:103F00007A71484390FBF8F000B205901848029788
:103F10001030A0F10801CDE90010A0F15003A0F18C
:103F2000580203A904A8FFF76EFCDDE90301CDE9FF
:103F300000100F4B0296503B49465846059AFFF732
:103F400016FC04460948006890F8E307DC2805D110
:103F50002021AAF86E100599AAF8701014B9B5F9C5
:103F6000060007E068E000001E0310005405100082
:103F7000460410004FF47A71484390FBF8F000B209
:103F80000590FE480297A0F10801CDE90010A0F1CC
:103F90004803A0F1500203A904A8FFF734FCDDE9AF
:103FA0000301CDE90010F54B0296583B49465846AF
:103FB000059AFFF7DCFB0446F148006890F8E30738
:103FC000DC2807D12121AAF87810AAF87A9005995F
:103FD000AAF87C1084BBB5F904004FF47A71484309
:103FE00090FBF8F005B2E54802971030A0F1080107
:103FF000CDE90010A0F14003A0F1480203A904A8F4
:10400000FFF701FCDDE90301CDE90010DB4B2A4697
:10401000403B029649465846FFF7A9FB0446D8485C
:10402000006890F8E307DC2806D12221AAF8821064
:10403000AAF88490AAF88650DBF8000050B9D0485E
:104040000124006890F8E307DC280BD10021069AD0
:1040500001F015FBCA48006890F8E307DC2801D19D
:10406000AAF8124007B02046BDE8F08F2DE9F041D4
:104070008EB00C468046002635463421684602F054
:1040800037FFC04F414668463A6801F03BFD39783A
:1040900040F6FF726846236800F09AFDBA4902466E
:1040A00020680B7820EA0303DF07B54B09D01F68AF
:1040B000B7F84F70974204DD20F0010001252E462D
:1040C000206087070CD50F78BF0709D41F68B7F8A1
:1040D0005570974204DA20F002000126AD1C2060E2
:1040E000470710D5097849070DD41968B1F85770FA
:1040F000974203DCB1F85910914204DA20F0040031
:1041000001262D1D2060186890F8E307DB2803D1F5
:104110002946FD2001F09CFA0EB03046BDE8F08142
:104120002DE9F04FDFF864824FF42F7208F1080593
:10413000DFF85CC24FF0A00A4FF4A57B4FF47A730E
:1041400040F2924E4FF416766FF01D0405F1080709
:10415000C2F1000905F1100100287DD001287CD0B2
:1041600002287BD14FF0DC0A4046A8F800A0468028
:1041700046464FF44870B08030461036C38040F257
:104180007A3028804FF4CD7068804FF49670A88004
:10419000A1F110006425C5805A20388038464FF4BC
:1041A000E177A0F802C04FF60C60B080A6F8069048
:1041B000FA2608460E80478040F28A2CA0F804C0F8
:1041C00040F25230C880724908F120005A31018013
:1041D00008F120084FF6F260A8F80200A8F80400E1
:1041E0004FF65C60A8F8060008F108084FF6E040BA
:1041F000A8F800006748A8F80200A8F804004FF6E5
:104200009040A8F8060008F1080006804780A0F852
:1042100004C0C380083005807825458096258580B8
:10422000B425C580083001804FF6E86141807142B5
:1042300081806FF0DB01C18008304FF4C871A0F8B5
:1042400000A041808280C380083014210180418019
:1042500028218180322102E00BE07AE008E0C18071
:1042600061000830018041806FF027018180C480A7
:10427000FAE6A8F800A0DFF814814046A8F802B0DA
:104280008280C380A5F800E008F1080540F22A30DA
:104290006880284686804FF4FA70E88005F10800AF
:1042A0003C80A0F802C03B4805F108048230A080A1
:1042B000A4F80690A020088005F110004FF4C874FF
:1042C00044808280C38008304FF6A26101806FF085
:1042D000630141804B1083806FF09501C18005F12F
:1042E00020012D48088048808880C88005F128007A
:1042F000B4210180448082804FF46171C180083014
:1043000003805A234380642383807823C38008304A
:104310004FF63E6303804FF6CA6343804FF6D46383
:1043200083804FF6E863C38008309623038044807F
:104330008280C1802821083050220180462141809E
:104340008280C18008306FF09F0101806FF0810191
:1043500083E0A8F800A0DFF834804046A8F802B057
:104360008280C380A5F800E008F1080540F22A30F9
:104370006880284686804FF4FA700FE066041000CB
:10438000540510001405100098021000A602100039
:104390007AFEFFFF26FDFFFF82FBFFFFE8803C80E7
:1043A00005F1080005F10804A0F802C0FC48A0804F
:1043B000A4F80690A1F800A04FF4C8744C808A803D
:1043C000CB8005F118004FF6A26101806FF0630108
:1043D00041806FF0810181806FF09503C3800830C8
:1043E0004FF6823303804FF67C4343804FF65E43A3
:1043F00083804FF64A43C3800830B423038044804F
:1044000082804FF46173C38008306FF031050580FE
:104410005A254580642585807825C58008304FF66B
:104420003E6505804FF6CA6545804FF6D4658580A8
:104430004FF6E865C5800830962505804480828067
:10444000C380083028220280462242805023838085
:10445000C28008306FF09F02028041806FF07702C7
:104460008280C18000E62DE9F04FCE4A00214FF452
:10447000167640F2DE3C4FF47A734FF0B40B02F143
:1044800008044FF0E60E6FF0DB0902F110056FF043
:10449000A90A6FF0950702F11808002877D00128C3
:1044A00075D0022871D11180104672104680A0F894
:1044B00004C0C38021462280234696204880642180
:1044C00099804FF4E171D980B54C083364342C8065
:1044D0004FF6765159804FF6445199804FF612515C
:1044E000D9800021A8F8001008334FF44871598092
:1044F000414640F2B6338B8008354FF47A71E9803B
:1045000008F108014FF448750D8048808A80CD80FD
:10451000083100250D804FF63E654D808C804FF6AA
:10452000A854CC80083100240C804FF448744C808F
:104530008B804FF47A74CC80083132240C80488010
:10454000AA248C80CA8008316FF0F9020A804A8060
:104550006FF0E5028A804FF6D462CA8000220831EB
:104560000A804E808B804FF47A72CA800831822292
:1045700008804A8046228A80C88001F108006FF0D6
:104580008101078041808180C7806DE5FFE7118050
:104590005680A2F804C0D380A4F800B0A4F802E0CA
:1045A000FA20A08040F26220E080A5F800907C48CC
:1045B000A5F802A0AF80D230E8807A48794C183054
:1045C000A8F8001040F226254580183440F2DE306D
:1045D000A0802046B424C3800830524604804FF4A3
:1045E000AA7444806400848040F21454C48008306B
:1045F0006FF0DB0404806FF03B044480502484801F
:104600006FF06304C48008300180458040F2DE35DD
:104610008580C380083046250580651045808480EC
:10462000C28008306FF0E50404804FF6A264448035
:104630004FF6706484804FF62A64C48008304FF4CB
:1046400016740180448040F2DE348480C3800830D8
:10465000322303801E23438081800A21C1800830D9
:104660006FF06D0101806FF0810141806FF09F015B
:104670008180C280F8E42DE9F04FDFF828812825F9
:1046800008F19808322246236FF063064FF4C8778A
:1046900040F2EE2C4FF47A7908F1080A08F1100B79
:1046A00008F118014FF0FA0E4FF4167400287BD071
:1046B000012879D0022871D16420A8F800004FF4B5
:1046C000AF70A8F80200404684801001A8F80600E8
:1046D0005046AAF800604380534682209880D880D4
:1046E0004FF67063ABF800305B466FF0E500588022
:1046F0006FF0A9009880D880642008804F808C805B
:10470000A1F806C003F11000711001804280502111
:1047100081806421C18008306FF0F90101806FF061
:10472000950141806FF077038380C6800830631065
:10473000028043804FF42F738380A0F806900830E6
:10474000058042808280C58008306FF09F02028021
:1047500041808180C28008306421018047804FF40D
:10476000FA71818040F2DA21C180083040F2E241E2
:10477000018040F28A2141804FF4D27181804FF450
:104780002A71C18008304FF6A261A0F800E0418094
:104790004FF6BC5181804FF6F851C18064E403E0CC
:1047A000A8FDFFFF46031000FF48A8F8006006467A
:1047B0004780A0F804C0A6F80690AAF8005006F1B9
:1047C00008053C206880284682802A463220D08016
:1047D0006FF06302ABF8002005F108026FF04F00A4
:1047E00050806FF059009080D0806FF06300088097
:1047F00002F108010846A1F802E084804FF47A70C3
:10480000C88001F108001031038043808380C38099
:104810006FF08100088048808880C88008316FF080
:1048200063020A804FF496724A804FF42F728A8096
:104830004FF47A72CA80083114220A801E234B80FA
:104840008B80CA8008316FF08B020A804880888094
:10485000CA8005F140006FF063010180DC214180D6
:1048600084804FF47A71C180322108300180962112
:10487000418081806421C18008304FF6125101804F
:10488000CA49418081804FF6445186E72DE9F04FB7
:10489000DFF814C300210CF1A00C0CF10804142360
:1048A00032274FF0500A4FF4167640F2B6386FF0C8
:1048B000270B04F108096FF01D026FF0090E04F1D7
:1048C000100500287DD001287CD002287BD16420EF
:1048D000ACF800004FF4AF70ACF802006046C84678
:1048E00086804FF42F70ACF806002780A5F11007E2
:1048F0005A247C806424BC808224FC806FF0F907F9
:10490000A9F800704C466FF0D10CA4F802C06FF00B
:10491000C707A7806FF0A904A8F806404FF4827873
:10492000A5F8008009F108084FF4E175A8F80250D5
:10493000A8F804604646F08008F10800BE2606800C
:10494000C8264680FA2686804FF49676C6800830C0
:104950006FF09506A0F800C0478086807E10C68064
:1049600008304FF4C877078040F22627478040F28E
:104970008A2787804FF44877C78008301E27028037
:104980000A22428087806427C78008306FF0E507DD
:1049900007806FF0BD0747808480C680083040F2F2
:1049A00076240580448040F2DA24848040F2663424
:1049B000C4800830018042808380C2800830068035
:1049C00002E00AE077E002E16FF0590141806FF008
:1049D0003B0181806FF04501F8E07348ACF800A01E
:1049E000A030DFF8C4C146800CF1A00C40F28A2050
:1049F000ACF804006046A0F80680238008300CF173
:104A0000080347801E2098802820D88003F10800E2
:104A1000A9F800B0428008337046A3F804E0D980BA
:104A20001421298008334FF4E171598040F2EE21BE
:104A3000998040F2B631D9800CF120014FF4917386
:104A40000B804FF4C3734B804FF4AF738B804FF4E4
:104A5000A573CB8008316E230B8048808880CA8084
:104A600008314FF4FA750D8040F202334B8040F26A
:104A700052338B804FF46174CC8008316FF0810326
:104A80000B806FF063074F806FF06D078F80CB80D6
:104A900008316FF0BD030B806FF0C7074F808B802C
:104AA0006FF0E503CB8008314FF42F730D804E80FB
:104AB0008B80CC8075E0ACF800A0DFF8ECC03A4801
:104AC0000CF1A00C4FF4AF7AACF802A0A0304FF478
:104AD000617CA0F804C0A0F8068023800830324B27
:104AE0004780A8333C2098802820D88003F1080014
:104AF000A9F800B0428008336FF02700988018466C
:104B00004FF4FA74C1801420288003F108004FF498
:104B1000E171418003F1080140F2EE20888040F20B
:104B2000B630C88003F110004FF4917101804FF44A
:104B3000C3714180A0F804A04FF4A571C18003F1B6
:104B400018016E200880A1F802E0A1F804E0CA80F4
:104B5000083140F202330C804B8040F252338B809C
:104B6000A1F806C008316FF081030B806FF0630578
:104B70004D806FF06D058D80CB8008316FF0BD03E7
:104B80000B806FF0C7054D808B8070466FF0E5039A
:104B9000CB8008314FF42F730C804E808B80A1F8AE
:104BA00006C00149F03103E0DE03100076FDFFFF8F
:104BB0000A80488088806FF01300C8801B486FF01F
:104BC00045010180418081806FF03B01C18049E453
:104BD0002DE9F0410024491E17468646CAB2A44674
:104BE00026462546D80701D002220DE098070BD5AE
:104BF0000124032208E03EF91400604502DD00FBB9
:104C000004660544641CE4B29442F4D985FB012394
:104C100086FB070102F0A7F8002800DA0020791EC1
:104C2000884200DD084600B2BDE8F081D6041000DD
:104C30004749096891F92421824201DA012070472D
:104C400091F91C11814201DD02207047002070475C
:104C5000404908B50020C8608860012248600A7099
:104C60003D4A142111703D4908600871FDF708FFA5
:104C7000FDF7D2FBFDF704FDFDF75AFF6B4600225E
:104C80000121022001F00CFF0098C007F6D001219D
:104C9000022001F0E4FE00F001F8EFE7F8B500278C
:104CA000032001F05EFF00F02EF82A4C2A4D2C4E16
:104CB000207BC0070BD095F90000FFF7B9FF3070DB
:104CC00095F9001002462069FEF7EEF90746A06844
:104CD00070B1022001F045FF3078009095F9003066
:104CE000D4E90412A068FDF74BFC022001F054FF48
:104CF000012F03D11B492069FDF76CFEBDE8F84088
:104D0000032001F049BF70B5124C174DE068B5F9AA
:104D10000C1080EA0102D20708D0C90702D0FDF7C3
:104D2000AFFE03E0C00701D0FDF717FFB5F90C0097
:104D3000E0602869A060A86860600B4816302061B8
:104D400028782070287D60700848606170BD000080
:104D500054051000100510006C051000F4380120F7
:104D60007C05100080021000280710004439012043
:104D7000094C00202060401C2060FBF73CFD00F047
:104D8000B5FEFBF70BFC08B9FCF7F1FBFBF750FA9B
:104D900001F026FC2068EEE72C051000F749002002
:104DA0000860F7490860F7490860F74908707047DC
:104DB000D0214DF6C062BA2000F078BC70B54FF437
:104DC0000063984202D2F14C246807E0A0F58050BD
:104DD00080B24FF4805398420CD2ED4C85189D421E
:104DE00000DD1A1A002303E0CD5C1E185B1CA555DC
:104DF0009342F9DB70BDB0F5805F04D20A460146EC
:104E0000E248006808E0B0F5FE5F07D3A0F5FE5069
:104E100080B20A460146DE4800F065BC704701F0EA
:104E200048B810B54FF40051002000F0D3F900232A
:104E3000BDE810401A461946032000F021BD10B508
:104E40004FF48041002000F0C5F90023BDE8104078
:104E50001A461946042000F013BDC8490A68824367
:104E60000A600221012000F0B5B9C4490A68024372
:104E70000A600221012000F0ADB9FBF758BEFBF734
:104E800031BE10B5C00711D0C2480023022201680C
:104E900041F0010101600121052000F0F1FCBDE8B5
:104EA00010404FF40061002000F094B910BD10B51F
:104EB0000324FBF7D9FAB8480460FBF7D3FA0023C0
:104EC00001211A46084600F0DBFCBDE810404FF413
:104ED0000031002000F07EB910B5002301221946F0
:104EE000104600F0CDFCBDE810404FF4805100208A
:104EF00000F070B910B50978A8480024012908D03D
:104F0000047040F67101A64801F0D0FFA548048066
:104F100010BD01210170F4E70421012000F05AB90D
:104F20009A4A10B5126804469F4892F8E327012C6C
:104F300002D0022C05D006E0882A10D00978017032
:104F400001E0882A02D0892A03D008E0497801705C
:104F500005E0017800231A46172000F091FC8A48EA
:104F60000178002903D1002C01DD0121017010BD61
:104F7000844A00230128136005D1087810211060AD
:104F8000012000F027B970474FF48021002000F085
:104F900021B94FF40021002000F01CB97B4800210A
:104FA000006890F86800C00711D080480068827AD5
:104FB00012B1FF2A03D00AE0C27A1AB107E0C27A1E
:104FC000FF2A04D196218172A521C17201210023FB
:104FD0001A46102000F054BC744800210B460068AB
:104FE0000A468172C172202000F04ABC00280DD010
:104FF00008786F4A01280AD002280BD003280CD069
:10500000042803D1B1F80100A2F8030070474878E2
:1050100010707047487850707047487890707047AB
:1050200010B50978634C002031B10121217062492B
:105030000870FDF74AFD00E020700120FFF721FF16
:1050400000232178BDE810401A469A2000F018BCD1
:1050500010B5584C2278D2B9574A1278BAB1574A8B
:10506000042809D000201070002321781A469F20C0
:10507000BDE8104000F004BC514B088818804888F7
:105080005049088001201070FDF71FFDECE7474AEA
:1050900000EBD070136820F0010203F1340001F03E
:1050A00086FE00231A4621789C20E1E7414A1278C7
:1050B000002A0BD0012809DC3C480978002300684D
:1050C0001A4680F83A109D2000F0DABB704770B5A0
:1050D000384C2278A2B1354D00EBD07626F0010293
:1050E0002B6803F1240001F062FE29687008002398
:1050F00048842178BDE870401A469B2000F0C0BB70
:105100002D480078002811D1204B2F4A2F4C1B68C6
:1051100008E031F8105022F8105031F8105024F8FF
:105120001050401C93F86C508542F2DC70BD70B595
:105130001E4A4D78431E14680A781D445434202DAD
:1051400002DBDBB2FF2108E0A318421E1846491C0F
:1051500001F02DFE00231A460121BDE87040992080
:1051600000F08EBB30B41A4C00B1087820700023D8
:10517000C1B230BC1A46A32000F082BB600510000B
:1051800064051000680510007B0510005405100030
:105190005000012070051000740510003C0510003F
:1051A000F24F0120340510006C0510005805100066
:1051B000F43801205C051000F04F01207805100044
:1051C000EC380120EE380120B0061000BA061000BD
:1051D0005D05100038B50C46054601F011FC694626
:1051E000284601F04CFC009A2242F8D138BD00005C
:1051F00010B52021634801F059FE6248FBF79EFC80
:105200006049401E11F8012BA2F190031F2B01D819
:105210005D4A05E0A2F1C0030F2B06D85A4A80323E
:1052200052F82320BDE810401047B82A21D00DDCE9
:10523000B02A13D0B22A27D1032825D108888A782A
:10524000BDE8104040BA1146FFF7D5BDFB2A17D084
:10525000FC2A19D1BDE81040FFF7F1BD022813DD8B
:1052600031F8022BBDE8104053BA821E1846FFF7F2
:10527000A5BD022808D10888BDE81040FFF7CFBDC2
:10528000BDE81040FFF7CDBD10BD0120FFF7EDBD1B
:105290000120FFF7E2BD10B5FDF7F2F9BDE81040BF
:1052A0000120FFF7EEBD00F066BA384810B501786E
:1052B00000290CD00221017035480068002806D072
:1052C000FDF7DEF9BDE810400120FFF7DABD10BDA3
:1052D0002E480178002903D003210170FDF7F5BBAA
:1052E000704770B52B4D2C4C00202870206800783A
:1052F000A52802D0012000F0CFF840F2FF1120686D
:10530000FCF79CF82168D1F8FC17814202D00220FA
:1053100000F0C2F840F2FF312048FCF78FF81F4937
:10532000D1F8FC1F814206D020680079800702D4A2
:10533000032000F0B1F81A48007881074FF001000F
:1053400001D5287070BD11490870FDF7BEFB012022
:10535000FFF797FDBDE870401248FEF7C5B80B494E
:1053600010B500200870FDF7B0FB0B480068007A0C
:10537000800701D5FFF7D0FDBDE810400120FFF701
:1053800080BD0000C4061000C47400007905100040
:10539000980210007A0510005405100050000120FA
:1053A000F0380120B058012008B5FFF7F7FC00F0F5
:1053B000C5F91B4C20680079800701D5FFF777FD00
:1053C00020680079C00701D0FFF75FFF2168C87B24
:1053D00000070DD511F86C0F4978484300F0B6FA74
:1053E000104900231A4608700146C02000F048FA10
:1053F000FDF76BFB01216B460022032001F050FBFF
:105400000098C007F6D0FFF7F3FE0121032001F05A
:1054100026FBFBF7A7FBEDE70121032001F0F0BA23
:1054200054051000F04F01202E4C2D4AC4E90021F4
:105430000168A1604168E16081682161C1686161C2
:105440000169A1614169E16181692162C0696062AC
:1054500004F12800FCF79BF801F03BFC606400F0CD
:1054600035F82049204AC1E90020704710B50128CD
:105470004FF0000205D00146BDE81040022000F0C8
:1054800015B90121022000F011F900F01FF80128E0
:1054900001D10220EAE7704710B504460146002218
:1054A000032000F003F9012C01D0022C01D100F0FF
:1054B0000DF810BD00220146062000F0F7B80146A5
:1054C0000022072000F0F2F800F000F8FBF793F953
:1054D0004FF0005010F8351F21F002010170FEE777
:1054E000AF0550FA00EE0120BA0110AB77B585B0D8
:1054F0000E46BDF814401546200A40EA0420ADF8D7
:1055000014004F48BDF8141000240180A0F58070ED
:10551000CDE900044B480294039400681346484ABE
:10552000C0790221FBF78BFA08B02A463046BDE865
:105530007040454901F03BBC17B581B00B46BDF842
:1055400004001446010A41EA0020ADF804003C487A
:10555000BDF8041020F8021B194601F028FC0020B9
:10556000009038480023364A0068A11CC079FBF738
:1055700035FA1FBD77B585B00E46BDF81440154607
:10558000200A40EA0420ADF814002D48BDF814109C
:10559000002401802C48CDE900042A480294039499
:1055A00000681346264AC0790221FBF748FA08B082
:1055B0002A463046BDE87040234901F0F8BBFAF7AF
:1055C000FDBF08B50020ADF8000002226946FFF7D4
:1055D0008DFFBDF8000008BD00B587B00022012195
:1055E0000720FBF711FB072001F030FD00204FF4EE
:1055F000FA7100BF401C8842FBDB072001F02FFD41
:10560000FFF7DFFFA0F584410E3902D00120FFF73C
:105610002DFFAFF2DB000190AFF22F100090AFF240
:10562000AB000290AFF2690003900848049040F28A
:105630008F20ADF814006846FBF786FB07B000BD6D
:10564000F04E012054051000F04D01205F050000D0
:105650001CB5DB238DF800308DF801008DF80210A9
:10566000100E8DF80300100C8DF80400100A8DF850
:1056700005008DF80620684600F055F91CBD1CB5E4
:10568000DB238DF800308DF801008DF80210100E2C
:105690008DF80300100C8DF80400100A8DF8050039
:1056A0008DF806206846FBF76CFA1CBD1CB50F236D
:1056B0008DF800308DF801008DF80210080A8DF881
:1056C00003008DF80420100A8DF80500100C8DF8E9
:1056D0000600100E9A498DF80700012008706846F0
:1056E000FBF74FFA1CBD2DE9FC4100270646009749
:1056F000122015460C4601978DF800001AE0200A8A
:105700008DF80100C4F30B008DF80240315C304489
:105710008DF8031041788DF8041081788DF805100C
:10572000C0788DF806008DF80770684600F0FBF829
:10573000241D2D1F002DE2DCBDE8FC811CB50020DE
:10574000804900900190096810234A7889788DF883
:1057500000308DF804008DF801008DF805208DF8DB
:1057600002008DF806108DF803008DF807006846DA
:1057700000F0D9F81CBD70B588B000240094142046
:1057800001948DF80000FBF723FF8DF80100F22053
:105790008DF803006B4E36208DF804003068684D9C
:1057A00041788DF8051080788DF806002878800102
:1057B0008DF80700684600F0B6F8009415200194B3
:1057C0008DF80000306890F8EC178DF8011090F813
:1057D000ED178DF8021090F8EE178DF8031090F881
:1057E000EF078DF80400287880018DF807006846DF
:1057F00000F099F8009402A80194FBF7FAFD1B2031
:105800008DF800000298000E8DF801000298000C3F
:105810008DF802000298000A8DF8030002988DF8B6
:1058200004008DF8054004988DF806002878800162
:105830008DF80700684600F076F800941C208DF87B
:10584000000003980194000E8DF801000398000CED
:105850008DF802000398000A8DF8030003988DF874
:10586000040005988DF8050006988DF80600287844
:1058700080018DF80700684600F055F808B070BD4B
:105880001CB5304C246894F8E247A40710D50024D6
:105890000194009416248DF800408DF801008DF8D5
:1058A00002108DF803208DF80430684600F03BF8B4
:1058B0001CBD1CB5002300930193E1238DF800303B
:1058C0008DF80100080A8DF80200100A8DF8040016
:1058D0008DF803108DF80520684600F024F81CBDF3
:1058E0007CB5184C246894F89340E4071AD000243F
:1058F00000940E258DF800508DF8010012488DF8A7
:10590000021001948DF80320B0F80300010A8DF80D
:1059100004108DF805008DF806308DF807406846B4
:1059200000F001F87CBD10B50446012001F019F922
:105930002046FBF726F9BDE81040012001F02CB904
:105940003005100054051000F4380120F0B523494B
:10595000074601200A68518C59B32149096891F81A
:10596000693092F83A108B4202D009B1FF2920D158
:1059700002F1340602F12404B51C00214FF6FF7C2D
:10598000383208E034F811300BB1634501D1002002
:1059900003E0491C89B2B942F4D3318809B1FF2927
:1059A00000D10020298821B1FF2902D0128891421C
:1059B00000D20020F0BDF0B50024059E0AE031F9C8
:1059C000145032F814705D4395FBF7F520F814502D
:1059D000641CA4B2B442F2DBF0BD00005805100014
:1059E0005405100070B54E21324801F05FFA314C79
:1059F000A620314D20804FF2362060802868417803
:105A0000217180786071FBF7DFFDE080FFF7D9FD41
:105A10002081286890F86C10217790F86D106177DC
:105A20002649E18326492184264961842649A187A4
:105A30002649A1842649E18426492185D0F8FC170E
:105A40000A0C6285A185B0F83F10E185B0F84110DD
:105A50002186B0F843106186B0F84510A18690F811
:105A6000741001F0030284F83620C1F3011184F8A8
:105A7000371090F8681001F0010121871649096874
:105A80004A8952BA628701F12202E2873232A4F8CF
:105A9000422090F8690004F8440F91F83A006070D1
:105AA0000E4824F8020F0E4860800E48A0800E4871
:105AB000E08070BD000001205405100064580120F2
:105AC000123901204439012076390120B0580120D3
:105AD000C4000120F038012058051000EC380120E6
