:100000005446495300010000E88B0200E640C63D1B
:10001000105402251910041242593059105402028A
:1000200019100412425930591054020219100412C6
:100030004259305903000000000000000000000099
:100040005446435300200000105F020000000000EF
:1000500000800110012100002521000029E6010097
:10006000292100002B2100002D2100003D2100004E
:100070003D2100003D2100003D2100002F21000016
:10008000312100003D21000033210000615F0000AC
:100090005B600000372100003D2100007952001014
:1000A00037210000694300006D4300003D2100003E
:1000B0003D210000775B0000B55200007143000055
:1000C000F5580000372100003D2100003D210000CF
:1000D0000000000000000000000000000000000020
:1000E0000000000000000000000000000000000010
:1000F0000000000000000000000000000000000000
:1001000000000000000000000000000000000000EF
:1001100000000000000000000000000000000000DF
:1001200000000000000000000000000000000000CF
:1001300000000000000000000000000000000000BF
:1001400000000000000000000000000000000000AF
:1001500000F003F800F020F8FEE70D480168890878
:100160008900002001C101C101C101C17047000027
:100170004C5B0010FEE7FEE7FEE7FEE7FEE7FEE76A
:10018000FEE7FEE7FEE703480047FEE7FEE7000064
:10019000202100003D21000000F002F800F068F886
:1001A0000AA090E8000C82448344AAF10107DA45D2
:1001B00001D100F05DF8AFF2090EBAE80F0013F0BC
:1001C000010F18BFFB1A43F0010318475800020043
:1001D000B80002000A444FF0000C10F8013B13F085
:1001E000070408BF10F8014B1D1108BF10F8015B90
:1001F000641E05D010F8016B641E01F8016BF9D183
:1002000013F0080F1EBF10F8014BAD1C0C1B09D1D9
:100210006D1E58BF01F801CBFAD505E014F8016B4B
:1002200001F8016B6D1EF9D59142D6D370470000DD
:10023000103A24BF78C878C1FAD8520724BF30C812
:1002400030C144BF04680C607047000000230024E4
:1002500000250026103A28BF78C1FBD8520728BFD6
:1002600030C148BF0B6070471FB51FBD10B510BD32
:10027000DFF80CD0FFF7F8FF05F0E2FD1CF0EEF917
:100280000080011003B4FFF7F1FF03BC1CF0EEF98E
:1002900008B500200346024600900121022000F02C
:1002A000F8FA08BD38B5FF4D0024FF48EC802C81DA
:1002B0006C81406980476861FF202871FB480023FA
:1002C0001A46046044608460C4600461012068715F
:1002D0002C706C7001460220009400F0DAFA0120C4
:1002E00038BD38B5EF4D02282C7922460DD00528AF
:1002F00010D0A24208BF38BD002003460246214666
:10030000009000F0C6FA2C7138BD022914BF0124F8
:100310000224EEE7022914BF04240824E9E708B503
:10032000009313460A460146012000F0B2FA08BDC8
:1003300008B50346009103220221012000F0A9FA2A
:1003400008BD38B500240CF017F9002818BF0124A7
:1003500010F026F9002818BF0224D2480178A142E3
:1003600008BF38BD047000200346022100902246D9
:10037000084600F08EFA38BD08B500210B4602464B
:1003800000910821022000F084FA08BD08B5002180
:100390000091002814BF0122002200230321022023
:1003A00000F077FA08BD08B500210B46024600911F
:1003B0000721022000F06DFA08BD08B500200346B1
:1003C000024600900421022000F063FA08BDB54BFC
:1003D00000285A7814BF0121002159708A4208BFB1
:1003E0007047021C18BF012208B500200346009088
:1003F0000921022000F04DFA08BDAA4840780028E3
:1004000018BF012070470120A64988707047A54891
:1004100080787047A3490020887070472DE9F0412B
:1004200004460127002503F007009E4E8846012858
:1004300004BF0020708148D0022846D170899A49B3
:1004400004280BD2002818BF306902D148688047C1
:10045000306110F8011B217030612FE0062809D2AD
:1004600088688047718980B2C1F10501C900C84020
:10047000207023E0082808D2086980477189C1F1FB
:100480000701C900C840207018E00C2808D248694C
:1004900080477189C1F10B01C900C84020700DE08F
:1004A0000E2808D2886980477189C1F10D01C90001
:1004B000C840207002E0FF20207000277089401C97
:1004C00080B270810E2828BF012588F80050384678
:1004D000BDE8F08130B403F007000024DFF8C4C1A8
:1004E000012804BFACF80640ACF80A401BD013F05A
:1004F000070F18D16B4BBCF80A00DB88022805D225
:10050000120242EA1322ACF8062009E003449D1EC1
:10051000B5F5806F04DADCF814502B4403F8022C94
:10052000401CACF80A000C7030BC00207047F0B4DE
:100530000746002003F007045A4D0646012C04BF6D
:100540006E81EE6025D0DFF85CC1022CBCF808C0DB
:1005500003D013F0070F0DD01BE06A890CEB0203E8
:10056000B3F5806F15D26869C05C3870501C688123
:1005700001200EE0120242EA1C222A81EB68012BC4
:1005800005D1B2F5806F24BF40F2FF322A815A1C98
:10059000EA600E70F0BC704738B503F00700002425
:1005A0000D46012809D13F4800231A464481C480E2
:1005B00019460220009400F06CF92C70002038BD20
:1005C0002DE9F04182B017460C0005464FF00008B7
:1005D00008BF002608D026783549012E18BF022E04
:1005E0004ED0032E5DD09EB985F8008085F801803D
:1005F000A5F80280A5F80480A5F80680A5F8088073
:10060000A5F80A80A5F80C80A87B20F00100A8734B
:10061000012E18BF032E06D00BF0FCFC002804BFEF
:1006200002B0BDE8F08105F01FFC05281CBF02B038
:10063000BDE8F081012E04BFC0208DF8000005D078
:10064000022E0CBFC220C1208DF8000060788DF80A
:10065000010060880123000A8DF80200A0788DF85F
:100660000300A0880622000A8DF8040020798DF886
:100670000500694607200FF050F802B0BDE8F08190
:100680006078421E05EB001000F8102C607805EB36
:10069000001000F80F6C08686288438BC08A5A43C8
:1006A00008E041E000840010E82002007C8800108F
:1006B0000888001092FBF0F0627805EB021222F835
:1006C0000E0C0868A288018B808A514391FBF0F0E0
:1006D000617805EB011121F80C0C6178A07905EB2C
:1006E000011121F80A0C6178207A05EB011121F83B
:1006F000080C6178607A05EB011121F8060C61782D
:10070000A07B05EB011121F8040CE0790528607845
:1007100005EB001010F8021C0CBF41F0010121F0A4
:10072000010100F8021C73E76078421E05EB00101F
:1007300000F8102C6278032005EB021202F80F0C6F
:1007400008686288438BC08A5A4392FBF0F0627853
:1007500005EB021222F80E0C0868A288018B808A31
:10076000514391FBF0F0617805EB011121F80C0C7D
:1007700005F07AFB052821D107B36178B87905EB3C
:10078000011121F80A0C6178387A05EB011121F882
:10079000080C6178787A05EB011121F8060CF879DC
:1007A0000528607805EB001010F8021C0CBF41F022
:1007B000010121F0010100F8021C17E0607805EB4F
:1007C000001020F80A8C607805EB001020F8088CE7
:1007D000607805EB001020F8068C607805EB0010BF
:1007E00010F8021C21F0010100F8021C607805EBF2
:1007F000001020F8048C0BE72B490020C8707047CC
:100800002948C078704728490120C8707047274B95
:1008100003EB80004254704700B583B001788DF837
:10082000001041788DF8011081788DF80210C178A0
:100830008DF8031001798DF8041041798DF80510B9
:1008400080798DF8060000208DF8070005F022FC65
:1008500001280CD11BF020FF012801BF9DF80000EA
:1008600046289DF80100012804BF03B000BD68467A
:100870001BF017FF03B000BD70470B49002818BFDD
:100880000120487170470848407970477047084810
:10089000704708B5DDF808C0CDF800C0DFF814C017
:1008A000DCF800C0E04708BD008400107C88001020
:1008B000B01B0200E82002007047FE48D0F8500349
:1008C00000F00100704770B5FA4D04000AD001F045
:1008D0008FFC38B9D5F8500310F0010F1CBF002071
:1008E000A86005D10120A860002C08BF002011D00D
:1008F000D5F8600310F0010F0BD1D5F8600340F07C
:100900000100C5F86003D5F8600320F00100C5F8C8
:1009100060030120286270BDE648006A002818BF05
:1009200001207047C00000F1804000F5A040416305
:100930007047C00000F1804000F5A040006B00F45B
:10094000807070471021C00000F1804000F5A04089
:1009500041637047D749D1F8402160F30D22C1F8B7
:1009600040217047D348D0F84001C0F305207047BC
:10097000D049D1F8402160F31742C1F840217047B7
:10098000CC48D0F84001C0F30740704700F00F0298
:1009900002EB42029201C0F3031002EB801000F15F
:1009A000804000F5A0400029D0F8401114BF41F06C
:1009B000010121F00101C0F84011704700F00F0162
:1009C00001EB41018901C0F3031001EB801000F13C
:1009D000804000F5A040D0F8400100F001007047D1
:1009E00000F00F0202EB42029201C0F3031002EB8F
:1009F000801000F1804000F5A0400029D0F840119F
:100A000014BF41F0020121F00201C0F8401170470B
:100A100000F00F0101EB41018901C0F3031001EB6C
:100A2000801000F1804000F5A040D0F84001C0F3F4
:100A30004000704770B4DFF880C286B00328DCE95C
:100A40000045DCF808600296CDE90045DCE9034585
:100A5000DCF814C0CDF814C0CDE9034522BF06B0C0
:100A600070BC7047032988BF0321FF2A88BFFF227B
:100A7000FF2B88BFFF235DF820C0DCF8004061F346
:100A80004614CCF8004003A951F82000016862F335
:100A900018410160016863F30801016006B070BC91
:100AA0007047844AD2F84403D2F87013C0F30B00A5
:100AB00011F0010F814940F2FF13096818D04FF07F
:100AC000320C01FB0CF100280EBF0121B1FBF0F14B
:100AD000491CFF2988BFFF21D2F870C361F3174C6E
:100AE000C2F870C3D2F824111943C2F8241105E0EA
:100AF000D2F824C161F3080CC2F824C1D2F8601303
:100B000011F0010F6D49496818D04FF0320C01FB0C
:100B10000CF100280EBF0121B1FBF0F1491CFF29A7
:100B200088BFFF21D2F860C361F3174CC2F860C3DD
:100B3000D2F8E4111943C2F8E41105E0D2F8E4C197
:100B400061F3080CC2F8E4C1D2F8681311F0010F88
:100B50005A49896804BFD2F8A40261F3080015D08D
:100B60004FF0320C01FB0CF100281ABFB1FBF0F082
:100B7000401C0120FF2888BFFF20D2F8681360F3D3
:100B80001741C2F86813D2F8A4021843C2F8A402AD
:100B90007047484900230B6202680A6042684A6055
:100BA00082688A60C268CA60426A0A64826A4A6469
:100BB00002698A614269CA61826B0A66826C0A674D
:100BC000C26C4A67026D8A67426DCA67826DC1F85E
:100BD0008020C26DC1F88420026EC1F88820426E68
:100BE000C1F88C20426FC1F8B020C26FC1F8B820A4
:100BF000C26EC1F8A820D0F89422C1F85023D0F8D2
:100C00009822C1F85423D0F89C22C1F85823D0F878
:100C1000A022C1F85C23D0F88420C1F8F020D0F8DD
:100C20008820C1F8F420D0F88C20C1F8F820D0F842
:100C30009020C1F8FC2021224A63CA63C2694A623B
:100C4000C26A8A64026BCA64026FC1F8AC20026A8D
:100C5000CA62426B0A65C26B4A66026C8A66426C63
:100C6000CA66826FC1F8B420D0F88020C1F8BC20D9
:100C7000D0F8A422C1F86023D0F8A822C1F86423D8
:100C8000D0F8AC22C1F86823D0F8B022C1F86C23A8
:100C9000D0F8B422C1F87023D0F8B822C1F8742378
:100CA000D0F8BC22C1F87823D0F8C022C1F87C2348
:100CB00006E0000000500040CC1B0200308900100C
:100CC000D0F88C2222F48032C1F84023D0F8902250
:100CD000C1F84C23D0F89420C1F80021D0F8982016
:100CE000C1F80421D0F89C20C1F80821D0F8A02038
:100CF000C1F80C21D0F8A420C1F81021D0F8A82008
:100D0000C1F81421D0F8C820C1F83421D0F8AC20A3
:100D1000C1F81821D0F8B020C1F81C21D0F8B420B7
:100D2000C1F82021D0F8B820C1F82421D0F8BC2087
:100D3000C1F82821D0F8C020C1F82C21D0F8C42057
:100D4000C1F83021D0F8CC20C1F84021D0F8D02013
:100D5000C1F84421D0F8D820C1F84C21D0F8E420C3
:100D6000C1F86021D0F8E820C1F86421D0F8EC2067
:100D7000C1F86821D0F8F020C1F86C21D0F8D42057
:100D8000C1F84821D0F8DC20C1F85021D0F8E0208B
:100D9000C1F85421D0F8F420C1F87021D0F8F8201F
:100DA000C1F87421D0F8FC20C1F87821D0F80021D6
:100DB000C1F87C21D0F83C21C1F8C021D0F84021F5
:100DC000C1F8C421D0F84421C1F8C821D0F8482185
:100DD000C1F8CC21D0F84C21C1F8D021D0F8502155
:100DE000C1F8D421D0F87021C1F8F421D0F85421F1
:100DF000C1F8D821D0F85821C1F8DC21D0F85C2105
:100E0000C1F8E021D0F86021C1F8E421D0F86421D4
:100E1000C1F8E821D0F86821C1F8EC21D0F86C21A4
:100E2000C1F8F021D0F87421C1F80022D0F878215F
:100E3000C1F80422D0F88021C1F80C22D0F88C210E
:100E4000C1F82022D0F89021C1F82422D0F89421B2
:100E5000C1F82822D0F89821C1F82C22D0F8AC2172
:100E6000C1F84022D0F8B021C1F84422D0F8B8210E
:100E7000C1F84C22D0F8C421C1F86022D0F8C821B2
:100E8000C1F86422D0F8CC21C1F86822D0F8D02172
:100E9000C1F86C22D0F87C21C1F80822D0F8842156
:100EA000C1F81022D0F88821C1F81422D0F89C2172
:100EB000C1F83022D0F8A021C1F83422D0F8A42102
:100EC000C1F83822D0F8A821C1F83C22D0F8B421CA
:100ED000C1F84822D0F8BC21C1F85022D0F8C02176
:100EE000C1F85422D0F8D421C1F87022D0F8D8210A
:100EF000C1F87422D0F8DC21C1F87822D0F8E021C2
:100F0000C1F87C22D0F8E421C1F88022D0F8E82191
:100F1000C1F88422D0F8EC21C1F88822D0F8F02161
:100F2000C1F88C22D0F8F421C1F89022D0F8F82131
:100F3000C1F89422D0F81822C1F8B422D0F8FC21CC
:100F4000C1F89822D0F80022C1F89C22D0F80422DF
:100F5000C1F8A022D0F80822C1F8A422D0F80C22AF
:100F6000C1F8A822D0F81022C1F8AC22D0F814227F
:100F7000C1F8B022D0F81C22C1F8C022D0F820223B
:100F8000C1F8C422D0F82822C1F8CC22D0F83422EB
:100F9000C1F8E022D0F83822C1F8E422D0F83C228F
:100FA000C1F8E822D0F84022C1F8EC22D0F854224F
:100FB000C1F80023D0F85822C1F80423D0F86022E9
:100FC000C1F80C23D0F86C22C1F82023D0F870228D
:100FD000C1F82423D0F87422C1F82823D0F878224D
:100FE000C1F82C23D0F82422C1F8C822D0F82C2232
:100FF000C1F8D022D0F83022C1F8D422D0F844224F
:10100000C1F8F022D0F84822C1F8F422D0F84C22DE
:10101000C1F8F822D0F85022C1F8FC22D0F85C22A6
:10102000C1F80823D0F86422C1F81023D0F8682250
:10103000C1F81423D0F87C22C1F83023D0F88022E4
:10104000C1F83423D0F88422C1F83823D0F888229C
:10105000C1F83C23FE4A126832F0FF0C05D1D1F8EA
:1010600090C062F3030CC1F890C0FA4A5370D0F8F4
:10107000943213F0010F1CBF01235370D1F8503389
:1010800023F00103C1F85033D0F8A43213F0010F5C
:1010900003D0537843F002035370D1F8603323F048
:1010A0000103C1F86033D0F8B43213F0010F03D05C
:1010B000537843F004035370D1F8703323F00103E5
:1010C000C1F87033D0F8AC0210F0010F03D05078A3
:1010D00040F008005070D1F8680320F00100C1F81A
:1010E0006803D1F82401C0F30802DB480260D1F89C
:1010F000E421C2F308024260D1F8A412C1F308014E
:1011000081607047D34800787047D2488078704734
:10111000D049C8707047CF48C0787047CF49D1F8E0
:10112000542360F30902C1F854237047CB48D0F828
:101130005403C0F309007047C64948607047C74868
:10114000C06870472DE9F047DFF80893054615F4AD
:10115000003F99F8010099F8031000EA010418BF54
:1011600024F0010415F4802F18BF24F0020415F4B4
:10117000002F18BF24F0040415F4801F18BF24F0BA
:101180000804DFF8D882D8F8400320F48030C8F88B
:10119000400314F00F0F65D0D9F80460D8F8480365
:1011A000002740F00100C8F84803D8F8480320F0B1
:1011B0000100C8F84803D8F8400340F48030C8F86C
:1011C00040034FF0630A0DE002F065FF5046D8F887
:1011D000481311F0010F01D0012703E0011EA0F117
:1011E0000100F4DC301EA6F1010601DD002FEBD07A
:1011F000BFB3D8F8500314F0010F0CBF20F001006A
:1012000040F00100C8F85003D8F8600314F0020F52
:1012100014BF40F0010020F00100C8F86003D8F8C6
:10122000700314F0040F14BF40F0010020F001001F
:10123000C8F87003D8F8680314F0080F14BF40F022
:10124000010020F00100C8F8680389F8024001207D
:1012500089F80000D8F8400340F48030C8F8400313
:101260003AE0FFE7D8F8500320F00100C8F8500337
:10127000D8F8600320F00100C8F86003D8F87003C4
:1012800020F00100C8F87003D8F8680320F00100CE
:10129000C8F86803002089F80200ACB1022089F880
:1012A0000000D8F8400340F48030C8F84003D8F874
:1012B000480340F00100C8F84803D8F8480320F07C
:1012C0000100C8F8480307E0D8F8401321F4803142
:1012D000C8F8401389F80000D8F8400115F0020F53
:1012E00020F00D0018BF40F0010015F0080F18BFE6
:1012F00040F0040015F0040F18BF40F00800C8F8D3
:10130000400115F0010F21D001F008FA044601F068
:1013100008FA0146D8F80C0000280EBF20460846FF
:1013200021460028D8F8000214BF40F0010020F048
:101330000100C8F80002D8F84002002914BF40F0AC
:10134000010020F00100C8F840020BE0D8F80002CC
:1013500020F00100C8F80002D8F8400220F0010097
:10136000C8F8400215F0200F18BF002416D0204600
:1013700001F0DEF900284FEA841000F1804000F50A
:10138000A040D0F8C01214BF41F0010121F00101CA
:10139000C0F8C012641C022CE9D30BE0D8F8C002DC
:1013A00020F00100C8F8C002D8F8000320F00100C6
:1013B000C8F80003BDE8F047FFF773BB2DE9F00361
:1013C00000F00F01002201EB41018C01C0F3031179
:1013D00004EB811101F1804101F5A041D1F84011E8
:1013E00011F0010F0ED140F01001C1F3031104EB15
:1013F000811101F1804101F5A041D1F8401111F0B6
:10140000010F4DD0144951F820801449C96901F0E9
:10141000080700EB40018E01114989591FFA81F933
:10142000002140EA0113C3F3031304EB831303F118
:10143000804303F5A043D3F8403113F0010F24D0CB
:1014400006EB811303F1804303F5A0430AE000009B
:10145000E0FE0300188400103089001000500040A6
:1014600000510040D3F844C1CCF3080517F1000C3B
:101470001CBFD3F844C1CCF3023CD3F8403105FA89
:101480000CFCC3F3054362441A44491C0229C8D327
:1014900008EBC80102FB09F001EB081100EB410267
:1014A000BDE8F0031046704710B50120FFF786FF36
:1014B00004460220FFF782FF044400F07BFC204436
:1014C0004FF47A7148434CF25031B0FBF1F010BD4B
:1014D0002DE9F041FA4E0546306810F01F0408BFB0
:1014E00001240120FFF76AFF07460220FFF766FF8D
:1014F000074400F05FFC3918F24F002D18BF002997
:1015000059D0D6F85003002210F0010FEE48A0FB8E
:1015100005C04FEA501033D07823B3EB151F08D91C
:10152000D6F85C0320F00F0040F00100C6F85C0321
:1015300034E0D6F85433DFF894C3C3F309036343AC
:101540006FF018056B430CEB43034FEA101CB3FB21
:10155000F1F0102828BF0F20844598BF604600286E
:1015600008BF012005D0012884BF00FB1132B2FB67
:10157000F0F2D6F85C3360F30303C6F85C330DE099
:10158000D6F85C33C0F3031023F00F031843C6F8FA
:101590005C03B7FBF5F0884288BF421A32206043F3
:1015A000B2FBF0F0B0F5005F28BF41F6FF70726843
:1015B00060F30C0272607068C0F30C00604300EBD3
:1015C000C00202EB001001EB4000B7FBF0F0BDE8F9
:1015D000F081BB48D0F8501311F0010F07D0D0F8BC
:1015E0005C0300F00F00C0EB00108001704770B585
:1015F0000168406801F01F05C0F30C060120FFF7E9
:10160000DDFE04460220FFF7D9FE044400F0D2FBC1
:1016100006FB05F1322201FB02410844A949B1FB56
:10162000F0F070BDA648D0F85C0300F00F007047E2
:10163000A3494A684B68C2F30C0260F30C034B6089
:10164000104670479E484068C0F30C00704700EB9E
:101650004000800100F1804000F5A040D0F800017A
:101660009B4980B2B1FBF0F0401C4008704730B499
:10167000974B31B1B3FBF1F1491C4A08B2F5804FE9
:1016800001D343F6FF72B3FBF2F1491C4D088C49BC
:101690004FEA520C51F8803F096803F00704C1F388
:1016A000031300EB4001890101F1804101F5A041E4
:1016B00018B3D1F80401DB1C634380B2A2EB4303EF
:1016C000D1F8004123F0010362F30F04C1F8004197
:1016D000D1F800216CF31F42C1F80021D1F8042198
:1016E00060F30F02C1F80421D1F8180163F30F0071
:1016F000C1F81801284630BC7047DB1CACF106006D
:101700006343A0EB4303DBE700EB4000800100F103
:10171000804000F5A040D0F80001000C704700EBBD
:101720004002920102F1804202F5A042D2F800315B
:1017300061F31F43C2F80031002818BF7047604AA8
:1017400052F8800F00F0070C52F81C0BC0F3031383
:10175000881FD91C01FB0CF1A0EB4101936E21F015
:10176000010160F30F039366D06F61F30F00D06740
:10177000704700F00F0101EB41018901C0F3031034
:1017800001EB801000F1804000F5A040D0F844014A
:10179000C0F30800704700F00F0202EB4202920112
:1017A000C0F303104B4B02EB801000F1804000F5BA
:1017B000A0409B58D0F84421CB1A61F30802C0F82E
:1017C0004421D0F844119B1E63F31841C0F8441122
:1017D00070473B49C969404A11F0100F00F00F01F2
:1017E00001EB41014FEA8111C0F3031001EB8010BE
:1017F00000F1804000F5A0405258D0F84401D2B228
:10180000C0F3080008BF0022801A0004000C08BFC3
:101810000120704700F00F0303EB43039B01C0F36B
:10182000031003EB801000EB810000F1804000F515
:10183000A040C0F85021704700F00F0202EB4202B6
:101840009201C0F3031002EB801000EB810000F165
:10185000804000F5A040D0F850017047184A0021A0
:10186000D26912F0080F10D000F00F0101EB410116
:101870008901C0F3031001EB801000F1804000F5F6
:10188000A040D0F84401C0F30231084670470C4A2A
:10189000D36943F00803D36100F00F0202EB420268
:1018A0009201C0F3031002EB801000F1804000F5BC
:1018B000A040D0F8442161F30E32C0F844217047B3
:1018C000005000400008AF2F89888888D8810C001C
:1018D000A08601001C51004028510040FD4A002113
:1018E000D26912F0080F10D000F00F0101EB410196
:1018F0008901C0F3031001EB801000F1804000F576
:10190000A040D0F84801C0F302410846704700F0FB
:101910000F0202EB42029201C0F3031002EB8010AF
:1019200000F1804000F5A040D0F8482161F3124258
:10193000C0F848217047042988BF704710B40023BD
:10194000E44CE26912F0080F00F00F0202EB4202D1
:101950004FEA8212C0F3031002EB801000EB040286
:101960001CBFD2F84401C0F302330020D4F81CC0DD
:101970001CF0080F1CBFD2F84801C0F30240C91A7E
:101980000844042803DD081A011D042003E0002890
:10199000BCBF014400201944E36943F00803E3613C
:1019A000D2F8443161F30E33C2F84431D2F8481111
:1019B00060F31241C2F8481110BC7047C5490028B5
:1019C000886914BF40F0080020F008008861704763
:1019D000C0488069C0F3C0007047BE4900288869CC
:1019E00014BF40F0020020F0020088617047B9483F
:1019F0008069C0F34000704700F00F0202EB420222
:101A00009201C0F3031002EB801000F1804000F55A
:101A1000A040C0F84C11704700F00F0101EB4101EC
:101A20008901C0F3031001EB801000F1804000F544
:101A3000A040D0F84C017047A64AD2F85C130229A6
:101A400003D110F0010F18BF7047D2F8400110F019
:101A5000010F0BD0D2F84C01D2F844110028C1F389
:101A600002311EBF0029C043C2F84C01012101EB25
:101A7000410100204FEA811C0CEB801101F18041F3
:101A800001F5A041D1F8402112F0010F0BD0D1F89F
:101A90004C21D1F84431002AC3F302331EBF002B7E
:101AA000D243C1F84C21401C0228E5D37047894A33
:101AB0000021D26912F0080F10D000F00F0101EBE5
:101AC00041018901C0F3031001EB801000F1804057
:101AD00000F5A040D0F84801C0F300510846704717
:101AE00001207047F0B4022ADDE9044C069E26BFAF
:101AF000921E52080022022B26BF9B1E5B08002369
:101B0000754DA5FB04542709BCF1020F0CBF01243D
:101B1000002400F00F0505EB4505AD01C0F30310EF
:101B200005EB801000F1804505F5A045D5F864016E
:101B3000002E61F31B6062F3144063F30C2067F323
:101B400007006CF38F3014BF40F4005020F40050B5
:101B5000002C14BF40F4001020F40010C5F86401FC
:101B6000F0BC70472DE9F00700F00F0606EB4606C3
:101B7000B601C0F3031006EB801000F1804000F5C1
:101B8000A040DDE90754DDF824C0D0F86401002945
:101B9000C0F3036AC0F30449C0F38137C0F3403691
:101BA000C0F30428C0B218BFC1F800A01AB14FEAB0
:101BB0004901891C11601BB14FEA4801891C196059
:101BC0001DB100EB800080002860002C18BF27604A
:101BD000BCF1000F18BFCCF80060BDE8F0077047FB
:101BE0003C490028C86914BF40F0200020F02000C4
:101BF000C86170473748C069C0F34010704770B47F
:101C000091B000224FF480456C10EC4601E0082AA8
:101C100005D2531C03EB8303B5FBF3F304E0D31F9E
:101C200003EB8303B4FBF3F35B1A48BF5B424CF84E
:101C30002230521C102AEAD30026009B01215CF8B6
:101C400021209A42BCBF13460E46491C1029F6D3E8
:101C500000F00F0101EB41018901C0F3031001EB1A
:101C6000801000F1804101F5A041D1F86801D1F860
:101C7000682100F00F0066F30302C1F8682108280C
:101C800007D2401C00EB8000B5FBF0F011B070BC37
:101C90007047C01F00EB8000B4FBF0F011B070BCC7
:101CA000704700F00F0101EB41018901C0F30310FF
:101CB00001EB801000F1804000F5A040D0F86801F1
:101CC00000F00F00082834BF401CC01F00EB80004C
:101CD00004E0000000500040CDCCCCCC34BF4FF429
:101CE00080414FF40051B1FBF0F0704710F00F0F3E
:101CF00008BF704700F00F0000EB4000800100F1CA
:101D0000804000F5A0400029D0F82C110CBF21F430
:101D1000803141F48031C0F82C117047002110F05F
:101D20000F0F0ED000F00F0000EB4000800100F11B
:101D3000804000F5A040D0F82C0110F4803F18BF7F
:101D400001210846704700F00F0000EB40008001C1
:101D500000F1804202F5A042D2F83401C2F83411F9
:101D600070472F4B58679967DA6770472C490028EE
:101D7000D1F8AC0014BF40F0020020F00200C1F81E
:101D8000AC00704726490028D1F8AC0014BF40F0E1
:101D9000010020F00100C1F8AC0070472048D0F8E5
:101DA000E00070471E49C1F8E40070471C48D0F8B5
:101DB0009800704770B41A4E0020D6F8401111F008
:101DC000010F04BF70BC704711F0040FD6F800C1BA
:101DD00001F00805134A12681FFA8CF4D6F844C1C2
:101DE000CCF3080C18BFC1F30740F369C1F3052118
:101DF00013F008031CBFD6F84431C3F30233002D9F
:101E000018BF491C0CFA03F301FB0300604302EB0B
:101E1000C20170BC01EB021100EB410070470000F1
:101E20000050004030890010FEF776BD10B5FEF777
:101E300073FD012818BF10BD0020FEF744FD2121CD
:101E40000020FEF76FFD2121BDE810400120FEF7C4
:101E500069BD10B5FEF730FDFEF75EFD01280AD121
:101E60000020FEF730FD21210020FEF75BFD21213F
:101E70000120FEF757FD0121052001F032FC012170
:101E8000052001F02EFCFA490020C87110BD10B5E4
:101E90004FF4066001F07BFCBDE810404FF4066093
:101EA00001F066BCF24A01465079002818BF0120B3
:101EB000002918BF01215171002191717047EC4A2E
:101EC000516A506208467047E949002008718870DD
:101ED00048707047E6490020087188704870704764
:101EE00070B50007C00E0D46801E00EB400101EBEF
:101EF0000014E0484FF4987200EBC40029461AF031
:101F0000D5FBDD4805F5987100EBC400BDE87040D5
:101F10004FF498721AF0CABB2DE9F0410546FEF75E
:101F200021FDD64FDFF858830446EDB14C2004FB69
:101F300000F21646294638461AF0B8FB324605F537
:101F4000006140461AF0B2FB04EB440000EB0414BD
:101F500007EB84004C211AF0AEFB08EB8400BDE8CF
:101F6000F0414C211AF0A7BB4C21401C41430C46C8
:101F700038461AF0A0FB21464046BDE8F0411AF071
:101F80009ABB10B5BA4CE061FFF7DCF8FFF7BAF87E
:101F9000A1696FF30F01A161A269C1B242EA0121F7
:101FA000A161022818BF10BDA06940F00100A06126
:101FB00010BDB4488168B44A114381600168521C65
:101FC0001143016000F067BE2DE9F041AD4A0546BE
:101FD0000C469068AC4B184390601068591C08433D
:101FE000106000F058FE0026002C7DD00020FEF787
:101FF0006AFC206820B1FEF7CCFD0020FEF763FCF0
:102000002846FFF7BEFF0020FEF7D8FC002835D099
:102010006068FFF781FF9D48E36853B1A1694FF401
:10202000407C4A420CEB820203EB81011AF03EFB3A
:102030001DE0974D4FF440711AF03DFB0020012345
:102040002956002910DB0A09120202EB800202F174
:10205000405202F540420907C90ED2F800C003FA07
:1020600001F14CEA01011160401C2628E8D389489F
:10207000616959B14FF400721AF018FB0120FEF7A4
:102080009DFCDFF8F0817C4F48B904E04FF400710B
:102090001AF011FBF2E71120FEF790FC70B1A56871
:1020A00065B140464FF4987229461AF0FFFA384657
:1020B0004FF4987205F598711AF0F8FA0220FEF7BD
:1020C0007DFC18B91220FEF779FC68B124695CB177
:1020D00071484FF4987221461AF0E8FA6F484FF4AD
:1020E000987204F5987100E001E01AF0DFFA604898
:1020F0000671867046704662417900214171867191
:102100004FF4066001F043FBBDE8F0414FF4066078
:1021100001F02EBB10B50020FEF7D5FB00F0A8FDA6
:102120005348C078002808BF10BD5648016821F008
:10213000030141F00D7141F080510160816821F08F
:10214000020141F00D7141F08051816010BD4FF4EA
:10215000066001F012BB10B54FF4066001F00DFBF4
:10216000FEF7DAFB01280AD10020FEF7ACFB2121A3
:102170000020FEF7D7FB21210120FEF7D3FB4848C2
:10218000D0F8401321F48031C0F840130020FEF74E
:102190009AFB00F06DFD3648C078002808BF10BDDE
:1021A0003848016821F0030141F00D7141F0805180
:1021B0000160816821F0020141F00D7141F0805110
:1021C000816010BD10B501F0DDFA10F0600018BF9D
:1021D000012010BD2648C0697047254880697047B6
:1021E00072B623498A6922EA0000886162B67047A4
:1021F0001F480078002818BF0120704770B5FEF70F
:102200008BFB002818BF70BD0024194D2C71AC70D9
:102210006C7021212046FEF785FB21210120FEF76D
:1022200081FB2C70BDE870400120FEF74CBB70B5FF
:102230000446FEF771FB002818BF70BD00210C4D4D
:102240002971A970697021210020FEF76BFB212103
:102250000120FEF767FB022C3CBF0120FEF772FB5A
:10226000012028702C62BDE87040FEF72CBB0000F6
:1022700020840010189D003018BD00300080003010
:1022800000A00030008000400200341200C0003086
:102290003C89001000D00030489E003048BE00301D
:1022A0000050004010B5FEF737FB002818BF10BDE6
:1022B0000020F94C2071A07060702121FEF732FBE4
:1022C00021210120FEF72EFB0120FEF73BFB012020
:1022D00020702062BDE81040FEF7F5BA0020FEF73E
:1022E000F2BAED490020887048700120FEF7EBBA81
:1022F000E94988627047E848806A7047E649C862E1
:102300007047E548C06A7047E34A0028D16A14BFA5
:1023100041F0010021F00100D0627047DE4890F8E2
:102320002C0000F00100704770B5DB4C0546A06A38
:10233000401CA062E16A11F0800F14BF01F010018F
:1023400001F00101002918BFFFF776FB207850B19A
:10235000206A10B1206A401E2062206A002804BF53
:102360000020FEF7B0FA20212846FEF7DBFA616A6A
:1023700000291CBF28468847FEF7C4FE022815D155
:10238000C648D0F8481311F0010F0FD0D0F8481309
:1023900041F00101C0F84813D0F8481321F00101C1
:1023A000C0F84813A06940F00200A061BC48016871
:1023B00041F02001016070BD0020B5E70120B3E7C6
:1023C00010B5FFF7EBFC0446FFF7ECFCB548044200
:1023D00008BF10BDB048816941F0040181610E2140
:1023E00001EAD43104F001020A43816962F31F411A
:1023F0008161AB48016841F02001016010BD0028F7
:1024000018BF0120A449C8707047A7487047A74863
:102410007047A148006B70479F48017A827A9142C9
:1024200014BF406B806B70479B48806B70472DE9F1
:10243000F04F9D4F4FF0000C8DB007F14C04E64675
:102440004FF0FF3807F80C8004F80CE00CF1010C99
:10245000BCF1260FF6DB4FF0000C002807DD12F868
:102460000C5007F80C500CF1010C6045F7DC002211
:102470000126CDF804E06D46CDF800E0002816DD19
:1024800017F902C0BCF1000F0EDBBCF1260F0BD216
:102490004FEA5C190CF01F0C55F829A006FA0CFC49
:1024A0004AEA0C0C45F829C0521C8242E8DB0022A3
:1024B00094460DF108094FEA521A02F01F0B55F825
:1024C0002AA006FA0BFB1AEA0B0F1ABF09F802C082
:1024D0000CF1010C09F80280521C262AEBDB0022C9
:1024E000002810DD17F902C0BCF1000F08DBBCF1B9
:1024F000260F3ABF19F80CC004F802C004F8028095
:10250000521C8242EEDBDFF890A100220028CAF8BC
:1025100030E009DD14F902C0944502D0CAF8304019
:1025200002E0521C8242F5DBDFF884B10020ABF1FF
:10253000720404F14C0704F8008007F800E00BF87F
:1025400000E0401C2628F6DB0020002904DD1A5C90
:102550002254401C8142FADC0020CDF804E0CDF882
:1025600000E0002912DD2256002A0CDB262A0AD2BE
:10257000530902F01F0255F823C006FA02F24CEA92
:10258000020245F82320401C8842ECDB0020024672
:10259000430900F01F0C55F8233006FA0CFC13EA2F
:1025A0000C0F1ABF09F80020521C09F80080401CCB
:1025B0002628EDDB002000290BDD2256002A05DB52
:1025C000262A3CBF19F802200BF80020401C884244
:1025D000F3DB0020CAF838E0002909DD1BF90020F0
:1025E000824202D0CAF838B002E0401C8842F5DBD3
:1025F00011F0010F18BF252015D0420900F01F036C
:1026000055F8222006FA03F31A420AD1420900F0D3
:102610001F0055F8223006FA00F0184345F8220052
:1026200001E0401EE9D500200246430900F01F0CDE
:1026300055F8233006FA0CFC13EA0C0F1ABF09F800
:102640000020521C09F80080401C2628EDDB0020E9
:1026500000290ADD2256002A04DB262A3CBF19F88D
:1026600002203A54401C8842F4DB0020CAF834E0CF
:102670000029DCBF0DB0BDE8F08F3A56824204D08D
:10268000CAF834700DB0BDE8F08F401C8842F4DB0E
:102690000DB0BDE8F08F0000208400100050004015
:1026A00060840010010007003C890010628900105E
:1026B000D489001040F2DB114843FE4901EB800051
:1026C0007047FD49C0EB001001EBC0007047DFF818
:1026D000ECC3012B8CF808008CF8091003D9401CBE
:1026E00020F0010011468CF80A008CF80B1000FB5A
:1026F00001F24FF6FF7101EA4202ACF8122001EA42
:102700004000ACF814007047EC48C07A7047EB48C2
:10271000807A7047E94A107351737047E748407BED
:102720007047E648007B7047E54A1070517070476B
:10273000E349085C70472DE9F047DFF880930446D1
:1027400099F80500002804BF99F8010019F0B8FFB6
:1027500099F80400002808BFBDE8F0874FF0000892
:10276000D9F81C0047464646454610F0020F1CBFEC
:10277000DFF8408310F0040F05D0B9F81210CD4AED
:1027800021F001018F1810F0010F18BFCA4E10F090
:10279000200F18BFCB4DD9F828002060FEF7B5FCFC
:1027A00010F0010F06D0FEF73DFF022828BF99F870
:1027B000020000D20020E760C4E90108C4E9046512
:1027C0000120BDE8F087BD4800210171817170478B
:1027D00070B50546FEF7C6F84C2100FB01F2144621
:1027E000B949284619F062FF224605F50060BDE8A8
:1027F0007040B64919F05ABFF0B583B0FEF7B2F891
:10280000044600210846FFF717F800900121002038
:10281000FFF712F800220190002C2AD96E464FF0E3
:10282000010C4FF6F07502EB4200002100EB0210A4
:102830004B0901F01F0756F823300CFA07F73B420B
:1028400011D0CB079B0C03EB80034F0803EB8703EE
:1028500003F1405303F500431B889BB2AB4202D9FE
:1028600003B00020F0BD491C2629E1D3521CA2422E
:10287000D9D303B00120F0BD70B50D460107C80ED5
:10288000811E01EB410000EB011491484FF4987256
:1028900000EBC401284619F009FF8E484FF49872E6
:1028A00000EBC40105F59870BDE8704019F0FEBE5C
:1028B0002DE9F04F00F00F07780083B0A0F1020B74
:1028C0000025E9464FF001084FF6F07647EA051A71
:1028D0005046FEF773F8002843D05046FEF7BEFF7F
:1028E00008FA00F4022C88BF022400215046FEF7AB
:1028F000A3FF009001215046FEF79EFF00210190AA
:10290000002C2ED90BEB0500982200FB02FA01EBFC
:102910004102002002EB011C420900F01F0359F89C
:10292000222008FA03F31A4215D000F001020AEB44
:10293000423202EB8C02430802EB830202F1405266
:1029400002F51042B2F8182D92B2B24203D903B088
:102950000020BDE8F08F401C2628DDD3491CA14291
:10296000D5D36D1C022DB1D303B00120BDE8F08F8B
:102970002DE9F0410026514D00280C4640D000F0D2
:102980000F01C0F3031001290EBF00210229BDE889
:10299000F081022828BFBDE8F0810F18FDF7BCFFC9
:1029A0005FEA00081CBF0020FDF78DFF0023982080
:1029B00007FB00FC03EB4300002200EB031702F0CF
:1029C00001000CEB4030510800EB870000EB810068
:1029D00000F1405000F51040521CC0F8184D262A56
:1029E000EDD35B1C022BE5D3B8F1000F08BFBDE8A7
:1029F000F081AE706E70BDE8F0410120FDF763BF5D
:102A0000FDF78AFF5FEA00081CBF0020FDF75BFFAF
:102A1000002303EB4300002200EB031CD007800CD3
:102A2000510800EB8C0000EB810707F1405707F5D8
:102A30000047521C3C60262AF0D35B1C312BE8D3A4
:102A4000B8F1000FD5D1BDE8F08110B5FEF7C1FE99
:102A50001A49088210BD194AC1B200F47F43128A94
:102A6000914288BF11464FF0640C01FB0CF1B1FBA1
:102A7000F2F11A0A02FB0C1110F4803F12BF08B2E7
:102A8000484200B2704710B54FF44071124C1348E1
:102A900019F011FE002001232156002927DB0A0925
:102AA000120202EB800202F14052090702F5404295
:102AB000C90E15E0B01701101C1F01102084001072
:102AC0002E8400100C2001100080003000A0003087
:102AD000189D003018BD00303C89001000C0003047
:102AE000D2F800C003FA01F14CEA01011160401C68
:102AF0002628D1D310BD10B5224C4FF44071224886
:102B000019F0D9FD002001232156002910DB0A0904
:102B1000120202EB800202F1405202F54042090724
:102B2000C90ED2F800C003FA01F14CEA01011160AC
:102B3000401C2628E8D341F67871144819F0BBFDF3
:102B4000BDE8104041F67871114819F0B4BD114844
:102B500010B5808B00F48170FFF713FA4FF44071C9
:102B6000094819F0A8FD41F61851084819F0A3FDCD
:102B700041F61851064819F09EFDBDE810400020AE
:102B8000FEF756BD3C89001000C0003000800030C8
:102B900000A00030208400102DE9F04100276D4D89
:102BA0000126002808BF2E701FD001282F7018BFE3
:102BB0006F701AD0DFF8A081D8F800006749084389
:102BC000C8F800002978664C002914BF49F608307F
:102BD0006448E06014BF64484FF0BB70A060634875
:102BE000006830F0FF0206D101E06E70E2E7E268B3
:102BF00060F30302E26051B1A06840F01800A060E9
:102C0000012000F085F8A06840F48050A060012009
:102C100000F07EF8687818B1E06840F03000E060BD
:102C2000D4F8B00040F00100C4F8B000012000F07A
:102C30006FF8E6674FF4E0602061C4F88870287888
:102C4000002818BFC4F89460E06820F03000E0600D
:102C5000A06820F48050A060D8F8000020F00400A4
:102C600040F00D7040F08050C8F80000BDE8F081E1
:102C70003B48C16821F03001C160816821F4805176
:102C800081603548016821F0040141F00D7141F087
:102C9000805101607047304802683049114301603B
:102CA0002C492F480A783AB1826842F018028260B3
:102CB000826842F480528260497819B1C16841F05B
:102CC0003001C160D0F8B01041F00101C0F8B0107F
:102CD0007047B0F5007F28BF40F2FF10244941EA59
:102CE00000201F49086470471D494FF020400864C8
:102CF00070471B4A116C4FF020401064506C11F06B
:102D0000FF0FC0F308201CBF41F020411164704741
:102D100082B040F24C42009013E000BF00BF00BF01
:102D200000BF00BF00BF00BF00BF00BF00BF00BFAB
:102D300000BF00BF00BF00BF00BF0198411E01914E
:102D4000EBD20098411E009128BF0192F5D202B04B
:102D5000704700005C8400100080004004003412C2
:102D60000060004005F4010020009B00D0FE03003D
:102D7000130000A0424841498161891CC1614A1E7B
:102D80004263036823F0030343F00D7343F0805361
:102D90000360436923F0010343F00D7343F0805354
:102DA000436103691A430261364A8260364AC2604F
:102DB000C2681143C160354900200860704710B5F2
:102DC00001F061F931480468002C08BF30BFFAD027
:102DD0000021016001F05BF9204610BD10B501F043
:102DE00052F92648294B2649421C1C682CB1002068
:102DF000186001F04CF9204610BD72B648638A6134
:102E000020BF88614A6362B6BFF36F8FBFF34F8FF5
:102E1000EBE71B48016821F0030141F00D7141F01F
:102E2000805101601A49816001691A4A11430161A8
:102E300030BF704772B6114911484163C91CC16166
:102E4000891E816162B670470D480168124A1143BC
:102E5000016070470A48016821F0030141F00D71DB
:102E600041F080510160704772B6044904488161A5
:102E7000891CC161491E416362B67047000034126B
:102E8000008000403C00341228003412608400109E
:102E900008003412010034120300341270477047E6
:102EA0000022B2EBD10F26D20368B3F1FF3F04BF7B
:102EB0004368B3F1FF3F17D18368B3F1FF3F04BF0D
:102EC000C368B3F1FF3F0FD10369B3F1FF3F04BF04
:102ED0004369B3F1FF3F07D18369B3F1FF3F04BFFB
:102EE000C369B3F1FF3F01D0002070472030521C6E
:102EF000B2EBD10FD8D30120704710B40023B3EB4D
:102F0000D20F30D2D0F800C00C68A44522D1D0F83E
:102F100004C04C68A4451DD1D0F808C08C68A445F5
:102F200018D1D0F80CC0CC68A44513D1D0F810C08B
:102F30000C69A4450ED1D0F814C04C69A44509D140
:102F4000D0F818C08C69A44504D1D0F81CC0CC6955
:102F5000A44502D010BC00207047203020315B1CFB
:102F6000B3EBD20FCED310BC012070472DE9F04156
:102F7000054601F090F8002021264FF48257844640
:102F80004FF4E0221660C5F800C0116841F004015A
:102F90001160116811F0040FFBD1176080232C46DB
:102FA0000021D4F80080B8F1FF3F04BFD4F80480BA
:102FB000B8F1FF3F1DD1D4F80880B8F1FF3F04BF3E
:102FC000D4F80C80B8F1FF3F13D1D4F81080B8F1D9
:102FD000FF3F04BFD4F81480B8F1FF3F09D1D4F803
:102FE0001880B8F1FF3F04BFD4F81C80B8F1FF3F50
:102FF00008D0C2F800C0401CC0B20828C2D30220CA
:10300000BDE8F081491C2034B1EBD30FC9D3C2F81D
:1030100000C00120BDE8F0812DE9F041054601F036
:103020003AF80020092684464FF4E0231E60C5F8D4
:1030300000C0196841F004011960196811F0040F0B
:10304000FBD12C464FF4806200212768B7F1FF3F87
:1030500004BF6768B7F1FF3F17D1A768B7F1FF3F1B
:1030600004BFE768B7F1FF3F0FD12769B7F1FF3F12
:1030700004BF6769B7F1FF3F07D1A769B7F1FF3F09
:1030800004BFE769B7F1FF3F08D0C3F800C0401C98
:10309000C0B20328CAD30220BDE8F081491C203405
:1030A000B1EBD20FD1D3C3F800C00120BDE8F0814D
:1030B0002DE9F05F8846814604274FF07F0A4FF0E4
:1030C000020B4FF4E02600F0E6FF49464246534625
:1030D0004FF0060CC6F800B052F8040B41F8040B90
:1030E000C6F800C0306810F0040FFBD15B1EF1D2AF
:1030F000002030604C4645461F20D4E900C3D4E987
:103100000221D5F800E0E64504BFD5F804C09C458F
:1031100005D1AB68934204BFEA688A4208D07F1E9B
:1031200003D34846FFF722FFCDE70220BDE8F09F1A
:1031300010341035401EE0D20120BDE8F09F70B57C
:103140000D46044600F0A7FF4FF4007221462846C2
:1031500019F0ACFA012070BD2DE9F0410546C0051B
:10316000ADF5007D14460E46C00D25D0A8466FF380
:1031700008086F4600F08FFF4FF400724146384652
:1031800019F094FAC5F30800C0F50077A74288BF8C
:10319000274668443A46314619F097FA4046FFF709
:1031A000E5FE022844D069464046FFF781FF022829
:1031B00043D03D443E44E41BB4F5007F19D34FF4A3
:1031C00000723146684619F080FA2846FFF7CEFEB5
:1031D00002282DD069462846FFF76AFF02282CD026
:1031E000A4F5007405F5007506F50076B4F5007FCA
:1031F000E5D2C4B16F4600F04EFF4FF4007229468D
:10320000384619F053FA22463146684619F05DFAFD
:103210002846FFF7ABFE02280AD069462846FFF78A
:1032200047FF022809D00DF5007D0120BDE8F0819F
:103230000DF5007D0A20BDE8F0810DF5007D0B2025
:10324000BDE8F0812E490860086100F010B82C49F3
:103250000860486100F00BB8294948677047284961
:1032600088677047264801210166016570474FF065
:103270004022116B10F0010F18BF21F4404110F0F3
:10328000020F1CBF21F4405141F4805110F0040F93
:1032900018BF21F4406110F0080F18BF41F44071CD
:1032A00010F0100F18BF41F0C00110F0200F18BF30
:1032B00041F0300110F0400F18BF41F00C0110F048
:1032C000800F18BF41F0030141F4BE0141F02041DD
:1032D0001163D2F8901010F4807F1CBF21F003011D
:1032E00041F0020110F4007F1CBF21F00C0040F0FF
:1032F000080141F4BE0040F02040C2F89000704741
:1033000000100040704772B6D3488268D3490A4320
:103310008260C2681143C16062B64169D04A1143FC
:1033200041617047CC48416921F0010141F00D71C4
:1033300041F08051416172B6C16821F0400141F015
:103340000D7141F08051C160816821F0400141F070
:103350000D7141F08051816062B6704710B572B650
:10336000BD4CA168BD480143A160E1680843E0602D
:1033700062B66069BA4908436061BA4843F63F7172
:10338000C160002181638164C0F8B01003210A206C
:1033900000F0A7F90A2000F0C7F9606920F00100E9
:1033A00040F00D7040F08050606172B6E06820F02F
:1033B000400040F00D7040F08050E060A06820F0C8
:1033C000400040F00D7040F08050A06062B610BD2B
:1033D000A44A10605160484390607047A14A106051
:1033E0005160484310F0010F18BF401C90607047B7
:1033F0009C49C1F8B00070479A49002818BF0120C5
:103400008864704797498863C86840F00200C860C4
:103410007047DFF850C2CCF82000CCF82410CCF86C
:103420002820CCF82C300120CCF83000DCF8340017
:1034300010F0010F05D020BFDCF8340010F0010FB0
:10344000F9D110F0020018BF4FF0FF3070478548E7
:10345000C16821F00201C16070478248C16841F033
:103460000101C16070477F4B186259629A62012066
:103470001864586C10F0010F04D020BF586C10F085
:10348000010FFAD110F0060018BF4FF0FF3070475F
:103490007448C16821F00101C16070477148C1687A
:1034A00041F00401C1607047027C017B02F03F02E1
:1034B00041EA02416B4A916501685162416891623B
:1034C0008168D16201211165516D11F0010F04D0A5
:1034D00020BF516D11F0010FFAD1D36D8382D36DEE
:1034E0001B0CC382136E0383136E1B0C4383536E3A
:1034F0008383526EC2F30E42C28311F0020018BFE2
:103500004FF0FF3070475748C16821F00401C16097
:1035100070475448C16841F00801C1607047DFF846
:1035200044C1CCF87820CCF82000CCF82430CCF87A
:1035300028100120CCF87000DCF8740010F0010FA6
:1035400005D020BFDCF8740010F0010FF9D110F0A5
:10355000060018BF4FF0FF3070474248C16821F0A5
:103560000801C160704701684FEA31423D49C1F826
:103570009C204068C1F8A000C86840F02000C860E6
:10358000704701684FEA31423649C1F89C20808873
:10359000C1F8A000C86840F02000C8607047314BF7
:1035A00018625A6299620120C3F89400D3F8980017
:1035B00010F0010F05D020BFD3F8980010F0010FD4
:1035C000F9D110F0060018BF4FF0FF307047254AC0
:1035D000106251620120C2F89000D2F8980010F0F9
:1035E000010F05D020BFD2F8980010F0010FF9D1DB
:1035F00010F0060018BF4FF0FF3070471948C1683F
:1036000021F02001C16070471648C16841F01001E7
:10361000C1607047A3F1050C124BC3F888C0186253
:103620005A6299620120C3F88000D3F8840010F038
:10363000010F05D020BFD3F8840010F0010FF9D19D
:1036400010F0060018BF4FF0FF3070470548C16802
:1036500021F01001C160704700800040400034122A
:1036600001003412009000401B4810B5022140F8C0
:10367000501F012101611021416241F206014161A7
:10368000002181610421816390214163416B41F0FC
:10369000010141634FF4817101610161032000F078
:1036A00043F80021032000F01CF8002010BD10B5E5
:1036B000032000F045F808484FF4807101660021AE
:1036C00001661021816702214165002010BD034978
:1036D0000020087070470000003000406484001033
:1036E000704700F00303DA004FF0FF0C0CFA02F20F
:1036F0004FF0050C0CEBC30301FA03F300F00C01CF
:1037000001F1E021002807DAD1F8140D90431A40A6
:103710001043C1F8140D7047D1F8000490431A40CB
:103720001043C1F80004704700F01F01012202FAA3
:1037300001F14009800000F1E020C0F8001170475D
:1037400000F01F01012202FA01F14009800000F19E
:10375000E020C0F88011704700F01F01012202FA3A
:1037600001F14009800000F1E020C0F880127047AC
:103770004FF0E021C1F8000170474FF0E021C1F89F
:10378000800170474FF0E020D0F8000170474FF003
:10379000E021C1F880027047084800687047074A76
:1037A0001168106008467047044A126800F110035F
:1037B00052F8230042F823107047000008ED00E0A3
:1037C00002210C20FFF78DBF72B6BC488268BC494D
:1037D0000A438260C2681143C16062B6704772B624
:1037E000B648816821F4805141F00D7141F080515B
:1037F0008160C16821F4805141F00D7141F0805128
:10380000C16062B67047AF4881B0016F11F4007FAC
:10381000FBD1816E11F0010F1CBFD0F88410009114
:1038200004D0D0F88410009A9142FAD0016F11F4BC
:10383000007F04BF4CF27101016642F241318166A2
:1038400001B070479F4981B04FF40D528A660A6FEC
:10385000CA66012898BF012005D9401EB0F5803FF7
:1038600028BF4FF6FF7082B24FF05C5040EA022052
:1038700048664FF01140C1F88000086F10F4007FD7
:10388000FBD1886E10F0010F1CBFD1F884000090AE
:1038900004D0D1F88400009A9042FAD0086F10F456
:1038A000007F04BF4CF27100086642F24130886626
:1038B00001B07047834881B0016F11F4007FFBD1E4
:1038C000816E11F0010F1CBFD0F88410009104D05C
:1038D000D0F88410009A9142FAD04FF40D518166CD
:1038E00001B070477548806810F4805008BF704779
:1038F0007448806E00F0010070477248406EC0F35B
:103900000F2070476F48D0F88400704710B50C2026
:10391000FFF722FF0C20FFF707FF6A4902204867E4
:1039200010BD684910B5032088670C20FFF708FF19
:10393000BDE810400C20FFF70FBF634A116810600C
:10394000084670475F4810B5016FC1665E48006861
:10395000002818BF80475D48016841F4805101602C
:1039600010BD59484068704710B572B65348826818
:1039700053490A438260C2681143C16062B60320A2
:10398000504988670C20FFF7DBFE0C20FFF7E4FEB0
:1039900000F062F94E4B0420C3F888004FF6FF7028
:1039A000C3F88C0072B66033FFF74CFF4FF4007021
:1039B000186062B610BDF8B572B64248016F11F4D6
:1039C000007FFBD1816E11F0010F1CBFD0F8841075
:1039D000009104D0D0F88410009A9142FAD04FF4AC
:1039E0000D5181663A494FF400320A6662B6D1F849
:1039F0000412324D002946D0334C4FF6FF73591A4A
:103A0000A160AA69D5F81CC002F00F020CF00F0CDF
:103A10006244121D01FA02F2A2F54341DFF8B4C07C
:103A2000513961452FD2D0F88400191AE160B1F5FF
:103A3000803F28D2284B4FF0000CA1FB03070CFB62
:103A4000037301FB0C31634618F044FE401C400830
:103A50002061B0F57A7F38BF4FF47A701F4B9968B8
:103A6000002908BF98605A681A609968C3E9011074
:103A70008A421DD9824205D9814201D9616002E0A2
:103A8000606000E0626000F0F5F872B6A86820F4AB
:103A9000805040F00D7040F08050A860E86820F43D
:103AA000805040F00D7040F08050E86062B6F8BD84
:103AB0008242E7D88142E3D8E0E70000008000407E
:103AC0000010341200C000406884001060840010B0
:103AD00000A000404F62250000E1F505FC890010C0
:103AE0000F4881680F4A114381600F48016841F413
:103AF00004710160001F016821F004010160016888
:103B000041F0100101607047084908607047BFF339
:103B10004F8F084906480860BFF34F8FFEE700004B
:103B2000008000400400341214ED00E008ED00E0D5
:103B30000400FA050CED00E015488168154A1143B0
:103B400081601003416941F001014161016A21F086
:103B50000F0211490A430262104B8A1EC3F8C420A7
:103B6000016570474FF04020006900F07000704719
:103B70004FF040200A4940F8301F0A4941600A4985
:103B800001660A49416670474FF04020406870471F
:103B9000008000400400341203005FA00060004079
:103BA000C0845FA050895FA00A005FA000005FA0F2
:103BB000022824BF00207047E44B53F8202043F82C
:103BC00020101046704770B5E14C206FDF4D10F0AB
:103BD000010F05D00120E0662868002818BF804743
:103BE000206F10F0020F08BF70BD0220E066686809
:103BF000002808BF70BDBDE87040004710B572B620
:103C0000D4488268D4490A438260C2681143C160C3
:103C100062B60222CE490A6501230B660323CB66F6
:103C20004A6572B6816821F0800141F00D7141F062
:103C300080518160C16821F0800141F00D7141F037
:103C40008051C16062B60920FFF76EFD0221BDE818
:103C500010400920FFF745BD72B6BE488268BE49D4
:103C60000A438260C2681143C16062B60220B8494B
:103C700008657047B6490220486572B6B548816844
:103C800021F0800141F00D7141F080518160C168E7
:103C900021F0800141F00D7141F08051C16062B6A8
:103CA0007047AC488068C0F3C0107047A848016FE7
:103CB00011F4007F14BF4FF440714FF4807101661E
:103CC000704710B5A24CE06F10F0020F4FF00100EA
:103CD00018BF0320606700F077F99E498A69C969B7
:103CE00002F00F02D04001F00F01C8400521B0FBE7
:103CF000F1F04FF405710009C4F880109749A1FB59
:103D000000104009C4F88400206F10F4007F14BF35
:103D10004FF440704FF48070206610BD8C48016FE6
:103D200011F4807F14BF4FF440714FF400710166AD
:103D30007047874B30B4DA6F12F0010F14BF0322C3
:103D400002225A6700EB4005C5EBC010C1EBC00072
:103D50004FF4FA744C43C0EB001000EB4000804974
:103D600004EBC000A1FB00107A4900224FF0020CC6
:103D70008C69C008C96904F00F0401F00F012144E7
:103D8000C8400521B0FBF1F0B0F5803F05D3511CD0
:103D90004008CAB2B0F5803FF9D242EA0C2141F0A6
:103DA0001001C3F88810C3F88C00186F10F4807FDE
:103DB00014BF4FF440704FF40070186630BC704769
:103DC0006348016F11F4003F14BF4FF440314FF4CA
:103DD0008031016670475E48016F11F4803F14BF67
:103DE0004FF440314FF40031016670475848006F7E
:103DF000C0F3002070475648006FC0F34020704762
:103E000054498968C1F3C011002904BF00207047DC
:103E10004F4900280CBFD1F80002D1F804027047C6
:103E20004C4B9A68C2F3C012002A04BF00207047AE
:103E3000474A00280CBFD2F88000D2F88800C0F3AF
:103E40000A200CBFD2F88020D2F8882002F00F029E
:103E5000D3F818C0DB690CF00F0C03F00F036344B8
:103E60001A449140012202EB400048433B49A1FB28
:103E70000010000970473B4901200870704770B47A
:103E8000344B322251439A69D3F81CC002F00F021E
:103E90000CF00F0C6244121DD14008BF012104D068
:103EA000B1F5803F28BF4FF6FF719A68C2F3C01288
:103EB000002A1CBF70BC704772B6D3F808C0264AEF
:103EC0004CEA020CC3F808C0D3F80CC04CEA02025A
:103ED000DA6062B61E4A4FF0020CC2F850C04FF4CE
:103EE000003414660425C2F88850C2F88C101E4DA8
:103EF000D566C2F874C01D4902283CBF134E46F86F
:103F000020100021174801704FF4007111660178EC
:103F100019B920BF01780029FBD014669567D566D2
:103F2000C2F854C072B6986820F0800040F00D705E
:103F300040F080509860D86820F0800040F00D700C
:103F400040F08050D86062B670BC7047808400102A
:103F500000A0004000800040800034121F85EB511B
:103F6000CDCCCCCC7C84001002000202275E000085
:103F70004FF0E021002088610861274948607047C0
:103F800010B54FF0E02460610020A0610221401EC6
:103F9000FFF7A7FB07202061BDE8104007F0F0BE47
:103FA00010B507F0F1FE4FF0E0210020086110BDD0
:103FB00010B507F0E9FE4FF0E02100200861164837
:103FC0000188491C018010BD1348806870472DE9A5
:103FD000F041114C002705462780A0684FF47A7104
:103FE000B0FBF1F04FF0E026401E7061B761022196
:103FF000C81EFFF776FB0720306107F0C1FE21885D
:10400000A942FCD307F0C0FE3761BDE8F081034947
:1040100048430149886070478884001040420F007F
:10402000704770B505464FF40D500406A066032096
:10403000E066264860664CF2710020662448C4F8A9
:10404000800042F24630A06602210020FFF749FBC3
:104050000020FFF769FB002D08BF70BDA06E42F283
:1040600041310843A06670BD012110B58807816702
:104070004FF40D5181660020FFF762FBBDE8104050
:104080000020FFF769BB01208107486770470120C6
:104090008107886770474CF2710081070866704796
:1040A0000C4A11681060084670470A4808B5006855
:1040B00018B18047002818BF08BD4CF2710188076D
:1040C0000166016FC166006F009008BD075E5F3733
:1040D00000AF2F9194840010FD490020C8717047F3
:1040E000FB48C079704770B5F94C00254FF4E46186
:1040F000257065702571F74818F0DDFA4FF4E4611A
:10410000F54818F0D8FAE56065714C21F34818F0CD
:10411000D2FA4C21F24818F0CEFAA5717421F14878
:1041200018F0C9FA7421F04818F0C5FA256170BD7D
:10413000E749002048707047E54840787047E448F8
:104140004079002818BF01207047E1488079002895
:1041500018BF01207047DE480079002818BF0120F1
:104160007047DB48407800EB4001C1EB4010DD496F
:1041700001EB800070472DE9F041D54C0546D94947
:104180006278DA4F02EB4200C0EB4210D84E01EBEE
:1041900080033A783078294610444200184618F0D7
:1041A00094FA6278D04902EB4200C0EB421001EB76
:1041B00080033A783078294610444200184618F0B7
:1041C00084FA0120A071E07940F00400E071BDE8BC
:1041D000F081BF4800697047BD484078C0EBC0011E
:1041E000C1EB8010BB4901EB401070472DE9F04155
:1041F000B74E07463078002814BFBE48BE48047842
:1042000014BFBE48BE48057804FB05F8FFF77BF8ED
:1042100029462046FFF7DCF87078AF4CC0EBC001B0
:10422000C1EB8010AB4904EB401201EB40103B4660
:104230000146FFF7EEF8FFF775F870784FEA48028D
:10424000C0EBC001C1EB801004EB4010394618F000
:104250003CFA01203071F07940F00100F07101204A
:10426000BDE8F0812DE9F047994D044699496A78F7
:10427000DFF88082C2EBC200C0EB821001EB40137A
:104280002878DFF874929D4E9D4F2146002815BF77
:1042900098F8000099F8000032783A7800FB02F0B4
:1042A0004FEA4002184618F010FA6A788A49C2EBC1
:1042B000C200C0EB821001EB401C28782146002888
:1042C00015BF98F8002099F8002033783B7802FB5E
:1042D00003F04FEA4002604618F0F7F90120287118
:1042E000E87940F00100E871BDE8F0877848C068DF
:1042F000704770B5834C05460146227877485200D6
:1043000018F0E3F9227829465200754818F0DDF9D3
:104310006F4801214171C17941F00201C17170BD45
:104320002DE9F04FADF25C7DDFF8A4910120CDF8CE
:10433000440799F80400CDF8400799F80500CDF836
:104340003C0799F80600CDF8380701F08DFD0446CA
:1043500001F0A2FD0546FDF767FDCDF85807FDF712
:1043600047FFCDF85407FDF76DF9CDF85007FCF77E
:10437000CCFE0746FCF7C6FE8046FDF757FD99F8D0
:1043800002000026002804BF0420C9F818000CD041
:10439000022C1CBF0A20C9F8180010D0062D04BF3B
:1043A0000420C9F8180089F80260FDF712F90830F6
:1043B00005094FF0010AB8F1020F26D109E013F008
:1043C000DCF810F4817F14BF3C201E20C9F81800CF
:1043D000E4E701F05FFEC0B9022C02D0052C0AD040
:1043E00013E04FF47A7068434FF47A7190FBF1F068
:1043F000C9F8180007E007F038FE002814BF0520B0
:104400001220C9F8180089F802A0D9F81800042869
:10441000BCBF0420C9F8180099F80200B9F81810B8
:10442000000240EA014040F00102002391210720F0
:104430000BF0EAF817F0010F2AD1022C28D0002047
:10444000FDF7F6F8FDF72EFF37464FF0000B06F0AC
:10445000C2FB012822D00DF5E460FEF76CF90028BC
:1044600000F031820DF5E46007F09AFA002089F837
:104470000100D9F81800C01E8642CABF8742012534
:104480000025DDF82C0710B3DDF83C0750B163E0E0
:10449000FDF7B4FE0020CDF84407D5E74FF0010B3F
:1044A00000F0FBB96846DDF82C1718F018F98046C3
:1044B00055B3144C414620784200084818F005F9DD
:1044C000207841464200064818F0FFF81DE043E01E
:1044D0009884001084200110088A0010689F001042
:1044E000B49F0010A427011000A00010EE8400105B
:1044F000EF840010EC840010E9840010ED840010BB
:10450000EA840010F084001008E089F805A099F80A
:10451000070040F0020089F807001DE0FEF7F3FEF7
:10452000FD4C01212078FEF753FFFC4A4346A2F1DF
:104530004C010846FEF76DFFFEF7F4FE2078414679
:104540004200F64818F0C1F889F805A099F807006C
:1045500040F0020089F80700DDF82807002800F085
:10456000E380DDF84007002840F0DE8099F8000085
:10457000DDF82847F0BBD9F80C80B8F1000F24D043
:10458000E7480078CDF84C07E6480078CDF84807B2
:10459000FEF7B9FEDDF84817DDF84C07FEF71EFF01
:1045A000214642460846FEF75EFFFEF7BBFEDE48A8
:1045B0000078022804BF404606F02DFFDA48007854
:1045C000092804BF204606F026FFD84800780128B5
:1045D00016D9DFF8548398F80000042804BF204659
:1045E00006F019FF2146684618F07EF8044698F850
:1045F000000000E004E0052804BF204606F00BFFA1
:10460000EDB399F8010099F80020C0EBC001C1EBAF
:104610008011C748002A00EB411021460CBFC54A53
:10462000BF4A137814BFBF4AC34A127803FB02F291
:104630004FEA420218F049F899F80100C0EBC001B6
:10464000C1EB8011BD4800EB411399F800002146F1
:10465000002814BFB248B748007814BFB14AB64A20
:10466000127800FB02F04FEA4002184618F02DF8CD
:1046700089F804A099F8070040F0010000E002E08A
:1046800089F8070041E0CDF8484799F80000002874
:1046900014BFA348A74890F8008014BFA148A648BB
:1046A000047808FB04F0CDF84C07FEF72CFE2146F9
:1046B0004046FEF78DFE99F80100A04CC0EBC0010A
:1046C000C1EB80109A4904EB401201EB4010014607
:1046D000DDF84837FEF79DFEFEF724FEDDF84C07B7
:1046E000420099F80100C0EBC001C1EB801004EB5F
:1046F0004010DDF8481717F0E8FF89F804A099F892
:10470000070040F0010089F8070087480078032877
:104710000AD199F80100C0EBC001C1EB80118448B7
:1047200000EB411006F077FEDDF8300700287DD061
:10473000DDF83807002879D199F80000DDF8304716
:1047400048BBD9F81080B8F1000F24D07C4801781C
:104750007C4800780844401C4008019002200090EA
:10476000FEF7D1FDDDE90010FEF738FE2146424696
:104770000846FEF778FEFEF7D5FD7348007802285C
:1047800004BF404606F0DEFF6F480078092804BFEA
:10479000204606F0D7FF75B399F80100684D00EB8D
:1047A0004001C1EB40116948DFF8988100EB8103BB
:1047B0002A7898F80000214610444200184617F065
:1047C00084FF99F801002A7800EB4001C1EB401109
:1047D0005F4898F8003000EB81001A4421465200EF
:1047E00017F073FF89F806A099F8070040F004005D
:1047F00089F8070035E0FFE75148A04601785148A5
:1048000000780C18FEF77FFD601C40080221FEF7BF
:10481000DFFD99F801004E4D00EB4001C1EB401067
:104820004A4905EB800201EB800100E028E00846E0
:104830004346FEF7EEFDFEF775FD99F801006200B4
:1048400000EB4001C1EB401005EB8000414617F042
:104850003CFF89F806A099F8070040F0040089F8A9
:1048600007003948007803280AD199F8010000EBC5
:104870004001C1EB4011354800EB810006F062FFBA
:10488000FDF7A1FFD9F81800761C7F1C8642A8BF4F
:10489000874211DBD9F8140070B1FDF7C7FADDF8D3
:1048A0005007FCF7C5FEDDF8580788B1DDF854075E
:1048B00060B1FDF7F7FC0BE0DDF84407002818BFF6
:1048C000FDF7F0FCC3E501F026FBC0E5FDF796FC23
:1048D000BBF1000F04BF0420C9F818000BD0DDF8AD
:1048E000400789F80400DDF83C0789F80500DDF889
:1048F000380789F80600B9F818104FEA0B2040EA8B
:1049000001420023912107200AF07EFE0DF25C7D1A
:104910005846BDE8F08F0000F0840010B49F0010EE
:10492000EC840010ED8400106D850010EB84001005
:1049300084200110E9840010EA840010088A001025
:10494000EE840010EF84001073850010A42701107E
:1049500000A0001010B50024FDF73CFCFB4910F04E
:10496000020F0AD00A79002A08BF012410F0040FB0
:1049700003D04A79002A08BF012410F0010F03D0A8
:104980008879002808BF01240020002C08BF10BD32
:1049900000200870BDE81040C2E408B50F2101F006
:1049A000E7FB012804D1FFF7D5FF009001F02AFDB5
:1049B000E648017900291CBF8179002904D040799B
:1049C00000281CBF012008BD002008BD08B50F212C
:1049D00001F0CEFB012804D1FFF7BCFF009001F0ED
:1049E00011FDDA48017900291CBF8179002904D022
:1049F000407900281CBF012008BD002008BD704779
:104A0000D24910B500220A714A718A7100281CBF70
:104A1000012088700BF0D6FCBDE81040FBF7CDBC40
:104A2000002818BF0120C94908727047C748007A9A
:104A3000704710B54FF4E461C54817F03CFEBDE87F
:104A400010404FF4E461C34817F035BEC2487047C8
:104A5000C2480178C248007848434100BE4817F078
:104A60002ABE70B50646BD480478BD480578FEF7F5
:104A70004AFC29462046FEF7B1FCB4484078C0EB1A
:104A8000C001C1EB8010B24901EB40123146B2487F
:104A9000FEF7E9FCFEF746FCB2480078152818BF7F
:104AA00070BDAD48BDE8704006F0B5BC70B50446B9
:104AB000AA480578AA480678FEF725FC314628461C
:104AC000FEF78CFCA14822464078C0EBC001C1EB48
:104AD00080109F4901EB40111046FEF7C4FCFEF721
:104AE00021FCA0480078162804BF204606F093FC5D
:104AF000204670BD002818BF0120944908717047F6
:104B000010B5924C002804BFE06010BDDFF858C219
:104B100096490B7896490A7801465A4352006046F6
:104B200017F0D3FD9048E06010BD10B54C219148BE
:104B300017F0C1FDBDE810404C218F4817F0BBBDF8
:104B40008C487047002818BF012080494871704781
:104B500010B57421894817F0AEFDBDE810407421EE
:104B6000874817F0A8BD002818BF01207749887131
:104B7000704710B5754C002804BF206110BD742229
:104B80000146804817F0A1FD7E48206110BD70B538
:104B90006E4D0021044629716971A9710BF012FC58
:104BA000FBF70BFC002C14BF012000202870BDE88F
:104BB0007040FFF7B5BB2DE9F04F89B04FF4E461C9
:104BC000694817F078FD74216E4817F074FDFDF701
:104BD00001FB0446FDF728F90890FDF709FB079053
:104BE000FCF730FD0690FDF721F90020FCF720FDD1
:104BF000FDF758FB00252E4605F0EDFF012853D0A8
:104C00006846FDF798FD00285BD0684606F0C8FEB0
:104C100014F0020F1CD05548DFF84CB1DDF80890B5
:104C200090F800805248DA460778FEF76CFB0120C6
:104C3000FEF7E2FB39464046FEF7D0FB52464946B6
:104C40005846FEF710FC0020FEF7D6FBFEF76AFB85
:104C500014F0010F20D04C48DFF828B14FF00208C3
:104C600001784A48DA46DDF8109000780844401C84
:104C70004708FEF748FB0120FEF7BEFB41463846D9
:104C8000FEF7ACFB524649465846FEF7ECFB0020C7
:104C9000FEF7B2FBFEF746FBFDF795FD6D1C102DF0
:104CA00003D2FDF7FFFAA7E70126FDF7BFF8069844
:104CB000FCF7BEFC089848B1079828B1FDF7F2FA56
:104CC00004E001F028F997E7FDF798FACEBB1F4FF3
:104CD00014F0020F19D02548DFF88CC00178244861
:104CE0006346007801FB00F210200021002A0AD957
:104CF00033F9118008EB5008B8FBF0F52CF811508F
:104D0000491C8A42F4D81848F86014F0010F18D0F2
:104D10001D481C4B01781D489C4600780A184FF02E
:104D200010014FF000000AD03CF9105005EB51057E
:104D3000B5FBF1F423F81040401C8242F4D811482E
:104D4000386109B03046BDE8F08F0000988400104B
:104D500084200110088A001028910010E9840010B6
:104D6000EA8400106D85001048980010EC84001053
:104D7000ED840010689F0010B49F0010A42701105C
:104D800000A0001074A00010EE840010EF8400104A
:104D9000012070474FF43F3070474FF43F300068B8
:104DA0007047034600209A682C2A88BF2C220021D5
:104DB000B1EB920F28BF704753F821C0491C6044E3
:104DC000B1EB920FF8D37047FE4A0168914214D1BB
:104DD0004168B1F5807F10D9836800222C2B88BFF1
:104DE0002C230021B1EB930F09D250F821C0491CAC
:104DF0006244B1EB930FF8D30AB100207047012051
:104E000070474FF43F31EF4B0A689A423ED191F818
:104E100027300022012B08BF0122052804BF91F88A
:104E20002300704713DC012804BF087F7047022865
:104E300004BF91F820007047032804BF91F82100B7
:104E40007047042804BF91F82200704731E014280D
:104E500008D015280CD0162811D0172804BF1846E2
:104E6000704726E0002A1CBF91F82400704704E038
:104E7000002A1CBF91F8250070472D207047002A9A
:104E80001CBF91F82600704728207047052812D0D3
:104E900007DC01280DD002281CBF032804280AD0F3
:104EA00007E0142818BF1528E7D01628ECD01728DB
:104EB00001D0FF207047002070472DE9F047ADF585
:104EC000007D00244FF40071684617F0F4FBFF20CA
:104ED000A04660F307082D20254660F3070560F320
:104EE0000F25282060F317454FF43F37B54E64F384
:104EF0001F654FF481794FF02C0AFF224FF40071A7
:104F0000684617F0F6FBCDE902A4CDE90648059402
:104F10000A94CDE900690494CDE908453846FEF7C6
:104F200025F869463846FEF7C3F8012818BF002067
:104F30000DF5007DBDE8F0872DE9F047ADF50C7D5E
:104F4000894605461F4690464FF0000A4FF400710F
:104F50006846949E17F0AFFB4FF0000CCDF800C2EE
:104F60004FF43F34CDF804C2CDF808C2CDF80CC2DE
:104F7000CDF810C2CDF814C2CDF818C2CDF81CC2BD
:104F8000CDF820C2CDF824C2CDF828C28D492068C2
:104F9000884206D0FFF791FF0DF50C7D5046BDE825
:104FA000F087D4E901120DF5007AE3688AE80F0072
:104FB00004F110010DF5047A0FC98AE80F00D4E955
:104FC0000801A26A8A92CDE9880184988DF820921E
:104FD0008DF82182401C8DF822728DF81C528DF8BC
:104FE00023628490002D14BF8698859800F10100FB
:104FF00014BF8690859080AB82980021CDF80CC2BA
:105000002C2894BF02462C220020B0EB920F06D22F
:1050100053F820C0401C6144B0EB920FF8D34842D3
:105020008390FF224FF40071684617F062FB80AC5A
:1050300094E80F008DE80F0084AC94E80F0004ACF6
:1050400084E80F00DDE988018A9A4FF43F34CDE906
:1050500008010A922046FDF789FF69462046FEF7BF
:1050600027F8012818BF00200DF50C7DBDE8F0875A
:105070002DE9F041ADF50C7D0F46804616464FF404
:105080000071684617F017FB002580954FF43F34F8
:105090008195829583958495859586958795889544
:1050A00089958A9547492068884218D16068B0F58B
:1050B000807F14D9A06821464FF0000C2C2888BFAF
:1050C0002C200023B3EB900F11D251F823205B1C4E
:1050D0009444B3EB900FF8D3BCF1000F07D0FFF767
:1050E000ECFE002804BF0DF50C7DBDE8F0810FCC6F
:1050F0000DF5007C8CE80F000FCC0DF5047C8CE8DE
:105100000F00D4E90001A2688A92CDE988018DF8E8
:1051100024828DF825728DF8266201208DF82702F1
:105120008298002180AB83952C2894BF02462C22C4
:105130000020B0EB920F06D253F820C0401C61440F
:10514000B0EB920FF8D348428390FF224FF40071E6
:10515000684617F0CEFA80AC94E80F008DE80F0097
:1051600084AC94E80F0004AC84E80F00DDE988010A
:105170008A9A4FF43F34CDE908010A922046FDF7A0
:10518000F5FE69462046FDF793FF012818BF002071
:105190000DF50C7DBDE8F0812DE9F04F0A4D4FF083
:1051A000000885B06C4246461720FFF72AFE4FF4F0
:1051B0003F3284460349106888421CD15068B0F5DC
:1051C000807F03E04353494DF1D8FFFF13D9936823
:1051D00000212C2B88BF2C230020B0EB930F80F0F4
:1051E000F98052F82090401C4944B0EB930FF8D35B
:1051F000002900F0EF80FFF760FE002804BF05B033
:10520000BDE8F08F1420FFF7FCFD02901520FFF79A
:10521000F8FD00901620FFF7F4FD40B20190162033
:10522000FFF7EFFD404240B20390FCF7D3FFDFF8F9
:10523000B4918246002089F8040089F8050089F8B5
:1052400006000BF0BFF8FBF7B8F8002089F8000063
:10525000FFF766F81AF0010F05D017F04FFA012892
:1052600008BF48F001081AF0020F7BD05E48002604
:1052700090F800E05D48037899F80100C0EBC001A8
:10528000C1EB80105A4901EB401299F80300A3EBDF
:10529000000984468145C4BFAEEB0C01A1F1010BAE
:1052A0001CDD61468B4516DD01F1010A01FB030798
:1052B0000AFB030A32F8177032F81AA0A7EB0A07A4
:1052C0003FB2002FB8BF7F423FB2B742C8BFBEB2A5
:1052D000491C8B45E8DC401C8145E2DC0098002835
:1052E00018BF864288BF48F002080027E246AEEBAE
:1052F0000A0000905045C8BFA9F1010B1BDD6046B4
:10530000834513DD0AFB030132F811E002EB410192
:105310004988AEEB010109B20029B8BF494209B280
:10532000B942C8BF8FB2401C8345EBDC00980AF13C
:10533000010A5045E3DC0298002818BF874288BF65
:1053400048F00408E2460098504516DD614689455C
:105350000EDD0AFB031032F91000A842C8BF054653
:10536000A04200E013E0B8BF0446491C8945F0DCC8
:1053700000980AF1010A5045E8DC0198002806DD92
:10538000854202DC0398844201DA48F00808FF2FC6
:1053900088BFFF27FF2E88BFFF267F2DC8BF7F2530
:1053A00004DC15F1800FB8BF6FF07F057F2CC8BFFC
:1053B0007F2404DC14F1800FB8BF6FF07F04E0B2EB
:1053C0000090EBB2F2B2F9B24046FFF7B5FD05B07E
:1053D000BDE8F08FBCF1000F18BFBCF1010F3FF426
:1053E00011AF08E798840010EA840010E9840010E7
:1053F00084200110FE4800787047FD4840787047CF
:10540000FB48002181710171017241728172704704
:10541000F74920F07E40C8617047F548C069704781
:10542000F348008A7047F248408A7047F048B0F964
:1054300014007047EE48B0F916007047EC48B0F918
:1054400018007047EA48C07A7047E9488078002819
:1054500018BF0120704710B54FF4E461E54817F01C
:105460002AF9E3490020887010BD084318BF70472F
:10547000DF48C16911F0807F08BF7047DE490968C5
:10548000C96D11F4003F08BF704700211170182149
:10549000C18170472DE9FF5FD8480027DDF83CA0A7
:1054A00005780E98119E8B46B9463C4650452CD047
:1054B00006FB050E10983BF91EC006FB05093BF9DB
:1054C0001900BCEB000148BFA0EB0C0106FB05A8CE
:1054D0003BF91840B4EB000C48BFA0EB040C01EB07
:1054E0000C0004B232F91EC032F91900BCEB000105
:1054F00048BFA0EB0C0132F918C0BCEB000248BF5A
:10550000A0EB0C0288180FFA80F9012B37D04FF06E
:10551000010817F0F8F8BA49002C0A7807DD10994D
:1055200006FB05113BF911101431282909D80099FF
:10553000B1F914103C2904DC0099B1F916103C298A
:1055400026DD0E9902EB0A0C11448C4520D9129BE2
:10555000139D13442A448B421CBF8D1A15F1020F70
:1055600030F9115000EB4106B6F90260A5EB0605D3
:1055700008D01E353C2D08D94FF0000808E0A145A1
:105580000CDD0AE00A35142DF6D8491C8C45E2D80A
:10559000A14503DDB8F1000F00D0012704B0384663
:1055A000BDE8F09F70479248B0F90C0070479049F1
:1055B000002088817047934A0280428000218280C7
:1055C000C1800181534243818181C1810182418235
:1055D0008182C182028370478548406A70470028F3
:1055E00018BF012082494862704710B506F006FDD9
:1055F00041F28831884294BF0120002010BD7C48D0
:10560000006A70477A490862FAF7E1BE7849886211
:1056100070472DE9F04F7C4987B002240A7877491A
:10562000A2F1020C521E91F8008000210091A8F115
:105630000101CDE9011C00212546A8F102090B4614
:10564000BCF1020F84BFA9F1010CCDF80CC05FD9E9
:105650004FF0000CCDF814C0CDF810C0AC464D454D
:1056600051D2039F04FB08C6BC450FD230F9167017
:1056700000EB4606B6F90260B7EB060E48BFA6EB94
:10568000070EBEF1320F01D9E34608E00CF1010C20
:10569000E145E6D8DDF814C0BCF1000F1BD0A9F13C
:1056A000010CAC4517D304FB08C665450FD230F991
:1056B000167000EB460636F9026CB7EB060E48BFD3
:1056C000A6EB070EBEF1320F01D9E24608E0ACF1BD
:1056D000010CAC45E7D2DDF810C0BCF1000F12D0D0
:1056E0004FF0010CCDF800C0DDF804C0DC4588BFE8
:1056F000CDF804B0514538BF5146A24288BF22467A
:10570000A34238BF2346641CDDF808C064459FD31C
:105710003748DDF800C0846A644518BFC0F828C067
:10572000019807B0BDE8F04F12F05ABE2DE9FF4FC7
:105730008BB00446DDE918B72D480025057045708B
:105740000AF051FE002840F0428100F08DFB052850
:1057500068D0DFF89CA0DDF830902C499AF80B0057
:10576000029025480978006890F8726000912449F9
:1057700009780191B0F97080BAF916003228BAF8A8
:10578000100005DA002804BF7006060E05D100E0FF
:1057900018B99AF80300012842D10AF063FEB8BB99
:1057A000012F3DD0BBF1010F03D1BAF81200C82878
:1057B00036D8BAF81200002804BFBAF81000002842
:1057C0002ED00AF0FCFD01282DD0B9F80000AAF86F
:1057D0000C00DDE9001200208A181DD039F91010E4
:1057E000BAF90C309942C8BFAAF80C10401C10E05E
:1057F000B4840010E8A0001048860010E98400106E
:10580000EF840010F1D8FFFFEA840010EE8400104E
:1058100006E080B28242E1D8BAF90C0040450EDDC4
:105820008AF8095028E0F748006890F873600298F9
:10583000012814BF4FF03C084FF04108C5E7DAF8E3
:105840001C0010F4803F17D0EE480068C06D10F4C3
:10585000803F11D09AF80900401CC0B28AF80900B4
:10586000B04209D91020AAF80E0001208AF80700DA
:105870004FF0FF348AF809500AF0A1FD012871D1D8
:10588000E048BBF1000F00680A9090F874106BDCE0
:10589000012F69D0DC4AD06910F4003F11D00A987A
:1058A000C06D10F4003F0CD0107A401CC0B21072D2
:1058B000884206D91120D0810120D0714FF0FF34E9
:1058C00015720C980090D1484FF0000B012F007812
:1058D0000390CF48007801900A9890F873000690E2
:1058E00045D001984008079003984008099000208F
:1058F000049082460590DDE9001001EB4000029023
:1059000000231A461946BAF1000F0CBFDDE90076F4
:10591000DDE902760020002E88BFA6F1010E29D90C
:1059200037F91080B8F1640FD8BF002214DD70453C
:105930000DD207EB400CBCF902C0B8EB0C0948BF14
:10594000ACEB08090FFA89FCDC45A8BFE346491C0B
:10595000002A04BF01225B1C401C8642E0D8012BB8
:1059600005D807E033E0FFE7A7480572A9E7A64896
:1059700085722CE0BAF1000F0CBF049105910AF179
:10598000010ABAF1020FBBD3079904988842EED9F5
:10599000099905988842EAD9BBF1320FE7DC9A49A8
:1059A000887A401CC0B28872CA6912F4801F0ED077
:1059B0000A9AD26D12F4801F1CBF069A904206D933
:1059C0001420C8810120C8714FF0FF348D7211F08E
:1059D000D4FD10F4807F29D000F046FA022825D1AA
:1059E0004FF0010816F094FE074611F0AEFD064692
:1059F00011F0A7FD024600210020002E08D900FB6F
:105A0000021337F913300F2B10DB401CB042F6D3D2
:105A1000B8F1000F0AD0491C0129EDD9B8F1000FE7
:105A200004D0794901204FF0FF34C8710DF087FC94
:105A3000032823D1744800950195817B8DF80010CF
:105A4000BDF8001064F30F21ADF800108279BDF8A5
:105A5000021062F30301027962F30711C27962F363
:105A60000821427962F34921ADF802108089ADF82E
:105A700004000222062168460DF064FCB4F1FF3FE9
:105A80002AD0002C1CBF0FB0BDE8F08F5E4C6079AF
:105A900001281CBF0FB0BDE8F08FFEF7D9FF65717C
:105AA000012020704FF4E4615A4816F004FEA570FE
:105AB00000F0E0F904280D982CD0002818BFFEF75C
:105AC000D1FB0E98002804BF0FB0BDE8F08F0FB0D7
:105AD000BDE8F04FFEF74FBB4B4CE07901281CBFEF
