:20000000001E0020F1000000D1000000D70000000000000000000000000000000000000009
:20002000000000000000000000000000DD0000000000000000000000E3000000E900000017
:200040004B010000450100000000000000000000000000003F010000000000003901000094
:20006000330100002D01000027010000210100001B010000150100000F0100000000000092
:20008000000000000000000007010000FF0000000000000000000000000000000000000059
:2000A000000000000000000000000000000000000000000000000000000000000000000040
:2000C00082001068116070478200106C116470471F48806800471E48C06800471C48C06ADB
:2000E00000471B48806B00471948C06B0047704710B518490020C86100F050FB10BD1448C7
:200100008030C068004712488030806800471048806F00470E48406F00470D48006F0047A2
:200120000B48C06E00470A48806E00470848406E00470748006E00470548C06D004704481A
:20014000406D00470248406C00470148006C0047000C0000401000F0000000000000000026
:2001600000000000000000000000000000000000000000000000000000000000000000007F
:2001800010B507E013469C00241F521E9B000C591B1FC450002AF5D110BD30B504460020B1
:2001A0000F221207136818258907AB43C90E0B431360116889088900491C1160411E2160DE
:2001C000116804231943116011684907FCD430BD10B500230F2212071468A408A400A41C6E
:2001E00014600160106804210843106010684007FCD4184610BDD549012008607047F0B515
:2002000004460020844620680F46401C1AD0D04E200A0502402231462846FFF7B1FF601BD0
:200220008010C117890F08188010800037500024A00031584019FFF7CBFF641C402CF7D3EB
:200240006046F0BD2046FFF7C3FFF9E7C14800210161C14A42618161C04A916003210161B0
:200260007047BC490020086148618861BB498860704710B500231A4603E0845CE3185BB2F1
:20028000521C8A42F9D3D8B210BDB4488168491C81600120B24940064860704738B50346DF
:2002A0001A0C7F24000C2402121D012903D003218902884232D3A24230D8AA49096801291F
:2002C00006D10B210902884202D201214907401882071904920F801A090E0025A24C6B46EC
:2002E00010291FD006DC012909D002290CD0042913D114E020291AD040290ED11EE0016803
:200300000091217D995405E0510802680092A28A49005A520099FFF772FF656138BD6169E1
:200320000091F8E700680090985C207538BD0068510800904800185AA08238BD006860618C
:2003400038BDF0B503041E0E0024020CB300402B2AD803041B0E9B00000C18187F231B02B8
:20036000012903D0032189028A421DD398421BD87C480068012806D10B200002824202D257
:200380000120400712189007800F171A0AE0A100754AC8198D186969FFF731FF00206861C3
:2003A000641CE4B2B442F2D3F0BDF0B56D4887B0006800250126002838D06C4C2068069074
:2003C000FFF74FFF69496017803108605F490860624E0127376166490F20FFF771FE039041
:2003E00064490020FFF770FE059063490120FFF76BFE0490FFF72AFF0121084600F0C4F83C
:20040000276002202060684605725C490020CA6B0092CA6B0192019B009A9A4217D1401CE4
:200420006428F4D93069002813D014E000F0A8FB4C4840384563524981634104C16349490A
:200440000E60C1694F4A1143C16107B0F0BD0020DDE7012A18D0B069C0B24228B06935D087
:20046000C0B25228B06936D0C0B2442838D0B069C0B25528C9D100273C463A49200209682A
:20048000381801294FD055E03648056035484038C16901221143C161FFF7E3FE0020334980
:2004A000C04380310860294908600F200399FFF707FE00200599FFF707FE01200499FFF713
:2004C00003FE2A49069808603561BEE76946097AFFF7E4FE25E06946097AFFF732FF20E0FF
:2004E00003277F0300242003381A0121FFF755FE641C062CF7D30327BF020024200238184F
:200500000021FFF74AFE641C042CF7D307273F030024200238180021FFF73FFE641C0F2CED
:20052000F7D3B56171E70B210902884202D20121490740180021FFF730FE641C0C2C9CD378
:20054000B5610120694608725FE7000080E200E0001E002000E000E0D5140000000C0020A0
:2005600000ED00E0401000F0001F002000E100E08B020000F7010000FD060000C07E0000A8
:20058000FF0A000001020000012279485202C26177494031CB69CB695B085B00CB61C16947
:2005A0001143C1617348016AD20111430162016A090A090276310162016A5200914301628E
:2005C00038214163704770B58407020AA40F1206694B120E01D0012A03D105252D03401989
:2005E0005032664D1F2A2BD0403A1F2A41D802462A40AD0652191568E400FF26A640B54372
:20060000A140294311605E49884205D15D4AD16801246405A143D1605B49884229D1564A4A
:20062000103A107C5949002444281CD00DDC102812D0202813D0402813D0422818D112E008
:2006400002462A4001256D07D4E74F280ED0522809D055280CD106E00120086108E00C61CC
:2006600006E0507C03E01868886101E00F2048611461002070BD010A10B50906090E01D03A
:20068000012903D105221203801850310B46103B3A4A0F2B04D8014611400122520713E0CA
:2006A0000B467B3B742B05D80146114007221203891A0AE070390A29014602D81140344A88
:2006C00002E011400F221207891882070868920F30490978CB072749CB6A07D0FF242402D1
:2006E000D200D040A3430006000C04E01B0A1B02D200D040C0B20343CB6210BDF0B51D495B
:20070000086B8006800E8863CA6A224C150C25608A6A120C62604B6A87069BB20126236111
:20072000002F02DA5B192361A672C30603D523699B182361E672000700D5A672E07A00256F
:2007400000280AD0D007886A01D00004000E2072C1B22069FFF737FFE572A07A002803D0C5
:200760002069FFF788FFA5720B4902200860F0BD001000F0009000F0101F0020FCFF000007
:200780004E500000405000F0101F0000000C00200090FF1FF80C002080E200E01CB549486A
:2007A000416B022291434163474B986B910708439863464E0022F261C81745490860454912
:2007C000086000F0F5F94448026142613E4843493830002420C920C0641C0F2CFAD34048CA
:2007E000016A0124240421430162016A090A090276310162016A6400A14301623248C0385F
:20080000C16AC024A143C162C16A18242143C162C16A06242143C162324C22616261A26131
:20082000E261012525606260A26000207D21C90000BF401C8842FBD3D86B01210903884390
:20084000D863264F00202849783F00BF401C8842FBD30020F96B0091F96B0191019A0099AE
:200860009142F6D1401C6428F4D9786B401C18D0B86B401C15D0796B0320800281420FD96A
:20088000796B164A483A91420AD8796B091AFFF7F0FC12495839097E08180006000E00D07D
:2008A00025613068012800D125612069012802D00098012802D0FFF778FDCAE700F000FA7D
:2008C000C7E70000004000F0005100F0401000F080E100E080E200E0001F0020387F000040
:2008E000009000F0000C0020B80B0000000000000000000000000000000000000000000089
:200900000000000000000000000000000000000000000000000000000000000000000000D7
:200920000000000000000000000000000000000000000000000000000000000000000000B7
:20094000000000000000000000000000000000000000000000000000000000000000000097
:20096000000000000000000000000000000000000000000000000000000000000000000077
:20098000000000000000000000000000000000000000000000000000000000000000000057
:2009A000000000000000000000000000000000000000000000000000000000000000000037
:2009C000000000000000000000000000000000000000000000000000000000000000000017
:2009E0000000000000000000000000000000000000000000000000000000000000000000F7
:200A00000000000000000000000000000000000000000000000000000000000000000000D6
:200A20000000000000000000000000000000000000000000000000000000000000000000B6
:200A4000000000000000000000000000000000000000000000000000000000000000000096
:200A6000000000000000000000000000000000000000000000000000000000000000000076
:200A8000000000000000000000000000000000000000000000000000000000000000000056
:200AA000000000000000000000000000000000000000000000000000000000000000000036
:200AC000000000000000000000000000000000000000000000000000000000000000000016
:200AE0000000000000000000000000000000000000000000000000000000000000000000F6
:200B00000000000000000000000000000000000000000000000000000000000000000000D5
:200B20000000000000000000000000000000000000000000000000000000000000000000B5
:200B4000000000000000000000000000000000000000000000000000000000000000000095
:200B6000000000000000000000000000000000000000000000000000000000000000000075
:200B8000012110B5002349070B200002401E1C5C0C54C028FAD801221203C020401E145CF8
:200BA0000B460C54FAD1064808600648586010BD054900200861486188610449486070471B
:200BC000001E0020F100000000E000E0000C002000000000000000000000000000000000FA
:200BE00000000000000000000000000000000000000000000000000000000000A311111020
:200C0000001E0020F1000000650E0000670E000000000000000000000000000000000000BD
:200C2000000000000000000000000000690E000000000000000000006B0E0000E1230000C0
:200C4000190F0000711600000000000000000000000000000B27000000000000DB0E0000CA
:200C6000D10E00001D2500006F25000045240000930F00007D0F00001D0F000000000000FC
:200C800000000000000000008B0E0000810E0000000000000000000000000000000000002C
:200CA000000000000000000000000000000000000000000000000000000000000000000034
:200CC000F8B501F099FB00245A4E012535605A4920468200401C8C504028FAD3574A0020A2
:200CE000411E8300401CD1501028FAD301F0CCFD00207D21890100BF401C8842FBD301F0EA
:200D000077FC4F4801F04CFC0121084601F087FC012005F0C0FF012005F0C8FF05F0DCFD2C
:200D200000906846C570009805F0ECFD0F2005F0C9FD002004F0FEFE424804F0EAFF012048
:200D400000F0CCFD012000F0D2FD002005F037FE012005F03EFE002005F088FD002005F0AF
:200D600074FD01208003306000F092FC364841680225A943416002F0B6F801F06FFE05F082
:200D80007AFF012800D0002005F008FD01F0E4FE2E49CA6B03231B029A43CA63CA6B1B05A6
:200DA0009A43CA63294940310A682A430A600A6801235B021A430A600A68DB001A430A602F
:200DC000012828D0022826D0032827D0042825D0032004F0AFFE0321072004F0CBFE0021A2
:200DE000012005F051FC042004F09AFE01F0BFFF7D210901884205DD012005F0F6FE0120B2
:200E000001F0A4FF0C4D803D01F074FF01F062FF012806D007E003F08AF9E7E703F044FE13
:200E2000E4E704F0E9FC28690128EDD1034810380461F8BD00E100E0800C0020101F00202D
:200E4000B80B00007C150000005100F0401000F00348854606F0E0FB004800479D070000A3
:200E6000001E00207047FEE7704701202849C0064860704701202649400648607047FEE710
:200E800010B5132000F03DF810BD10B5122000F038F810BD10B50E2000F033F810BD10B5E4
:200EA0000D2000F02EF810BD10B50C2000F029F810BD10B50B2000F024F810BD10B50A209B
:200EC00000F01FF810BD10B5092000F01AF810BD10B5082000F015F810BD10B5072000F0EE
:200EE00010F810BD10B5052000F00BF810BD10B5012000F006F810BD10B5002000F001F804
:200F000010BDC106C90E0120884002490860704700ED00E080E200E07047000010B505F093
:200F2000A9FC1E21884344086400204605F09EFC600606D5012005F063FE0121084601F044
:200F4000C3FF200603D50121022001F0BDFFE00503D50121042001F0B7FFA00503D5012197
:200F6000082001F0B1FF600503D50121102001F0ABFF01202F498003086010BD10B5FF2049
:200F80000021013000F0F6FB01202A494003086010BD10B500F0FAFBFF2104460131884301
:200FA00000F0E5FB204603F0B4FA204603F0CEFA204603F0DAFDA00506D502F02EF8012848
:200FC00002D1002005F0CAFC200505D502F025F8012801D105F0C2FC600402D5012001F05A
:200FE00002FF600201D501F014F9200201D501F0F3F8E00101D501F0E9F9A00101D501F0F4
:20100000ACF9600101D501F072F920010CD504F0E4FB032808D005F053FB002804D100F090
:20102000EFFF012004F0E6F8012002490003086010BD000080E200E010B544283FD011DCBC
:201040002B286BD03C2819D0402816D104F0ECFD03282AD005F01CFC00282DD0002001F021
:20106000CFFE28E0462841D048287CD0FF38652803D105F06DF805F089FB10BD04F0D4FD63
:20108000032807D005F004FC00280BD0022001F0B7FE06E003F036FE0028F7D1022000F07F
:2010A00061FC80B204F00DFE10BD03F02BFE0028D4D100F057FC80B204F00BFE10BD04F0B9
:2010C000B3FD032807D005F0E3FB00280BD0012001F096FE06E003F015FE0028F7D10120E5
:2010E00000F040FC80B204F006FE10BD04F09CFD032808D005F0CCFB00280CD0032001F069
:201100007FFE80B207E003F0FDFD0028F6D1032000F028FC80B204F0F5FD10BD01F03DFE15
:2011200004F026FE04F080FD012805D0022803D0032803D0002013E0042011E004F044FBD2
:2011400002280AD004F03CF9012808D004F051FB012804D0082003E005E00A2000E0092001
:2011600004F00FFE10BD01F018FE0028FAD000F0C1FA0146FA4806F0C7F880B205F065F83B
:2011800010BD10B50C464E280CD04F2809D1880707D50121082001F086FE0021072004F062
:2011A00051FD10BDA00610D5012005F002FB0021084604F047FD01F028FF022802D100209A
:2011C00001F00EFF002005F0F4FAE00607D50121042001F068FE0021022004F033FD200721
:2011E00007D50121022001F05EFE0021032004F029FDE00709D004F0F8FD0121084601F01A
:2012000052FE0021062004F01DFD600707D50021042004F017FD0020D249C043C861A0078B
:201220000AD500F082FA01280ED0012000F074FA0021052004F006FD2006B2D504F0C4FA41
:20124000002803D0002006E00020EFE704F0BCFA022802D0022004F0BAFA002001F038FCE2
:20126000002101209BE738B5044601F096FD002816D1022C14D1694608704870684605F04B
:20128000D0FA0021802004F0B2FC0021802004F09CFC0021102005F0DCFA002005F0EEFABB
:2012A00038BDFEB50446002000902169AE4A8E07080A0192B60F0006AC4AAD4B000E04D035
:2012C00001280AD01F2817D00CE088B200900520000308182061502004E0052000030818C2
:2012E00020615120014640391F2908D820690F211040090747180BE01140CF1808E0083851
:2013000007287CD801212069C902401A1040C7183D6898492069884203D0F200FF219140BC
:201320008D439449193988420CD1207A400609D501F06BFE002805D0012040040543022023
:2013400001F04EFE8B4A2069521E8B49904212D12A020878120A05061543002819D1207A22
:20136000922816D202F05FF8012812D101F059FE832020720DE07F4A90420AD1207A087084
:20138000012806D1F100FF228A40954388402843386078492069891F884207D1207A002878
:2013A00001D0002000E0012005F0C2FB71482169814204D0207AF100884028433860052133
:2013C00020690903884227D3401A3E2821D04E2804D04F2814D069281ED116E0217A0098B5
:2013E000FFF7CFFE207A810702D5FD2108402072C0B2010610D54006400E20720CE043E0A6
:20140000217A0098FFF7BDFE06E0207AFFF72BFF02E0022001F064FD58492069884233D1FA
:20142000514A103A107C56490024422825D006DC102809D020281CD0402824D11BE04F2823
:201440001FD052281FD118E04E4843681B0A1B0243604368FF252D02AB43436043682D02AC
:20146000AB43436043681B021B0A43600120086109E00C6107E0507C04E0019800688861EA
:2014800001E00F20486114610020FEBDF8B50D460969080A0006000E01D0012804D10522B5
:2014A00012038918503029610246103A2F490F2A03D8286908402E491BE002467B3A742A68
:2014C00005D82869084007210903411A12E00246703A0A2A03D8286908402B4909E008385E
:2014E0000728286902D80840284902E008400F210907411828690C688607B60F1D491F39C1
:2015000088420AD100F011F98021012801D08C4320E00C431EE0022009E016491E398842EA
:2015200007D101F059FD002845D10120C002844341E0104901271D397F04884206D101F097
:2015400064FD002837D07801044328E009491B3988421DD101F059FD0028DCD12BE00000AE
:2015600000881300001000F0101F0020FCFF0000000000203F500000800C0020101F0000FC
:20158000000C0020005000F00090FF1F00F8FF1F3B49884205D101F038FD00280BD0BC43CF
:2015A00009E03749CA31884205D1270A3F0204F05AFA384304463249FF272869CB313F0239
:2015C000884204D1BC4301F028FD000204432878C1072C48C16A05D0F200D440B943220608
:2015E000120C04E0090A0902F200D440E2B21143C162F8BDF8B5234D0646234C286B800614
:20160000800EA863E96A090C2160A96A090C6160696A830689B201222161002B03DA236890
:20162000C9182161A272C10604D563682169C9182161E272000703D5A2722069FFF7FCFC1D
:20164000E07A002700280AD02079C007A86A01D00004000E20722046FFF723FEE772A07A30
:20166000002804D021463046FFF710FFA772F8BD10B50020FFF7BEFF04490220086010BD82
:2016800026500000009000F00C0D002080E200E0FE49002048707047FD4A516B0223C00714
:2016A0009943800F014351637047F94A51680123DB03C0079943000C01435160704710B5F2
:2016C000F3480069F34C01052078090D493048430C2148437D21090105F016FEEE4980B29D
:2016E0004843EE4905F026FE01216156C900401880B210BDE648006AC004000D7047E448CA
:20170000403080688003C00B7047E148006A0004800F00D001207047DD4A516B8023C00751
:201720009943000E014351637047D948406B0006C00F704710B5D64CE269D94B9202920A32
:201740001A400303134388051843E06110BDD04AD169D24B5B42194040000843D061704703
:20176000CB4AD169490849000143D1617047C84908637047C64A012905D0002902D1116B99
:20178000814311637047116B0143FAE7C048806A7047BF49C8627047BD4A012905D00029F8
:2017A00002D1D16A8143D1627047D16A0143FAE7B74A11689301C0079943C00A01431160DD
:2017C000704710B5B2494A6803789202920A9B051A434A604A680323DB049A4343789B079D
:2017E000DB0A1A434A604A6807231B049A4383785B075B0B1A434A60A54A40321368C47843
:201800001B091B012407240F234313601368F024A34304792407240E234313604B68CC01A9
:20182000A3434479E407A40A23434B6011680123C0799B05C0079943400A0143116010BD76
:20184000012805D002280DD004280DD008280DD000208F4A516803235B03994340030143D4
:20186000516070470120F4E70220F2E70320F0E787494A6807239B029A4303785B07DB0C25
:201880001A434A604A687C239A434378DB065B0E1A434A604A68FF2301339A438378DB0745
:2018A000DB0D1A434A604A68C0788023C0079A43000E02434A60486B402210434863704741
:2018C000734A51687C23C0069943400E0143516070476F4840684006C00E70476C4A516BBB
:2018E0001023C0079943C00E014351637047684A516B0823C0079943000F0143516370479B
:201900006349496A014201D001207047002070471CB55F49CA686B46120E1A70CA68120259
:20192000120E5A70CA681204120E9A70CA681206520FDA70C9680522C906C90E197119466F
:2019400005F00CFD1CBD524900688860704750480830006870474E490068086070474C486D
:2019600000687047F0B54A4C4E4D85B0020011D0012A2DD0022A7DD0032809D160694A4958
:201980000001000D4843494905F0D4FC4849401805B0F0BD012102A800F027FF03990298F4
:2019A0000191009020696A4601051078090D493048430C214843294605F0BCFC3649484346
:2019C000364905F0B7FC6A465188C90009B2DEE7206900210001040D02A800F006FF029819
:2019E0000090039929480191FF27FF26407841371936304D002804D004F062FE012818D010
:201A00001CE06A4610792D214930604348434B21C90105F08FFC2349C8314843264905F092
:201A200089FC6A460621515E4018184901224A702AE06869B84201D9002007E004F040FE1D
:201A4000002807D16869B04204D2012004F048FE686919E004F034FE01286A4632D010783F
:201A6000493060430101081A4B21490105F062FC0C4900E038E0C8314843084905F05AFCB0
:201A80006A460221515E4018002817E0840C0020004000F09D0C0020E8800000FF0F00002E
:201AA000FF0FC0FFD007000074B90200102700005C95FFFF200D0020FD2F000000DA0020BA
:201AC000686165E710792D214930604348434B21C90105F02FFCFE494843FE4905F02AFCE9
:201AE0006A460621515ECEE7606901210405240D02A800F07AFE039902986A46019100906C
:201B000010790C21493060434843294605F012FCF1494843F14905F00DFC6A460621515E73
:201B2000C90040180028CCDC002031E7C3070021EB4A002B01D011609161830701D55160EC
:201B4000D161430701D591601162030701D5D1605162C00601D511619162704710B5E14964
:201B60004A6AD205FCD5DE4AC30708D013680C692405240D1B19136093695B1C936183075D
:201B800008D553680C692401240D1B195360D3695B1CD361430708D593684C692405240DE3
:201BA0001B199360136A5B1C1362030708D5D3684C692401240D1B19D360536A5B1C536218
:201BC000C00608D5106989690905090D40181061906A401C906210BDF0B57D2485B0240155
:201BE000BF4D030005F02AFD05042393B6C2B400012102A800F0F9FD0399029801910090C5
:201C0000A969286805F080FB6A461178493141430C204843214605F08DFBAF494843AF4965
:201C200005F088FB6A460221515EC9009CE0002102A800F0DAFD0399029801910090E96929
:201C4000686805F061FB0446A748FF27FF26407841371936002804D004F032FD012817D031
:201C60001BE06A4610792D214930604348434B21C90105F05FFB96494843964905F05AFB23
:201C80006A460621515E4018974901224A7027E06869B84201D9002007E004F011FD0028CC
:201CA00007D16869B04204D2012004F019FD686916E004F005FD01286A4616D0107849300B
:201CC00060430101081A4B21490105F033FB80494843824905F02EFB6A460221515E40184D
:201CE000002800DA0020686152E610792D214930604348434B21C90105F01CFB74494843B9
:201D0000744905F017FB6A460621515EE7E7012102A800F06AFD0399029801910090296A9D
:201D2000A86805F0F1FA6A461179493141430C204843214605F0FEFA67494843674905F090
:201D4000F9FA6A460621515EC90040180028CBDC00201DE6696AE86805F0D6FA63494843D8
:201D6000634905F0E7FA6349401811E6A96A286905F0CAFA0CE670B503F026FD5A4C02288C
:201D80000ED021785C48002902D0012904D007E004F0C6FA012002E004F0C2FA0020207031
:201DA00004F0CEFA054604F0F3FA7D21281AC9004018A06004F0ECFA642148430146606049
:201DC0004E4805F0B7FA7D210446C9004843490005F0B0FA434902468B6B49480340E00520
:201DE000400D03438B638B6B46480340D005000B03438B63886B444A1040886304F0C8FA15
:201E000004F023FA642004F050FA70BD70B5044604F0ABFA054604F093FA041BAC4201DC04
:201E20002C4602E0844200DB0446A0B204F00DFA642004F03AFA2146642041432A484160E8
:201E40002E4805F077FA7D210446C9004843490005F070FA234902468B6B29480340E0057F
:201E6000400D03438B638B6B26480340D005000B03438B63886B244A1040886370BD1A48FB
:201E800080686430C2E7F8B5074604F09AFA0A2105464D4304F054FA064664203146414388
:201EA000164805F047FA0446304604F0CEF97D212046C9004843490005F03CFA0646AF420A
:201EC00000DA2F460A21384605F034FAC0B21DE098080000FD2F0000E8800000FF0F000036
:201EE000200D0020004000F0840C002074B90200102700005C95FFFFAA0500000048E80180
:201F000003F8FFFFFF07F0FFFFFF0FE004F0CDF97D20C000C11B204648437D21090105F065
:201F200009FA93498A6B934B1A40E3055B0D1A438A638A6B904B1A40F3051B0B1A438A6369
:201F40008A6B8E4BC0051A40C00802438A63F8BD70B5064604F0F4F9044604F006FA241A17
:201F600004F02FFA0A21864D4143A8687D23DB008019E218904201DD104602E0884200DA18
:201F80000846A860984203DBC01AFFF73FFF70BDFFF779FF70BD764940318A6AC007520818
:201FA0005200C00F02438A62704770B5704D01264035F6030446012805D1E86A3043E86249
:201FC000012000F028FA6A49886B42085200E007C00F02438A638A6B02239A434000024328
:201FE0008A63012C0BD1192000F06DFA0120FFF7D2FF022000F00FFAE86AB043E86270BD9C
:202000005B48816B490849008163816B022291438163704756484030016A012211430162E1
:202020007047534A4032116A0C2380079943000F0143116270474E4940310A6AFF231B0295
:202040009A43000202430A627047494A10B54032136A0F2424050007A343000A03431362E4
:20206000106A0223C9079843890F0843106210BD3F4A4032116A1F231B06C0069943C008B1
:202080000143116270473A488030406AC0B2704737488030406A0004000E704734488030FF
:2020A000406A0002000E704731488030406A0001000F70472E4A8032D1680223C0079943EA
:2020C000800F0143D1607047294A10B5803213690124E403C007A343000C034313611069E7
:2020E0004904C00BC003490C0843106110BD10B5072304461B0601461846FFF73BFB214695
:202100001846FFF749FB01201E490003086010BD30B5174B40335C6A0825C007AC43000FF5
:2021200004435C62586A5207C008C000520F10435862586A144A09051040090C08435862F1
:2021400030BD10B5012304460146DB061846FFF711FB21461846FFF71FFB10BD044A11686E
:2021600003239B0380079943000C014311607047004000F003F8FFFFFF07F0FFFFFF0FE0B5
:20218000840C002000E100E00F00FFFF10B53E4800218174C1750176417601218C052046E3
:2021A000FFF7E8FA01212046FFF7F6FA0121CC052046FFF7DFFA01212046FFF7EDFA3349D0
:2021C000E012086010BD3048807C70472E49887470472D49487670472B480021427E002A1A
:2021E00003D001228274C17570478174704730B5254B01229A740022DA75197603225A76DF
:20220000002203E0845C9D18EC74521C8A42F9DB30BD70B51C4CA07C25461335012808D06C
:20222000022805D1E17D485D491CE175FFF703FF70BD607E002819D0401E60760121022054
:20224000FFF703FF0020FFF7ECFE207E801EC0B2FFF70EFFE17D485D491CE175FFF7EBFE38
:20226000052000F0D8F8FFF7D5FE0220A07470BD10B50020FFF7D5FE10BD10B50120FFF7F6
:20228000D0FEFFF7C7FE10BD4C0D002000E100E052490870704751480078704710B5FFF761
:2022A00003FF002803D1FFF7EEFE02F093FC10BD202801D2032017E0802806D22038C1170B
:2022C000090F08180011001D0EE0E02806D28038C117490F0818C0100A3005E0E038C117E3
:2022E000890F0818801016303C490872704770B5FFF7DAFE002813D1384D2E4668680A3692
:2023000000280ED0297A491E884209D2FFF7C0FE697A41406972696888556868401C686073
:2023200070BDFFF7B0FE0446FFF7C2FF03F04CFA022806D1012C01D0712C02D1012003F00F
:2023400049FA687A60406872686884556868401C6860A87A02F03EFC70BD70B5FFF7A4FE09
:2023600000281CD1FFF79AFE1C4D29466A680A3150546968491C69606A7A42406A720ED111
:20238000287A81420BD1012405E02819807A02F021FC641CE4B26868A042F6D870BD03F0F2
:2023A00020FA70BD10B500210846FFF78DFE0020FFF780FE0020FFF79AFE10BD10B501202C
:2023C000FFF778FE0120FFF792FE10BD03480021416041720321017270470000680D00207A
:2023E00044480168491C016001204349400648607047404800687047404800210161404A94
:20240000426181610321016170473C480021016141618161704737490A680B689B1A8342D9
:20242000FBD9704737480268012109038A4302607D221201C261344B4A101A6002680A43EC
:20244000026070472B484168491C41602D48416A0822114341622D491002086070472548EC
:202460004068704710B57D2104F04EFF10BD0021425C202A07D00D2A05D0002A03D0491C3E
:2024800089B28029F4D3491C88B2704770B50D4606460023FFF7EBFF04B22846FFF7E7FF74
:2024A00000B2844200DC04460020641E07E0315C2A5C914201D05B1C1BB2401C00B2A0420A
:2024C000F5DB184670BD002813D00E490A68520852000A600A178A6000010A68C043012312
:2024E0001A430A608A688242FCD808684008400008607047900C002000ED00E000E000E02B
:20250000D514000000D000F000E100E080E200E032480168102291430160704710B52F48D2
:20252000416A0222114341622D491002086003F07BFB032802D1082000F0CAFAFFF7E8FFC5
:2025400010BD26490A6810239A430A607D22D2015043C86023495801086070471F48016872
:20256000C90603D40168102211430160704710B51A48416A042211434162194811020160EA
:202580001948006A1949000C02D10878401C08700878042803D30020087000F070FA10BD9A
:2025A0000E490A68FF2301339A430A60000148610C4998000860704708480168C90504D4A0
:2025C0000168FF22013211430160704703480168FF220132914301607047000000D000F01E
:2025E00080E200E000E100E0005000F0980C002001201A494002C8611948016A01221204E0
:2026000011430162016A090A090276310162016A52009143016213490220086070470F4888
:202620004030C169C16949084900C1610B48C169012252021143C1610948016AD2011143CD
:202640000162016A090A090276310162016A5200914301623821416370470000001000F0DC
:20266000009000F000E100E039480068C0B2704737498A699206FCD40860704700B503460F
:2026800002E05B1CFFF7F4FF18780028F9D100BD10B501222F48202303602F48C16B0324EA
:2026A0002404A14354040919C163C16B0324A404A143D4040919C1632548816B19438163DA
:2026C000816B102319438163816B402421438163416A090C090408314162816A090C09044D
:2026E0002C318162016B540221430163016B140221430163C16A1943C162C16A6023194312
:20270000C162016B1143016310BD10B50020134A202111600E4B40331A68920601D5586835
:2027200012E019680E4A4C06094903D410BD0868107001208C69E406F9D5002802D0107846
:20274000FFF796FF586840210843586010BD000000B000F000E100E0401000F080E200E01A
:20276000990C0020AF4988707047AE488078704770B515460E46044603F0DBFAAA498842A5
:2027800001D3FA2000E06420844203DD304604F0C5F970BD284604F0C1F9A24901208870CC
:2027A00070BD70B514460E46054603F0C2FA9E49884205D3FA2D0ADC2046FF302D3003E0B4
:2027C000642D04DC2046643000B203F0BBFF95488178012908D1FF2105318E4204DA002131
:2027E0008170204603F0AEFF70BD7CB50C46054603F01AFA8B490246C91C881C032A0FD02F
:20280000002C19D0012C33D000216846017041800171C18008226946284604F09FFD7CBDAF
:20282000012C25D07F486A461C3001781170408850807C4818300CE07A48807801280DD069
:2028400078486A461430017811704088508075481030017811714088D080DBE771486A46F7
:202860000C3001781170408850806E480830F0E70A786B461A7001228A565A800178197128
:2028800001214156D980C5E7F8B56F4A67A112786AA0552A7ED16C4B6C4C2B3B002220CBC8
:2028A00020C4521CD2B20F2AF9D3674A2C3A1278674B1A70644A11321278654B3D331A703B
:2028C000614A123212785B1C1A70564A5E4B921C0F331B7813705C4B521C11331B781370C0
:2028E000594B12331B785370574B921C13331B781370554B14331B785370534B1332153385
:202900001B781370504B183A16331B7813704E4B521C17331B781370531E5A781C78120203
:2029200022431C4618346280221D474C183424781470454C1C3A193424781470424C521C14
:202940001A34247814705A781C78120222431C461C3462803D4A0832546A25141C46103438
:202960006580946A1E4614367480946A1F46241408377C80D46A3D1D6C80D46A2402250EE1
:20298000341F2570D46A240E3470146B3C70126B120400E018E0140E3A1D14709A78FF2A6D
:2029A00012D100229A70341F628072807A80251F6A807F23237033703B702B700D3C2370BF
:2029C0006270A41C23706270234B224A5A601F4A883A00239C000D5D6418E678360635438A
:2029E000A67864783604240226433543009520C25B1CDBB2032BEDD302CA00218B00C45C9B
:202A00001B18DD782D062C439D785B782D041B021D432C43009410C2491CC9B20229EDD356
:202A2000F8BD00009A0C0020102700004A756C2031322032303139200000000031383A3156
:202A4000333A323000000000637F0000385100F037510000A3111110005000F0F74A00214D
:202A60001170D17710461177203001704030C175417581750176417611728176704710B578
:202A8000EE4C6034A17D607D814201D0012100E00021002918D0E17D401C491EE1751421F9
:202AA00004F032FC617548000918E44808182030027EC17D807D03F0B2FFE048617D213063
:202AC000085C03F080FE01E0FFF780FDE07D10BDF8B5DA4C07466034A07D00251421401C1C
:202AE00004F012FC607D814201D1012600E00026002E2FD1D2480068C00500D40125FFF7D0
:202B00005BFDE07D1421401CE075A07D401C04F0FBFBCA48A17521300F54A07D002142005B
:202B20008018C64A801820308175A07D4300C01880182030C175A07D4300C0188018203099
:202B40000176C048006A000C002D03D0002801D1FFF795FF3046F8BDFEB500207D24054612
:202B6000E4000646009003F05FF8012701287DD002287BD0032879D0002003F00FFE08207C
:202B8000FEF75EFE002002F0D5FFFEF7E8FE40210843029002A8FEF7DEFE1921490148108E
:202BA000FEF7C8FD0520FEF7D2FD0020FEF7D8FD01218803FEF7DEFD01218803FEF7ECFD80
:202BC000A14938030860FFF714FC0746FFF711FCC01B052803D8FEF78DFD0028F6D09749E2
:202BE000002048700120FEF760FDFEF783FDC008A84200D90546A04200D204460099761C16
:202C000008180090FFF7F5FBC01B0528EDD93146009804F079FB894E014670608B4804F024
:202C200073FB80B203F02EFB281B0321042803D9641F3C2C05D925E070680246333A7F2A65
:202C400002D20120307019E01138B7281AD37078012817D000203070B0770121880202F054
:202C6000B4FF0121202002F0B0FF00E00CE00121102003F07EFE002003F004FB0020FEF7EA
:202C800014FD24E03170F9E70020FEF705FD0020FEF742FD0021802002F0A9FF0021802017
:202CA00002F093FF0021102003F0D3FD002468460471447101A803F0B4FD0021102003F0EF
:202CC00058FE0020FFF704FF5C48877704705B480078FEBD10B502F0A7FF032801D0002020
:202CE00010BD0021102003F044FE0020FFF7F0FE012010BD38B502F097FF00254F4C012831
:202D00000FD002280DD000280AD1A07F012807D10121102003F02DFE0020FFF7D9FEA57731
:202D200038BDA07F0028FBD125700098C008C00000906846FEF70FFE0120A077002110200D
:202D400003F017FE0020FFF7C3FE38BD10B5002806D03F4802F0DDFF0120FEF7DDFC10BDCB
:202D60000020FEF7D9FC3B4802F0D3FF10BD08B50320694608701F20487001208870C87006
:202D80006846FEF775FD1F20FEF79AFD0220FFF742FB0220FEF7E6FD08BD284800787047A0
:202DA000264908707047254840686338152801D8012070470020704720484068642801D390
:202DC00001207047002070471C48406801464B39172901D8012070476338152801D80220A9
:202DE00070470020704715494870704713490268CA6042680A6182684A61C0688861704716
:202E000070B50E4D0446287801280ED002280CD002F00AFF03282BD0002C34D0012C36D0B7
:202E2000022C1FD0032C21D133E0002C04D0012C12D0022C22D111E0E86870BD940D0020E2
:202E400000D000F0005000F000E100E000710200D45800007C1500002869EEE77849686989
:202E60008842EADA02200FE0A869E6E70020E4E7002CE1D0012CEFD0022C02D0032CF5D12C
:202E8000F2E76869D9E70020FEF76CFDD5E70120FAE70320F8E76B49097F014201D0012019
:202EA000704700207047674B01291A7F02D082431A7770470243FBE76249497F014201D082
:202EC00001207047002070475E4B01295A7F02D082435A7770470243FBE75A48C07F7047B9
:202EE0005849C87770475749002088777047F8B5564955480A6B6B461202D20E1A70534A9B
:202F0000403292685202520E5A704A6B1205120F9A70496B4E4E8902890ED97000246D463E
:202F2000295D420110184018314604F0EDF9641C0846042CF4DB314604F0E6F90846F8BDDD
:202F4000FFB5404C07466034A07D81B000251421401C04F0D9F9607D814201D1012600E00D
:202F60000026002E31D13B480068C00500D40125FFF722FBE07D1421401CE075A07D401C82
:202F800004F0C2F92F48A17521300F54A07D029A410040182B49401820308275A07D039A22
:202FA0004300C01840182030C275A07D049A4300C0184018203002762748006A000C002D0F
:202FC00003D0002801D1FFF75AFD304605B0F0BD1C496031087670471A486030007E7047AD
:202FE000184910B560314876002809D0012806D10121022002F0E9FD0120FFF769FD10BDF5
:203000000021022002F0E1FD10BD0E486030407E70470C496031887670470A486030807EFA
:203020007047084901200872704710B50549002008720A4802F06DFE10BD0248007A704792
:20304000B80B0000940D00209FE73503005100F0FFFFFF0000D000F0005000F08813000055
:20306000F7B5FF4F06460120FEF72AFCFEF727FB054684091F20FEF723FCBD42F3D3FF2C9C
:2030800000D3FF24F7481E210460012030707470019801600298072101607120FEBD70B525
:2030A0000446022015460E46207002F07BFE6070C820306000202860012070BD30B5FF22B6
:2030C000FF23FF24FF25E1327D334B341935002815D0012824D0022833D0032842D0042837
:2030E00051D0052860D0FF24053406286DD0FF235F3307287AD0322979DA0020B0E091422D
:2031000076DC994275DCA14274DCA94273DCE62972DCB42971DC822970DC50296FDC9FE003
:203120003229EADB914263DC994262DCA14261DCA94260DCE6295FDCB4297CDC822976DC81
:203140008EE03229D9DB64296DDB914250DC99424FDCA1427BDCA94275DCE6296FDCB4296B
:2031600069DC7DE03229C8DB64295CDB96295EDB914274DC994270DCA14268DCA94262DC59
:20318000E6295CDC6CE03229B7DB64294BDB96294DDBB4294FDB914261DC99425DDCA14207
:2031A00055DCA9424FDC5BE03229A6DB64293ADB96293CDBB4293EDBFA2940DB91424EDC08
:2031C00099424ADCA14242DC4AE0322995DB642929DB96292BDBB4292DDBFA292FDBA142AD
:2031E00031DB91423BDC994237DC39E008E018E035E032E02BE026E021E01CE017E012E0D4
:2032000032298EDB64290EDB962910DBB42912DBFA2914DBA14216DB994218DB91421EDC7F
:203220001EE0642901DA01201AE0962901DA022016E0B42901DA032012E0FA2901DA04206C
:203240000EE0A14201DA05200AE0994201DA062006E0FF20C330814201DA072000E0082012
:203260008049C87630BD014600B5FF220020F5320B0004F0E3F90906090C0F121214141488
:2032800008004B20000100BD1920400100BDAF20800000BD4B20C00000BD104600BD14208B
:2032A00000BD38B5044603F017FB00906846002201210078022C06D801280ED06846C17029
:2032C0004170017005E0002807D06846C170427002708270009803F015FB38BDF8B5624C08
:2032E000FF23227801277D330225002A05D00026012A16D0022A1DD010E00246FF266F3ABE
:203300000E36B24205D8677011E0032004E0012002E0984207DC002002F00CFC6078207087
:20332000F8BD984201DD6570EFE7322804DB0029EDD1EAE7322801DA6670ECE7FF221E3235
:203340009042E2DADFE770B50546FFF70EFA464CA178884204D00020E070FFF706FAA070EC
:20336000FFF703FAA178884202D1E078022803D2E1782069491C02E0284602212561E170BC
:2033800070BDF3B581B0044602F0D3FC354A00B2403200901079334D8000401944621079D8
:2033A0000021401CC3B21371084684006419646A401C61180828F8DBCE10082B01D300209D
:2033C000107102F0C1FC07460A2103F09DFF254CC1192034B14202DAA178002912D0381AD2
:2033E000B0420EDDA07801280BD12020285E03F0A9F9E87F03F092FB0020A0700120FFF74A
:20340000B1F9FEBD02990098401A298C081AFF38F53800B203F096F9A87F03F07FFB012096
:20342000A0700020EBE70F48603000787047F7B50C4F0646387F002488B0782801D2401C3F
:2034400038770020FEF7C8FB05460120FEF7C4FB01900220FEF7C0FB0290032006E00000C7
:20346000AC0D0000100E0020BC0C0020FEF7B4FB00900F20FEF75AFB019804900298059064
:2034800000980690039503A8FFF7B0FC0198FFF75AFF0490019003F055FB012803D1029931
:2034A0000198FFF76EFFFEF7A4FFFE49FE4F4968411AFC4860300090B94203D8FB480079E2
:2034C00000280BD0FEF795FFF6494968401AB84268D9F64F3879002848D061E0F14C207F88
:2034E000082829D01DD9F24885421ADD207B032817D00120FEF710F90220FEF78CFF012026
:2035000003F0BCF9FEF775FFE06500980127077003F024FB0820FEF77EFFE4480771207F2F
:203520006077E348401B00B2C117C90E081844117F2C15DD7F2411E12068A84201DD0120B5
:203540000CE07D204001854201DD022006E0D648D849C04328188842F1D900202074E0E763
:203560007F20C0438442E6DA0446F7E00120FEF7D3F80220FEF74FFF012003F07FF9FEF73B
:2035800038FFC849C86500990120087003F0E6FA0820FEF740FF01203871C248017F417749
:2035A00001207871C14F0199F879FFF787FDF871FFF743FD012813D03846C079FFF771FEA5
:2035C000B84F787F397F401D8142387B0ED906280ED0062038730120F8737920787707E0A3
:2035E0000198C828ECDDFFF720FDE9E706287DD1022002F061FDFEF7FCFEAA49C96D401A36
:20360000FF212D31884202D9009900200870FFF714FD002803D101210198FFF75FFE02F053
:2036200088FB07B2A148C079FFF71DFE029002F060FD0090FFF701FD012802D1FF20F53076
:203640000090984C4034607C64282CD1974801899948814204D3874202DAA07C002803D07D
:20366000A07C012802D007E00120A0749348874202DCE07C002803D0E07C012802D012E0F5
:203680000120E0748748406D00280CD0FEF7B1FE84494A6D801A7D22D200904203D300203A
:2036A000E0744865A074814807818548874206DB282002900098642801DA00200090E07C48
:2036C000012801D0029802E07D200001029039180098081884B2204602F02BFD0198322892
:2036E00008DA601B00B2C117490E00E014E00818C41105E0601B00B2C117C90E081844118D
:203700006F48874208DBE12101988900884201DB012002E0642802DA0020FFF77AFC322C27
:2037200001DD322404E03120C043844200DA04465E48C07906280BD8A01E302801D8641ED2
:2037400006E020463230312801D2641C00E000245C48854202DD002C00DD00245148007B80
:20376000062802D0514906208871504F0B21B87903F0CAFD0A2914D03078512809D00420A5
:20378000FFF789FB01280ED00220FFF784FB01280DD00325454A9079411C91710B280CD0DD
:2037A0000EE00425F6E705250021042002E0022500212846FFF777FBECE73C490020887135
:2037C000FFF78BFB01468020012901D109990860344937276431C97E002907D1334949798A
:2037E000002903D0052C01DA611D02DC0998076001E009990860FFF720FC012801D10998C4
:2038000007600A9900200860B07E022801D10120B0763078282804D0032805D0282803D0B6
:2038200009E070780C2803D01E48007B032802D10120FEF745F803203070747028460BB0AE
:20384000F0BDF7B588B00020FEF7C6F905460120FEF7C2F904460220FEF7BEF90646032060
:20386000FEF7BAF907460F20FEF760F903A90295D0C102A8FFF7BAFA0A482146C07EFFF7C1
:203880001DFC01AA6946204602F0A8FB02F0EBF806906846007803F05EFE06466846007967
:2038A00012E00000100E0020B80B0000BC0C002064190000E7030000282300007C150000EA
:2038C00010270000204E000003F045FE07460521C943304603F028FE7F21C90503F050FD51
:2038E0000646FE49384603F0A4FDFD4903F048FD0746069803F02FFE0690204603F020FE8D
:20390000F84903F0D3FD0446284603F019FEF54903F0CCFD314603F08CFD214603F089FD14
:20392000394603F02DFD069903F083FDEE4903F0BDFD3F21090603F023FD03F013FE00B2BD
:20394000FF2801DDFF2002E0002800DA0020089904220A700899487009987D2101600A9863
:2039600000210160E1490120C860032067E770B50446052015460E46207002F00DFADC49F0
:2039800060704874C820306000202860032070BD062303706423437032200860002010600B
:2039A0005120704707230370AA23437000200B601060184670470923037000234370AA2073
:2039C00008601360704710B52023037043780024002B0CD0012B0CD0022B0DD0032B0DD0D7
:2039E0004470AA2383700B601846146010BD012300E002234370F4E70323FBE70423F9E783
:203A000022230370AA234370837000200B6010601846704718230370FF234370B44B403B6E
:203A2000187B012801D0042804D1987B012805D002201873D87B022802D003E00520F8E704
:203A40000120D873462303200B60002111607047F7B586B004460F4602A802F00BFA01286F
:203A600003D901210846FFF71EFA6846007A20706846407A60706846807AA0706846C07A5C
:203A8000E0706846007B20716846407B60710320049046203860964E60780025403E0A289C
:203AA0006ED005DC401F030003F0C8FD026A1C6A0B2865D00C2804D00D2861D018285FD195
:203AC0005CE0307B022801D0062808D17576B5763576032030730120B073307F70778020FC
:203AE00038604DE0FEF785FC0121B065084602F0CBFD0020FEF732FBA0784B2817D004DCB8
:203B0000052807D02C282BD10CE069280DD09B2826D122E0802001F0A3FF0021012002F0D4
:203B2000B3FD1DE00120FFF7DBF9402016E0402001F096FF0120FEF711FB80206A461070BF
:203B400001205070062191700821D17011715071D5716846FDF735FE02E0202001F080FF02
:203B60006348C07C01280BD1A078052808D1706D002805D1FEF73DFC706501E002F0EEFF9D
:203B800008980560049809B0F0BD31230370AA238370C370462008600020106031207047FE
:203BA00010B5512303700A23437000238370C3708224047143714620086001201360FDF70B
:203BC0008DFE0120FFF70CFA032010BD54230370AA2343708370C3700371437146200860C7
:203BE000002010601846704755230370AA2343708370C37003714371462008600020106009
:203C00001846704770B515460E460446FFF76FF971212170122161700021A1704222E27004
:203C200064222271020C6271020AA271E07121726172A172601D02F0DCFA2079000601D5E7
:203C4000812000E05120412131600721296070BD81230370002343708370C3700371437166
:203C60008371C371037243200860062013607047F0B51F4E85B00024403E3473F4737473AE
:203C8000B473B47674763477347634747477F47602F049FD308402F03CFFB07702F058FF0E
:203CA000134DF077AC74EC74746528466C74203884702C71002081008919401C40B24C626E
:203CC0000828F8DB0A48B4652030F4650470B07F02F024FF012002F00EFF0BE08FC2753C08
:203CE0003333F3BF00007A440000A040BC0C0020500E0020012002F01BFFF84A547111461D
:203D0000AC712039EC712C720C7108462C74203804624C718C71847644778477C476947160
:203D20000020FFF7DDF8EE4F012508263846FDF71EFD3846FDF72DFDEA49280308600020F8
:203D400002F05EFF402002F091FD402002F07DFD0121102001F039FF0121082001F035FF7E
:203D60000121042001F031FF0121C80301F02DFF0021402001F029FF0121084601F025FFB3
:203D80000121480201F021FF0121080201F01DFFFDF7E5FDC008C000A904401C0843049027
:203DA00004A8FDF7D8FDA02168460170457006218170C67006714571C471FDF702FD032132
:203DC000684601721F2141728572C57202A8FDF74FFD0021012002F057FC042001F0A0FE7D
:203DE00002F096F81920800101F0B5FF012002F077FCC02002F08FFC012001F09BFE032132
:203E0000072001F0B7FE0020FDF746FC01F091FF02F08FF9002002F0D1F9012002F0C3F9D9
:203E2000022002F049F90020FEF79CFC02F00CFE6846C5730221417305738473039802F0CA
:203E400061FD01F013FE802001F00AFE032002F018FFA548416B1F22120291430D225202F8
:203E600089184163A149C86B032212021043C8630020FFF7CEF805B0F0BDF8B5974F05460D
:203E8000A43F387B3C4684340026030003F0D6FB0604B2B23CB2A6B20220FEF7BCFA0120C3
:203EA000FDF786FC8D48A438017E491C0176FEF7A0FA07460AE0FEF79CFAC01B502805D304
:203EC000207D002807D0E07C01280CD0FEF791FAC01BC828EFD98148A438017E032942D36D
:203EE0000121017371E0207A0228F4D1607A012805D00028EFD17948A4384673EBE77748AB
:203F00000121A4384173ECE70220FEF784FA0120FDF74EFC7148A438017E491C0176FEF743
:203F200068FA07460AE0FEF764FAC01BA02805D3207D002807D0E07C012818D0FEF759FAC9
:203F4000C01BC828EFD96549A439087E03280AD3487B01283ED000283CD08E7306200873E5
:203F60000120C8730E760020FDF722FC46E0207D032102280AD3207A022804D1607A0128A5
:203F80000ED0002814D05548A43801735348A438427E022A13D3042101730121417314E09E
:203FA0004E480122A4384273427E521C4276EDE74A48A4384673827E521C8276E6E7827EA3
:203FC000022A05D304210173467306761825CAE70173B8E7042008731825C3E7797B002272
:203FE000022002F0FFFCBE73062038730120F873032506E0FDF76DFC1F2802D01F20FDF76D
:204000005FFC2846F8BDF8B507463448A438C07B012808D0FDF75DFC1F2802D01F20FDF7FB
:204020004FFC3846F8BD2D4C0020203C2B4E20727071E074A0756072A0720220FEF7EBF9D9
:2040400001214D052846FDF795FB01212846FDF7A3FB0120FDF7ACFBFEF7CBF9054634E004
:20406000FEF7C7F9401B062802D37079002831D0207D002816D0032804D9FEF7BAF9401B65
:20408000642827D3207D022804D1FEF7B2F9401B46281FD9FEF7ADF9401B23281AD9A07D4C
:2040A000800717D1FEF7A5F9401B40280DD3207D00280FD0207A00280CD0FEF79AF9401B36
:2040C000C82815D0E07C012814D0FEF792F9401BC828C5D90020FDF76BFB9FE7B40E002057
:2040E0000F00200000E100E0004000F0401000F00120E074207A0028ECD0617D0329E9D8A2
:20410000617AA27A0B4643409A4202D1A37D9B0703D50128DED11429DCD1F94B0224587493
:204120009974DA74DC73182702F05CFCD2E78AB00025FFF79DFDFEF75CF9F1494860FEF783
:2041400058F90446FEF755F9001B022805D8FF200130FDF7D5FB0128F4D102F010FA012838
:2041600002D00920FEF757F9E54E0124304620300790643040360690FEF73BF9E04F002032
:204180006437E04AF97E002C04D0002D02D1002900D07471C300D35CA34209D1C0008018FC
:2041A0004368D74809AA05A964309847044603E0401C80B22028E6D33878202801D20121B8
:2041C0001AE0802807D201462039CA17120F51180911891C10E0E02807D201468039CA17E8
:2041E000520F5118C910083106E00146E039CA17920F511889101431C9B279758C46C04990
:204200006531B964B875002007E0B96CBA7D0B78491C5A40BA75401CB9648445F5DCB84897
:204220006730C71EB8640020F875387638462830F86406990020C8740875FDF788FB0490F6
:2042400038786946087478784874B8788874B87DC87404A8FDF777FB052001214002FDF7AB
:2042600089FA052001214002FDF796FA02F034FB0090019001206946C87005204870002067
:2042800008708870009802F03DFBFDF768FB1F2149028843797DC906890C0843FF21013148
:2042A0000843089008A8FDF756FBFEF7A2F80746FEF79FF8C01BC82804D891486430007E2C
:2042C0000128F5D1019802F01DFB052000214002FDF750FA052000214002FDF75DFA8849E2
:2042E000002064310876FEF784F80190844864300078262822D00EDC16281FD006DC03284D
:2043000016D004281AD0152833D117E0172815D025282ED112E0372810D004DC27280DD0BC
:20432000362826D10AE0462808D0472821D105E02046FFF7A2FDFFF766FE044670486430C7
:20434000C07E002809D0032C01D0042C05D16C482146643002F067FE0025FEF74AF8C11BDA
:204360000598401F814204D9FEF743F8C01B401D05900998FEF74FF8002000900D20FDF7F6
:204380009FFA47E0102001F046FC002801D102F037FC032C01D0042C3CD1FEF72AF80199ED
:2043A000401A192836D9FEF724F8C11B0598001F814205D801210802FDF7DCF90D2027E0E1
:2043C000FEF717F8C11B0598801E814222D80098002818D10220FDF773FA0020FDF7FCFBCE
:2043E00002900220FDF7F8FB039007988078012807D04348039BC27F817F0298C01AFEF725
:20440000B7F90120009001210802FDF7B3F90220FDF7A4FBFDF7EDFF0599C01B8842B1D90D
:204420000F20FDF74DFA032C01D0042C19D107988078012815D0324F787F002811D0397F1A
:20444000C01C814202D8387B06280AD10120FDF7C3FB0146039B02982022BA5EC01AFEF7AC
:20446000A0F90120FEF717FD01280BD1182C09D0234864300078282804D02824002101202E
:20448000FEF711FD1E4F6437F97E00291AD0032C02D0002D0FD015E0002D01D02C460025F0
:2044A000B87E01280ED10020B87606988079002808D0044606E006988079002802D0A04236
:2044C00000D005461048C268012A0AD10022C260002900D100250A482146643002F0FAFE9F
:2044E0000446B079772811D0782800D044E60020B071F87602F0E6FB0620FEF7E9FA3BE68E
:20450000100E002074760000BC0C00201B20B071F2E738B50446FDF71AFA00903D49E0071A
:2045200001D001200876A0070FD5C87D6B46401CC875C007886C027801D05A7000E09A7037
:20454000401C88641846FDF7FEF938BDF0B585B0044602A8FDF7DCF90298009003992D4803
:204560000191A10201274030002900DA4771294962072031002A3FDA6A461379254D002B6B
:2045800009D01D2B2BD04A7D0E7D521C96426A4628D1127827E0EE6C92783270EE6C761C3B
:2045A000EE64202A01D2012217E0802A06D2203AD5172D0FAA181211921C0EE0E02A06D20B
:2045C000803AD5176D0FAA18D210083205E0E03AD517AD0FAA18921014324A7508E09278D9
:2045E0004A7405E05278EE6C3270EA6C521CEA640371087D401C0875200707D56846C07885
:20460000002804D000228A748875CF7433E40122F9E70000740E002070B50646FF480D4677
:204620000721036849068B43012109060B4314460360FDF790F9002030742060F848286005
:20464000022070BD70B5F54B0D46064607211868490688430321490640181860144618464A
:20466000FDF779F90020307420607D2000012860042070BDFF23EB4A7D33002808D00128E9
:2046800012D0FF231E33022817D05F290EDB1BE0914201DD03207047994201DD022070472B
:2046A000BE29FCDD012070475F2901DA002070479142EFDC9942F1DC70475F29F6DB9942F7
:2046C000F0DB9142E6DC70479942EBDBFF20C3308142E3DBDEE7F8B50027012604460D4632
:2046E000002804D0012C08D0022C17D01FE0BE2D01DD012424E0002017E0FF207D30854209
:2047000001DD022410E05F2904DA0024204601F011FA0EE0032001F00DFA11E0FF201E3052
:20472000854201DA012402E0032001F003FA5F2D06DA6946CE708F70032048700E7005E029
:204740006946CE708F70032048700F70009802F0D9F82046F8BDF7B5B04F82B0083FB87948
:204760000D4600280DD10120FEF73AFC0120FCF7D3FF0220FDF74FFE012002F07FF80120A0
:20478000B8710020FDF7EEF804460120FDF7EAF80090FDF72EFE3969A04E411A7D2000017C
:2047A000814203D2A048201804B234E038780099FFF760FF387003283DD00020FDF7D2FF14
:2047C0003878002839D001283AD002283BD02821019178780099FFF77EFF7870002101208F
:2047E00001F052FF042001F09BF90721306849058843052149054018306001F07AFC0090A2
:2048000001F097FA0199411800980818211A0CB280B201F08EFC20463B30772800D200245F
:2048200020464A30952810D2B87805280DD2401CB87000240BE00120C0E74B210901C7E73E
:20484000AF218900C4E78021C2E70020B8703846FA787D230727DB007F061E2A02D201790E
:20486000322902D3012141712FE0002C13DA6F498C4201DC2B6009E06A4963316118F92953
:2048800002D8FF21F53100E0FA212960521CC2703068B84328E0002C17DD624A6432944201
:2048A00002DB7D22920108E0FF3CF53CFA2C02D27D22520101E07D221201491C2A600171B5
:2048C00030680121B84349060DE000212B60C17001714279012A02D1554A2A60417130686C
:2048E0000321B8434906401830604C48FDF733F80220FEF7D0FA002801D0052500E00325A3
:204900004C4C0020A07101212020FCF733FF01212020FCF741FFA0790028FCD030680321E9
:20492000B8434906401830603C48FDF714F804990020086002990874284605B0F0BD002392
:204940000370AA23437010238370B423C370992303714C23437128238371FF23C371DD234C
:20496000037244234372F32383720B230374142010602B4808600320704770B506462748BD
:2049800014460D4607220168520691430322920689180160FCF7DFFF0023337423600520AA
:2049A0002B6070BDF0B51921490185B04810FCF7C1FE0520FCF7CBFE0020FCF7D1FE902460
:2049C00080252046FCF7D3FE2046FCF7E2FE01241949200308602146402001F0F6F8FDF723
:2049E00021FDFCF7BCFF0D49E20408398860C008C000801C1043072252050831104308609B
:204A00000846FCF7A8FF0327684607731F2141738473C47303A8FCF72BFF0FE0D80C00207F
:204A2000307500008A020000D8DCFFFF12FDFFFF50C30000E40E002000E100E0002101205E
:204A400001F022FE042001F06BF8042001F026FF042001F02CFF012002F06AF8002668460A
:204A60000096067145718571C57101F0ECFA012001F036FE0020FDF775FE032001F05AF83D
:204A80000321072001F076F80020FCF705FE6846C472867247720472029801F033FF01F09D
:204AA00048F901F046FB48E71CB5FCF758FF454CA060FCF74CFFE060FFF774FFFDF799FC38
:204AC0000125414E2061FDF7CAFC04463F480021CA00825CAA4208D1C9000818436801AA48
:204AE000694639489847054603E0491C89B20529EED3307C00282CD03348801CB0620020D1
:204B00007074B07431782F480C30417071788170FCF719FF307C2B4A0107083210680001BF
:204B20000009084307214906884301218906401810601046FCF70FFFFDF75BFC0746FDF783
:204B400058FCC01BC82802D8B07C0128F7D10020B0740198FDF75FFCFDF781FC071B0098E8
:204B6000FDF780FC8742F7D9ADE770B50446C1060120154D002900DAA874A1060AD51249DF
:204B80002031887100212020FCF706FE01212020FCF7F0FD200613D5687C401C6874687C23
:204BA0000B49C007A86A04D0421CAA620078487003E0421CAA62007888700548FCF7C3FE9C
:204BC00070BD0000D00C0020C40E002074770000DC0C002030B5F74A002351780224142952
:204BE00002D3537093702FE0F24DED1C48555078401CC1B2517001291DD1D078202801D253
:204C0000032017E0802806D22038C5172D0F28180011001D0EE0E02806D28038C5176D0F3E
:204C20002818C0100A3005E0E038C517AD0F28188010163090701078002807D0012804D1FA
:204C40009078814201D15370147030BD0120107030BDD84800787047D64880787047D548BC
:204C6000C0787047D348C01C704770B50446FDF7C0FBD0498039C865CE4861786038017280
:204C8000FDF746FCCB4C0025203C607C022802D0032805D005E065730120A073002070BD30
:204CA00065740020FDF777F9C2484038057465702570A570E57025766576A573202001F009
:204CC00036FB022070BD70B50446FDF792FBB94D803D6865294660782031487201F067F832
:204CE0002C46A86C6034002805D12078401CC0B2207001F0FEFA207E012801D0032070BDD5
:204D0000002070BDAB488038806CC0B2704738B50446FDF76EFBA74D803DA861FDF769FBE0
:204D20006865A86C0A2801D2401CA8646078A14C603CA072A86C01280DD120464030017848
:204D4000022912D300210176684601F0C7FA03216846FDF74CFAFDF75CFA0A20205600F065
:204D6000CAFD012812D0032038BD0121017601F093FB054601F095FB0122294601F081FE63
:204D8000002250218C4801F0A0FBE6E7002038BD88482038407E7047F8B5864C0746203C79
:204DA000207E002844D101F0E0FB2546603D0126B8421EDC607D01280FD06675FDF719FB61
:204DC0002862A07D002810D0FDF713FB696A411A7A48814224D8A6752AE0FDF70AFB296AC2
:204DE000401A774988421BD8EBE7FDF702FB6862F1E701F0BFFB014638460027814215DC2C
:204E0000A07D012805D0A675FDF7F3FA686267750EE0FDF7EEFA696A411A68488142F6D99B
:204E2000E6740420FDF754FE0120F8BD6775A7750020F8BDF0B505468BB000200690FDF736
:204E4000D8FA5C4C803CE061264668782036F072FDF7CFFA606501206034E0700520FDF737
:204E6000DAFAFDF7C6FA054602E00F20FCF776FEFDF7BFFA401B0228F7D30120FCF7ACFE2D
:204E800008900020FCF7A8FE0A900220FCF7A4FE05460320FCF7A0FE07460F20FCF746FEBE
:204EA0000A980290089803A9A1C102A8FDF79EFF0898FFF771FF01281AD0F77AF07B7D2142
:204EC0007843C9004843000A0A900899284648437D21C90002F02EFA08907D208001854287
:204EE00038DD607E012808D0852F3ED332203AE000200BB0F0BD502000E0282001F017FA6B
:204F0000089880B201F0C9F90A9880B201F055FB01AB07AA09A9684601F057FB68460078D1
:204F200002F019FB07466846808C02F014FB0646089802F005FB314602F073FA394602F03E
:204F400078FA204902F0B2FA02F00CFB217E01290FD016E01C488542D2DD607E0128CCD0C4
:204F6000852F02D33C2001F0E2F9F07A5028C2D9C6E715498D4204DD0899091A0A98081AC0
:204F80000690684600797F2812D06946898B069888420BDDE07D401CC0B2E075032807D333
:204FA0000120E0740420FDF793FDA1E70020E07503209EE7780F00204C040000C0D40100A3
:204FC000B80B00000000C8427017000010B5F74942780A734178642903D18278052001F017
:204FE00001FD032010BD10B54078F0490528487301D3CD2801D9002010BD00F060FC022027
:2050000010BD10B50446FDF7F4F9E849203948654031087C401C0874E448002140300170A1
:205020006078FF2802D10020FDF7D3F861780022182001F0D7FC032010BD70B586B0054632
:20504000FDF7D7F9D94E203E7065697834466034012902D1A878002810D0AA78282001F0C3
:20506000C1FC6878002101220223182817D0192824D00E2827D00C282CD042E06078401C1B
:20508000C0B26070022802D90320607039E004A801F024F9032104A8FDF7A9F831E0A8786D
:2050A00001282ED16374E2732174FDF7A2F9B0660020FDF70DFD002006B070BDA878FF28FA
:2050C0001FD121751DE0A87855281AD0702818D1627616E0A878002813D16A461372517253
:2050E00002A800F0EAFE684600F06AFE6A46107851784840907003216846FDF778F8FDF775
:2051000088F80320D8E710B541788A09A7498A7342789206920ECA738278D2090A748278B3
:205120005207520F4A740279D2088A7400794007400FC8740120FDF74BFF0520FDF7C8FC1D
:20514000032010BD10B541780A0998490A7542781207120F4A7581780A0294492039CA8630
:20516000C378D218CA86027912068A6343791B04D2188A6383791B02D2188A63C379D21872
:205180008A6301F0CDF9022010BD70B5417800220B06864920394B640A6484782504941855
:2051A0006B410C644B64C5782D02A4186B410C644B640579A4186B410C644B644679350A2E
:2051C0003606A4196B410C644B648679350C3604A4196B410C644B64C679350E3602A41992
:2051E0006B410C644B64007A201853414B640864022070BD6D4910B540318874012801D151
:20520000FDF766FC10BDFEB56848002520380570203004464572403465746573E5732574AF
:205220000320694608700F20487001208870C8706846FCF71DFB012001F052FA0020FDF7C1
:2052400091FA012001F057FC012001F041FC5848C16B032212029143C163C16B012292022F
:205260001143C163C16B5600B143C163C26B71008A43C263C26B49008A43C263C16BF20006
:205280009143C163C16B5700B943C16301F024FB69460290CD72029801F034FB69460D71FC
:2052A0000220487101A801F0BCFA4B21E120C900800001F04DF900212576084601F0E4F9FE
:2052C0003C4800F00DFD002250213A4801F0FDF80020FCF7E1F9022001F0C9FB0121084621
:2052E00001F08AF80121084601F099F80321002001F0A8F801F0B8F8029001F0BBF801227A
:20530000029901F0BEFB2B48323801F009F8202001F00DF8B920C00000F0F4FF264800F069
:20532000F8FF0F2001F057FC7221012000F0C7FF552001F0BCF801F059F90121384600F0AC
:2053400044FC0121022000F040FC0121080300F03CFC0121304600F038FC0121480300F02F
:2053600034FCFCF713FF002001F0BAF90120FCF7E8FE01220D21C9011046FCF7C9FE0120EE
:20538000FCF709FE0020FFF735FF2575FDF70AF8FDF714F86575A575E5740848FDF7D1F8DF
:2053A000FDF7DCF86420FDF736F8FEBD180F0020005100F0DC0500006A04000020BF02000C
:2053C000FA48807C7047F0B587B0FDF705FE0027F64C01280CD1607C022809D003280ED0AE
:2053E000677427740020FDF7F3FD0520FDF770FB0020FCF7DAFDFCF7FCFF05460BE0207C05
:20540000401CC0B220740828F2D167742774EFE70F20FCF7A3FBFCF7ECFF401B0228F7D3FE
:205420000120FCF7D9FB05900020FCF7D5FB06460220FCF7D1FB04900320FCF7CDFB054622
:205440000F20FCF773FB0096059801900498029003956846FDF7CAFC00F015FA01F0E0F802
:20546000FCF789FCFCF714F9002000F003FACF4D0120603DA8706F70AF642846E775803049
:20548000477007700F20FCF751FB607C02281CD000F0EAFF064600F0EDFF0122314601F0F2
:2054A000F0FAFDF75BF8002001F01AF9FCF7A1FFA96E401AFA28F9D36775A775FCF799FF22
:2054C000A866A07C002839D04AE0607B401C607300F0D6FF064600F0D9FF0122314601F0D9
:2054E000D0FA607B022805D90320607467730020FDF7EEFAE07B01280FD0A07B002813D0A9
:20550000FCF777FFA96E461A00F0DAFF400037308642F5D3A773E773CEE7FCF76AFFA96E0F
:20552000401A7D28F9D3F5E7FCF763FFA96E461A00F0C6FF40008642F6D3EBE7E07C00281C
:205540000ED19A484038407A032803D098490498884202DB607C002802D00120FCF725FD2A
:20556000FCF747FF6860012007B0F0BDF8B58F4D0027603D68782E4680368C4C01282ED04F
:20558000FCF737FF6968401A502804D9607C022801D06F7021E03078002808D0FCF729FFE8
:2055A000E860FCF726FFA8600120687027E0607C022802D1A07B012809D0FCF71AFF6968B0
:2055C000401A64281BD9607C022803D017E06773A77302E06F700220A0730020F8BD607C86
:2055E000022802D1A07B0128F1D0FCF702FFA968401A1428CDD831783046022901D001202D
:20560000F8BD6F700770C37800246A4A2146CE00965D9E4206D1C90089184968C01C8847C7
:20562000044603E0491C89B20B29F0D3FCF7E1FE68612046F8BDF8B55C4E0027603E7078EC
:2056400034468034012821D0B078012806D0FCF7D0FE7169401A642806D808E0FCF7C9FEDA
:20566000F168401AC82801D9777043E0B7702078002817D0FCF7BDFEB061FCF7BAFEF0611A
:20568000FCF7B7FE3061012070700BE0FCF7B1FE3169401AFF21F5318842E5D82178204683
:2056A000022901D00220F8BD77700770C4780025404A2946CB00D35CA34206D1C90089183F
:2056C0004968C01C8847054603E0491C89B20B29F0D37770012C07D0FCF78BFE7061FCF77E
:2056E00088FE70652846F8BD0020FDF771FC0520FDF7EEF90020F8BDF8B52C4F787C022890
:2057000020D03D46603D68782B4E0024012825D0FCF76FFEA969411AE120C00081422BD88A
:20572000F878FCF766FEE969401AB04224D8294680310878002826D0C878032804D00428DF
:2057400006D008E00020F8BDFCF753FEA86102E0FCF74FFEE8610120687014E0FCF749FED7
:20576000A969411AE120C000814205D8FCF741FEE969401AB04201D96C70E3E70B4A203264
:205780001078022801D00320F8BD6C701470D6780020084B0146CF00DF5DB7420ED1D01C77
:2057A000C900C918496888470CE00000580F0020701700009C77000010270000491C89B2DB
:2057C0000B29E8D36C70F8BD2948407C7047284948747047264988737047254860380078E3
:2057E0007047234900206039487080314870087070471F48C07C70471CB5FFF704FD1C4CF3
:20580000603C2078012806D002280DD003280ED0FFF7D9FD01E0FFF7A9FE20700120FDF756
:205820003AFB012806D016E0FFF705FFF5E7FFF763FFF2E700210120FDF735FB684600F033
:20584000BFFA69460878497848406946887003216846FCF7CCFC00F0E7F90328D1D0002027
:20586000FDF736F900F0E0F90328FBD11CBD0000580F00207649087048707047744840380B
:20588000008B00B2704772490020403988620863C8610862FF234862F5334B610122CA62E9
:2058A000C860FF23C33308608B618860203108752031C8708A700871052048717047644960
:2058C0004871704762497D20C0004039C863604801212038017570475D4910B50246403931
:2058E00008684A6003465043C417640E2018C4111819C86310BDF1B588B00020694608700A
:20590000FFF700FA002804D0FCF75DFC002802D0002009B0F0BD4E484079FCF77CFDFCF721
:2059200068FD4C4C206002E00F20FCF717F9FCF760FD2168401A0228F6D30120FCF74CF957
:20594000434E0746403E30600020FCF745F907900220FCF741F905460320FCF73DF90090FD
:205960000F20FCF7E3F807980595039000980690049703A8FDF73AFA3846FFF70DFA01281E
:20598000C7D00898FFF7A8FF01A800F0BAFD6946888889794843642101F0B6FC074600F032
:2059A000A6F901B23068884203DA69468988814201DC081A06E0F16BB842FADB081AC10FD1
:2059C000081840107168002900D1002081004018C0100090204821492818884206D200F087
:2059E000F0FC3C2802D2462000F0A1FC0098FCF7AFFA0520FCF70FFDFCF7FBFC206002E0EC
:205A00000F20FCF7ABF8FCF7F4FC2168401A0228F6D30120FCF7E0F8074630600020FCF72C
:205A2000DBF806460220FCF7D7F804460320FCF7D3F805460F20FCF779F803A8049703967B
:205A400006950594FDF7D2F90F20FCF76FF85FE7D00F0020E40C00208FE8FFFFCF0700002A
:205A6000FE4908717047FD4800797047FC4800210177417781777047FA48816A490849002F
:205A80008162816A022291438162816A042291438162816A082291438162816A10229143D8
:205AA0008162816A202291438162816A402291438162816A8022914381627047E949C20725
:205AC00003D08A6A01231A438A62820703D58A6A02231A438A62420703D58A6A04231A4336
:205AE0008A62020703D58A6A08231A438A62C20603D58A6A10231A438A62820603D58A6A0D
:205B000020231A438A62420603D58A6A40231A438A62C00903D0886A802210438862704715
:205B2000D04A916A07231B0440079943400B014391627047CB4AD16AC02380079943000E07
:205B40000143D162704770B5C44B81079A780025C44CC026090E904205D0DA78042A02D21C
:205B6000521CDA7070BDE26AB2430A43E262DD70987070BD10B5BB4AD36A06248907A34345
:205B8000490F0B43D362D16A182380079943C00E0143D16210BD10B5B24A536A0324640630
:205BA0008907A34349090B435362516AA30080079943C0080143516210BDAA494A6A5200D4
:205BC0005208C00702434A62704708B5A54B403B5A6A0092012902D0002902D004E002435E
:205BE00000E08243684602800098586208BD08B59C4B403B5A6A0092012902D0002903D04C
:205C000006E0110C014301E0110C8143684641800098586208BD93494039096A014201D019
:205C200001207047002070478E48806A0004000E70478C498A6AFF231B029A430002024300
:205C40008A62704710B5CA07864CD20F030001F0F5FC0805300B11171D232937E0680121F9
:205C600049058843510529E0E068012109058843110523E0E0680121C9048843D1041DE07C
:205C8000E068012189048843910417E0E068012149048843510411E0E068012109048843AC
:205CA00011040BE0E068012252069043C907890904E0E0680121C9058843D1050843E060A4
:205CC00010BD68494039CA6B120C12040243CA63704764490A68120C120402430A60704782
:205CE00060490A68000492B202430A6070475D480068000C70475B494A68120C120402433C
:205D00004A60704757494A68000492B202434A607047554A10B51421801801F00BFB800535
:205D2000810950484038C26B504B1A401143C16310BD4C484038C06B14218001800D48435D
:205D400049494942401870474648C0683221C0B248433230704710B53221323801F0EAFAA1
:205D6000C1B24048C268120A12021143C16010BD3C4940398A6AD200D208400702438A6276
:205D80007047384A403A916A0F231B0600079943000901439162704732484038806B000249
:205DA000000E70472F484038806B000E70472D4940398A6B1202120A000602438A6370477C
:205DC00028490A6902700A691204120E42700A691202120E82700A69120EC2704A6902718E
:205DE00049690904090E4171704730B51C48817F09293ED2017F0A2901D300210177194957
:205E00000B69047F06225443154A203A13550B6906251B041C0E037F6B439B185C700B69A0
:205E20001B021C0E037F6B439B189C700B691C0E037F6B439B18DC704B69047F6C43A418BD
:205E40002371496909040B0E017F694389184B71017F491C0177817F491C09E0E80C00208E
:205E6000F80F0020405000F018F7FFFFFFFF00FC817730BD70B5F94C217F627F914201D1FF
:205E8000002070BD914201D9891A01E0511A0A31CDB206215143F14B521C203B6277C918E5
:205EA000062201F05BFA607F0A2801D300206077A07F401EA077284670BD10B5E8490A6900
:205EC0000378120A12021A430A610A69FF231B0244789A43240222430A610A691C02A24398
:205EE0008478240422430A610A69C4781202120A240622430A614A690479120A1202224310
:205F00004A614A6940799A43000202434A6110BD70B5D348016B090A09020C310163026BF6
:205F2000FF21090253238A435B02D2180263046B0A02032394439B04E4180463046B052534
:205F40002402240A6D0764190463446B240A24020C344463446B23258C43AD026419446312
:205F6000446B9443E4184463446B47252402240A6D0664194463846B240A24020C34846388
:205F8000856B91248D4324022D198563856B9543ED188563856B26042D022D0AAD19856355
:205FA000C56B2D0A2D020C35C563C56B8D432D19C563C56B9543EA18C263C26B1202120AE8
:205FC0009219C263A64840300268120A12020C32026002688A431119016070BD70B51546EA
:205FE0000E460446FFF794FF9D48642C03DA016B3170006B25E0C82C07DA016B0902090E48
:206000003170006B000E287070BD2146C839C82903D2416B3170406B13E02146FF39FF22C8
:2060200091399132914205D2416B0902090E3170406BE7E7192149018C42E5DB816B3170A2
:20604000806B0004DEE730B5854940314A680378120A12021A434A604A68FF24240243784E
:20606000A2431B021A434A604B682202857893432D042B434B604B68C5781B021B0A2D06BE
:206080002B434B608B6805791B0A1B022B438B608B68A3434479240223438B608B68934305
:2060A0008279120413438B608A68C0791202120A000602438A6030BD69490123022240399E
:2060C000002806D0012807D00228886A0AD0984304E0886A184307E0886A18438862886AB0
:2060E000904304E0400840008862886A1043886270475B4810B54038806B5A49001240B21F
:206100004843594901F016F900B210BD10B55448C0685449001240B24843534901F00AF98E
:2061200000B210BD4E484030C068C0B281004018704710B5322101F0E7F80006010A484827
:206140004038026BFF231B049A431143016310BD43484038006B32210002000E48437047A4
:2061600010B5322101F0D0F8C1B23D484038026B120A12021143016310BD39484038006B58
:206180003221C0B24843704735484038006B3221000E4843704732484038006B3221000441
:2061A000000E4843704701222D4952040028C86A02D01043C86270479043FBE701222849F7
:2061C00012040028C86A02D01043C86270479043FBE72348C06A800301D4002070470120AF
:2061E00070471F48C06AC00301D400207047012070471B4910B540390A690378120A120250
:206200001A430A610A69FF231B0244789A43240222430A610A691C02A24384782404224376
:206220000A610A69C4781202120A240622430A614A690479120A120222434A614A6940793E
:206240009A43000202434A6110BD0849192342185B0107499A420DD8C8800CE0F80F0020F3
:20626000405000F008520000FF0F0000B4FBFFFFE80C0020C888FE498A68120C1204024373
:206280008A607047FA498A68000492B202438A607047F7488068000C7047F5498031CA6AED
:2062A000120C12040243CA627047F14980314A6AFF231B049A43000402434A627047EC4AE3
:2062C0004032D3691B0A1B020343D361D069FF231B02984309020843D0617047E44A403223
:2062E000D1690170D2691204120E4270514081707047DF49CA6AFF231B029A4300020243D8
:20630000CA627047DA490A6A120C120402430A627047D7490A6A000492B202430A62704723
:20632000D3494A6A120C120402434A627047D0494A6AFF231B049A43000402434A6270471A
:20634000CB48016ACB4B8AB2B921C9009A4204D3026AC94B92B29A4204D9026A120C1204FA
:2063600051180162006A80B27047C148016AC14B0A0CC2499A4204D3026ABF4B120C9A423A
:2063800003D9026A92B251180162006A000C7047B748416AB74A89B29142416A03D2090C2A
:2063A0000904B74A08E0B44A89B2914206D9416AB922090C0904D20089184162406A80B262
:2063C0007047AB48416AFF220902090E12042029416A03D291430122520507E00902090EEF
:2063E000642905D9416A91431922920489184162406A0002000E70479D4A10B54032D369D3
:20640000032424058007A343800A0343D361D069A30089079843090A0843D06110BD944A3A
:2064200010B54032D369032424048007A343800B0343D361D069A30089079843090B084382
:20644000D06110BD8A4A10B54032D369032424078007A34380080343D361D06980008008F5
:2064600089070843D06110BD81484030C0690002800F70477E484030C0698002800F704772
:206480007B484030C0690003800F704778484030C0698003800F704775484030C069800F50
:2064A000704773484030C0698000800F704770498031CA681202120A00060243CA60704713
:2064C0006B488030C068000E7047694B10B5403B5C6B240C240404435C63586BFF24240445
:2064E000A043090408435863586B0002000A110608435863986B000A0002110A084398634A
:2065000010BD5B4940394A6B02804A6B1202120E82708A6B496B1202090E5118818070478A
:20652000534980310A6BFF231B049A43C3781B041A430A630A6B03791202120A1B061A43B8
:206540000A634A6B4079120A120202434A637047474A403253691B0C1B04034353615069CF
:20656000090480B208435061704741484030406980B270473E4840304069000C70473C48B8
:20658000C068C001C00F70473948C0684001C00F7047374A516A0323DB0680079943C008AE
:2065A000014351627047324A516A03235B068007994340090143516270472D494031CA6BF9
:2065C000120C12040243CA63704730B5284C4034E5682D0E0570206908802069000C10805E
:2065E00023488030006A000E187030BD20484030C1680D220902090A12068918C160016901
:20660000090C09046431016101691E4A89B28918016117488030016A0902090A016270479F
:206620000CB5002000900190FFF70FFE0020FFF729FE6846FFF741FC0D488169090A0902DA
:2066400081618169FF2212029143816181691202914381610020FFF74CFE0020FFF7ADFFAD
:206660000020FFF71AFE6846FFF75AFF0CBD0000405000F0660300000208000000006A04C5
:206680006A0400000000DC0530B505460B480C4641780023A94202D10178A1420DD045704E
:2066A0000470FFF7E9F9012D00D1C023012C01D1302003431846FFF701FA30BDE80C0020C7
:2066C00010B5FFF7B1FAFE490328886904D00005002803DA012010BDC004F9E7002010BD94
:2066E00010B50446FFF7A0FAF549032807D00120C0028A69012C0CD082438A6110BD01223C
:2067000012038869012C02D09043886110BD1043FBE70243F1E7EA4A9169EA4BC00319401A
:20672000014391617047E649C869C9694006400E090602D41421484370471321C94348431F
:2067400000B2704710B5E04A8021DD4C904201DD104607E0DC4A5242904201DA104605E088
:20676000002803DBE2698A43E26104E0E2690A43E261404200B2142100F0DCFD4006E16937
:20678000400EC909C9010843E06110BDCC494A6A80B2120C120402434A6270470122C849AB
:2067A00092060128086802D01043086070479043FBE7C34A403A51680423C0079943400F56
:2067C000014351607047BE4900B54039030000F035FF0A06090C0F1215181B1E222708684C
:2067E00001221BE00868022218E00868042215E00868082212E0086810220FE00868202295
:206800000CE00868402209E00868802206E00868FF22013202E00868012252021043086091
:2068200000BDA749CA6807231B069A4343785B075B091A43CA60CA6807230078DB0640074D
:206840009A4380080243CA6070479D494039486170479B4A403A012905D0002902D15169DA
:2068600081435161704751690143FAE7944940398861704792484038006970479049403952
:206880004A68C00752085200C00F02434A6070478B4840384068C007C00F704788494039D4
:2068A0000A6B12011209000702430A637047844A403A116B07235B06400799430009014306
:2068C000116370477E4A403AD16BF02300079943000E0143D1637047794808B54038C16BBA
:2068E0006A460902C90FD170C16B4902C90F9170C16B8902090F5170C06BC003C00F1070A7
:20690000009808BD01B56E484038C16B0122D20591436A46D278D207120A1143C163C16BA9
:206920000122920591436A469278D207520A1143C163C16B0F22920491436A465278120708
