:20000000000800203F10000071000000730000000000000000000000000000000000000085
:200020000000000000000000000000007500000000000000000000007700000000000000D4
:20004000074500000D45000013450000194500001F450000254500002B4500003145000098
:20006000374500003D4500004345000049450000FEE7FEE7FEE7FEE7FEE70020006880F3F8
:20008000088870470000380146656220313920323031390031363A32383A3534FE49C97A25
:2000A0004B09FD492039CA8B0243FC48002B02D0037EDB070CD08B8C1A404B8C1A434A84C0
:2000C00003D0027FFB231A4002770020C8837047CA837047F24881210180002101807047FF
:2000E00070B5F0498A88D243920706D0EA4A927F322A02D34009002303E0C200101AC00992
:2001000001233C2801D23C2002E0FF2800D9FF200A8AE54C120AC01E824215D0002B02D1C1
:20012000257B012D03D0551DA84200D928460A8A40252A430A820A8A4F26324000020243C7
:200140000A82088AA8430882237370BDD6480021803801734173D248012101800115818056
:200160000F210180022202810183042181827047CE4A108BC004C10EC7482030007B400064
:20018000401C1F2800DD1F20814200D2481C118B1F231B029943000201431183C14908885C
:2001A000072212029043BC4A4032927A5207520D104308807047BD494A140B8B002805D06A
:2001C00093430B83032803D9002207E013430B83032148400121400309034218B4480188CB
:2001E00007231B039943114301807047F8B54109B04A00290AD0202901DB1F2106E0937C01
:200200008B4201DA491E01E08B4200DD9174A24F4722BE7F12020E23B100D3561C31A34A4F
:20022000C918118223367D217043C90004F0C2F93C46A034A17C081A04D4E17C4043414357
:20024000481100E00020E18A0D18A08AA84200D205463003D22104F0ADF91F21795640195C
:2002600008189549884200D908462082F8BDF8B58E48008B4726C004C40E3602B08A009025
:20028000318B641C411A8D480D46604304F092F9854FC822403F788700982946504304F0B3
:2002A0009FF9FF219131081AB887F58BF08A291A8348604304F07EF980B2F88715216843BB
:2002C000614304F077F9192180094901081A00B28D225043C217120E73491018001208807C
:2002E000F8BD70B505467148008B6F4CC004403C617CC00E814202D06074FFF7B8FF714820
:20030000854203D83C21608F615E1FE06D48664A4030854203D30021E08F515E16E06948D9
:20032000618F40422B18E08F401A5843C617B60E3018801140180021515E3C22A25E891A01
:200340005943CB179B0E5918891189184543280C401800D5002070BD10B55B4A0021117088
:200360005149012440394B7A23434B72574903888B8043880B8183888B81C0880882B42013
:2003800010704C4820381081072090804E48022220380272037972B61343037162B64B488A
:2003A0002030027AFB231A400272088810221043088010BD00B53F48FB22417C11404174FF
:2003C000392138480902018281888908890081800188F022914301800020FFF7ECFE334925
:2003E000082088832C4880222038018C914301841046FFF753FE00BD2E4EA03E34464034D4
:20040000217A607A814201D130BFF9E7810089198D68002D0CD0401C0007000F6072A847AF
:200420000028EDD072B6284603F040FF62B6E7E703F05CFFE4E7F8B5174C203CE08B002811
:2004400002D00020FFF72AFE1A4E3221A03E3068401C306004F0AEF88446002955D1C007F5
:2004600008D11149C039486A002803D0421C01D0401E4862084D2035A87F2F464037002887
:200480002AD0401E0006000EA87725D104207873208C012108431BE020000020206C0040AC
:2004A000004C004000340040700400200030004020380040D0010020FF0F0000001A040083
:2004C00080920800DA020000206000400044004020840846FFF7E2FDE87F0090002814D018
:2004E0000A21604604F066F800290ED10098401E0006000EE87708D108207873208C0121AE
:20050000084320840846FFF7C9FDF64CA07B800704D472B6706803F0C9FE62B6A07B4007F2
:2005200009D5F148817DC07D814204D072B6EF4803F0BCFE62B672B6B06F03F0B7FE62B6A7
:200540000020F8BD10B5EA4C207A800702D5E94803F0ACFE0720207210BDE748E74A018995
:20056000511A0022825E8818704770B5DD49487A0C46403C002820D00025032805D0022875
:2005800006D0012804D04D7222E003F00FFC07E001F06BFF0420D449E072D9486039486092
:2005A000D148202220388572CE486038018C114301841046FFF772FD0AE0D2480179C90774
:2005C00006D00079C00603D40220E072CE488047002070BD00B5CD4800228280CB4940311E
:2005E0000A74CB490180C748082140388183C9490183C94981200880C84909200870FFF7BB
:2006000069FDB949C64860394860C6480178490849000170B3484038C2722038018C2522BE
:20062000520111430184A020FFF738FD002000BDBA480178422211430170BB49C0140860E2
:20064000BA49086070470188428851188288C08851184018A84900228A5E8010801A00D5AF
:200660000020704770B5A04D0023603D0AE04400641980342488260B964207D12405240D8B
:20068000E31840180828F2D3184670BDA84870BD70B5022211460020FFF7E4FFA54C924D01
:2006A000217B603D49000326800349193602000C89198882012204211046FFF7D3FF217BB8
:2006C000C00349004919000C89198884032208211046FFF7C7FF217B042249004919891983
:2006E000888308210720FFF7BDFF7E492039C880207B401C8007800F207313D120460C3857
:20070000FFF7A1FF77491F2240318A560B468018A03B9885201DFFF796FF1886201FFFF775
:2007200092FFD88583482038417A490849004172002070BD10B57849302008766A4800222B
:200740004030837E002B0CD00446203CE48E0C82047E0C75012B02D003F075FC10BD827651
:2007600010BD01230B8002736848018A0C229143018210BD014610B5684800896E4A401CA2
:20078000504303F017FF574980B220394881BE2801D9602010BD462801D8002010BD202048
:2007A00010BD504910B52039CA8AC0075400C00F04436048CC822038817B491CC9B2817312
:2007C0000C2908D3200903F07AFE2107090F884201D1012010BD002010BDFEB5424E032058
:2007E000603E404C00023018603C00902046C03001900B20494F800135183878400605D412
:20080000608E002804D13068012801D90020FEBD30680F2865D2297B687B8142EDD0410029
:200820008A190521C901401C51180007098D000F6873288A8C46401C80B2288204287DD99B
:200840006046698143002981002251000919C031098A6889CB18814201D2698103E028891A
:20086000814200D92981521C062AEED30199097F491CCAB20199062A0A7702D3019A0021F4
:20088000117701996046097F49000919C0310882D80805216086C901401AA12802D3002054
:2008A0002882AAE72B896889191A0E297DD9009A00211173C0184108907C61454CD9002839
:2008C0003FD0907A00283CD0D17C002901D1022835D90020D0740120FFF763FF002854D121
:2008E0002FE06AE06000002090010020F942000000540040370400002047000031040000C8
:200900002D240000403000400110002000340040010A00003B3B000000380040003C0040BC
:200920006B050000406C004080E200E000E100E0FFFF0000500400207017000046E0012018
:20094000D074009900208872C97A491CCAB20099CA7227E0887450E7002806D0D07A0028FD
:2009600018D0D17C00290AD107E0012090740020D0749073FFF715FF0CE0022808D90020AA
:20098000D074FFF70EFF002804D06020FEBD0CE00120D07400990020C872897A491CCAB2B1
:2009A00000998A72052AD6D9D4E700980099007B401CC0B20873282803D9608EFFF7DAFE2C
:2009C000E4E7002088748872C87216E702280DD0002160464A001219C032491C10820629A4
:2009E000F8D3009900208874087306E708466186FFF7C0FEFE484089C008401E3881FCE656
:200A0000FC4801210170812101703B2101710F2101812121017070471CB5F849F64808604A
:200A2000FFF72BFBF6485A2101700025057109210172F44981810A218182F34901830821E2
:200A40008183EF49022020310876F0488580F0490180392109020182EE4801240480ED4975
:200A600081200880EB48EC4920300180EB48E9498078204320310871E948047418218182A5
:200A8000E849202008760877E6492031087008730874E54881B2E54803F00AFD3022E449F3
:200AA000E44803F0C9FA4B20000103F027FDFFF7A7FF03F010FDFFF749FBDF490620086045
:200AC000CE4980390860DD4804800321018041210176D7480838FFF73FFCD9480571D94C6B
:200AE0006572FFF77AFEC24F203FF872FFF7F2FA3846B0302021019003F0DAFCD048017A69
:200B00008907FCD5CE4A002120321170CC4802210172072201210020FFF7A4FD4003010C6C
:200B2000B348B34D4038403D818329462E46F87A40316036C035009120283BD0602848D0EC
:200B4000FFF748FDC148C0498167C148017DA84C403C2170017C6170007EA0700120BD49D5
:200B6000E07001C9606020460C22B03003F064FAB84908221031284603F05EFA422060816E
:200B800000990D2008730220B0720F20B87720464021E0300174FF219C31603881829F49B6
:200BA000AD4B8A889A4244D0CA88C2820A890283897A43E0A548A9494160A949C167A948DC
:200BC000A0649C48A84981613020F0720020F8752CE09E48A5494160A548A0649548A549DE
:200BE00081610024F4721022A349019803F024FA00984089BE2802D2A87F001DA877854876
:200C0000203001887322C9B212028918018081499A48888003200881A87F06225043C01C97
:200C200088814D2008800F2008820C75FFF700FD88E7C821C18292490183852181760125CC
:200C40000577722141770C2181770E21C177FFF784FC67496031C877FFF709FB78488021F0
:200C6000017088480570812101700D2101708549952220310A80FF218182032109020182D7
:200C8000002101716C49612008605C4980390860208C2021084320847B49A184F97A0029FC
:200CA00002D179492031A1840121890208402030FFF7F4F95F4875494160FFF79DFB4C48D9
:200CC00010B54038C18C724A0A4002D0038C93430384428C464B8A434284203BDB7A1B0702
:200CE00005D5890403D55949564B096899660021C184002A05D14B482030017F04221143BF
:200D0000017710BD10B5414800228088000700D510223B48808B0821C004002800DA0A433E
:200D20005C488389DB060CD5042380891A43800607D52F4803232038C3762030C3890B433A
:200D4000C3812B4B1C24403B188C01462040504004D0A14311431984FFF7A0F910BDF0B599
:200D60003748027A01790A400272D1071AD00179490849000171002101740170334B6033E0
:200D80005D7D40490224052D09D00E7904252E430E710E8AC127BF00BE430E825D750B79F9
:200DA00023430B71910779D526493B4C4B7A1A0775D5264A0F6D80321688BC463605360D89
:200DC000F61997884D6D3F053F0DF61917893F053F0DF6190E65B6465688D7883605360D23
:200DE0003F0576193F0DF61957893F053F0D57E040000020003C0040FF0F000080E100E0F3
:200E000000300040051D00003B23000000340040010A000000380040103000006047000004
:200E200060400040006C00409C04002000000020941000000001002080E200E000440040BB
:200E400000600040300400209B130000300100206058004084000000FFFF00008312000090
:200E600091060000D3420000350700008F22000065200000AD4300001C240000ED02000035
:200E80000E0B000000640040418700004505000021830000204800402060004026E02EE063
:200EA000F7194F65D28916056B4A360DD6805A0709D5CA6D6515521CCA65AA4217D3FA222B
:200EC00013404B720CE066467246760A921B0A656A0ABA1A4A659A0709D55A0852004A7230
:200EE0000179FD221140017100202070F0BDB42020705A480188102211430180F0BD01797C
:200F0000FD2211400171002020705548C06F03F0CDF9F0BDF0B5534A908A118A0840FF21AE
:200F20009182C62104464E4B0C407021C95ADD6E02266033002C25D0C42420400024002819
:200F400008D0107930431071202003F0D7FA0620587507E0587D042803D1107B6918203924
:200F6000C8775C7501201070032000021082FC20107714713C48047004740179490849005D
:200F80000171F0BD364CC7074034648E002F03D0200A10735E75F0BDC006FCD5587D0228B7
:200FA00012D021201071FF20C33010822E4840220270902202740583891E818201210172B0
:200FC00002790A430271F0BD147303205875F0BD00B526490F20088325488069002802D0D7
:200FE00003F064F900BD0020088000BD21497F2088822148C1780A060AD41E4A203A127E8A
:20100000D20605D580221143C1701C4A02211174C17809090901891DC170704700B51848F1
:201020000178490604D541210170164803F03EF915480179C90701D01021017100BD0820B4
:2010400003F05CFA10480178490602D50179C907F9D0FFF7E1FC0000400000200044004086
:2010600030010020006400400060004000500040B0020020406C0040700400204034004045
:20108000003C0040D50500004030004007070707070707075F0D000057450000694500005C
:2010A000D10F000079000000150F00004F45000079000000ED0F00007900000079000000B8
:2010C0001D10000010B5E248007C00F0E7F9044607281AD8DE49621C1031DE4802F090FFB0
:2010E000DC480C21113801740069DB490840DB49884207D1D74891380068002800D1401E9F
:20110000D7494864204602F0F6FF10BDF8B5D04C8034207F2646401EC1B22177D048403E62
:201120000090002917D02046008C08291FD38A0710D12246C03AE38B958D5B199BB2E3836F
:20114000128E801880B22084082903D11909E18300092084F8BDC079C107FBD10007F9D5F2
:201160000320F072707A202108437072F8BD0629FCD801212177FFF7B4F80546B9480088AA
:20118000000BC10705D04007800F0A21401C48434519E08B152169434843070B0020E083F4
:2011A0002084072138464907084303F063F8AE488188012904D0AD498D4203D9052005E054
:2011C000002003E000880006800F401C6077A04C0006C00D403C00196030017C7943CA09CC
:2011E000112141560A204143881800D50020B087009A0121917196492039897F322904D37C
:201200009349A031097C4143C8099949884200D90846C001974903F0CDF9054693488D491E
:20122000BA30113908828D74012002F064FFA586F8BD884800B590491138016141214902E3
:20124000818200218175052002F055FF00BD814800B58A49113801827D49403949890A0A0A
:201260001202123242820175642141758449CA7B82750A7CC275497C0176072002F03BFF4C
:2012800000BDF8B57F4801782022114301700178DF2211400170724E707A002802D17A48FA
:2012A000FFF75AF86B4C0F34207B002863D1E07B25460027603D00281BD0401EE073A87A85
:2012C000032858D372B6714802F0F0FF62B6207CE17B401E81424ED16148403887820782F3
:2012E000607C800647D45F48018882149143018041E07771A87A0127030003F085F9090680
:20130000151A313C343C373A3C005248913800681D2830D9082020744E4832211138816428
:20132000AF7202F0B4FF26E0FFF791FF0220A87221E0474840214038028C0A430284428C87
:201340000A4342844F482038017FFB22114001771E202074FFF76DFF0320A872B7710AE0A2
:2013600000F079FB07E000F062FD04E000F09AFB01E002F02AFF0020F8BD364800B50F3027
:20138000417C0A0703D5F7221140417400BD082211434174FFF70EF800BD70B5FFF7B2FC16
:2013A0002B4AD489002C51D00020D081104621044030002903DA417A082319434172E106D0
:2013C00003D5417A042319434172E3070121002B02D0437A0B434372A30526D52C4B10252C
:2013E0001E78282E02D15B78002B0DD0037ADE0713D00222427316484038028C0A430284FE
:201400000120FEF74BFE10E0027A0A430272417A294341720321817207E00B4303728172B2
:20142000417A29434172507FD077A00601D5FFF746FC200702D50A48806C8047600701D5C8
:20144000FFF7EAFAA00701D5FFF797FF002070BD40000020C101002000FFFFFC0028062CC6
:2014600030040020203800400034004052030000E8260000881300000C510A000C7100002A
:2014800020470000406C00409414000019180000000800203231320332313214202801D29C
:2014A00001207047802803D220380011801C7047E02803D28038C01008307047E03880101F
:2014C000143070474107890F03290BD1010703D58009022804D005E0000903D00C2801D8F4
:2014E0000120704700207047F0B5FB4AFC4E107F34460025F94B803425280CD0FFF7E2FFE3
:20150000002815D0107F217AC0074907C00FC90F884237D034E0F248517F8030CF08007AE6
:20152000002F13D0012F16D0022F14D0052F01D0022014E0282018705D70E580A5802220EA
:201540002072607AEF210840607219E02021E57208432072F0BD368CB60502D50120E07213
:20156000F0BD1970927F49075A70490D0423091DE3805118A18002210843FB21084021E0A7
:20158000E572F0BDD449E0884031CA7B811889B2E180A788B9420DD9607ADF2108406072D3
:2015A00010206073308C0121084330840846FEF775FDF0BDC84918181D3102F021FD207AB0
:2015C000042148402072DBE710B5C54C208C00041CD4C1484030C17B491CC9B2C17304299E
:2015E00001D90421C173CAB2BB49BD481C31583002F006FDBA4802228030417A11434172D1
:20160000218C900301432184FEF748FD10BD30B5B34C803461882088814202D30020A072A7
:2016200030BD451A042D00D90425227A2801130701D5072300E00623184308235A4022728F
:20164000A54A20321074A5482A460918A248313002F0D6FC608840196080A1484030017F3E
:20166000817730BDF0B507469B4C89B04034A079F90100908E469A49974E4A8EB18A01911B
:20168000317F8007A57B8C4600285CD06046400871460843C0B23077002D0CD0072D13D3A1
:2016A00002210422FF2812D0002845D0552845D0332845D0A3E0104648214843894902F008
:2016C00079FF01994018F0826D1CA573A2E0009880072FD5824D8035287B002805D001289B
:2016E00020D0022824D0032824D17D4800264030C6777B49FF200A8C013002430A84FEF7B2
:20170000CDFC287B0028687A04D0CF21084068722E720FE0EF2108406872287A4008400082
:20172000287207E06A80287AF72210402872A972FFF76DFF012004E0E17160E0E2715EE0F4
:201740000820E0715BE064484030C17B407B002D14D0614A1C32092D23D00A2D52D3002F04
:201760004DD00023A373002838D088423AD91046891C02F04EFC002838D040E0002F3ED141
:201780000123A373002801D00B1A9B1C5820584308305043534902F00DFF01994018F0825E
:2017A00038E00A21A173805C02F03CFCB84226D0A07900282ED1607B00282BD0E17B884278
:2017C00028D3FFF701FF46486021408E4843454902F0F0FEB18A4018F08210E06046FFF7B1
:2017E0005DFEE073607B401C607313E0A079410701D51020A5E7000701D5FFF775FE0120E4
:2018000009B0F0BD815C7346490819438154A07B401CA0730020F3E7F8B52F4D3248298A70
:201820000026324F814209D1E88A411EE98203D3387C401EF873F6E0FE73F4E02848264CD8
:20184000A98A403040340090002909D1E6716673A6730F20E88226493F200881FEF776FC3E
:20186000A6E022495000A03940180521C9014018018D521C1007000F6873288A401C80B271
:201880002882032838D8012806D06A8A511889B26982032805D105E06E82E672A672A67481
:2018A000E67485E0491C48080D49688248866031897BC90701D1FEF713FC698A0D4A4808D1
:2018C000801802F077FE81B2009801810448C28A91426DD9C1826BE0F00300200008002042
:2018E0000000002070170000FFFF0000D0010020003C004000DC0500F848C27906209307BA
:201900009B0F9840801E52076A8A03D51018884203D320E0101A88421DD9E07A401CC0B2A8
:20192000E0720A2853D8A07C002812D0A07A052801D9002005E002280BD9E07C002806D044
:201940000120FFF78FFE002841D1E67401E00120E074A6722CE0A07A401CC0B2A072A17CBE
:2019600000290CD0E17C002903D005280CD9012002E00A2808D90020FFF774FE27E0E07AF8
:20198000022801D90120A074E07A052801D9002005E002280BD9E07C002806D00120FFF729
:2019A00061FE002813D1E67401E00120E074E672287B6A7B904200D053E7387C401EF873D3
:2019C000A88A401C80B2A882E98A88422BD9FEF781FBC3482882A6716079002801D0162097
:2019E00000E005206071E079002801D0607911E0E88A0F2804D9A98A401A6179401809E0C7
:201A0000A88A3A7C0146001D904202D2C8B2101A00E00420E882A88AE98A4218397C8A4242
:201A200001D2081AE8820020F8BDAC4800B50C22AC49303002F000FBAA49A84810220C3107
:201A4000303802F0F9FAA548142180388177A6496C20088200BD00B5FFF7E7FF9F49032009
:201A6000A039086508468030417A0122114341729E4902224A75014620226039CA729C4930
:201A8000816241629C499B48C8819848A0380168803041640164826C891AC1630521403881
:201AA000817200BD00B5312002F0BEFB02F09FFBC1B2002002F0ADFB00BDF0B58748403863
:201AC000807BC00601D50020F0BD844883492030A039008A898D421A02D50124504201E076
:201AE00000241046C10884480023603000290BD0C3758375082202757F2900D97F21002C02
:201B000000D0494248B2F0BD857DAA1856B28675C27D521CD5B2C575AA07F0D1027D9642C5
:201B200002DD0121002404E05742BE4207DA01210C460C2D01D3521C02758375DCE7C375C9
:201B4000457D6D1CEDB24575202DF6D94375042AF3D9521EF0E7F0B5604C6849A03CE08D81
:201B600085B04843000CA087A08D604F4843010C20464030A03F019001803D46803538685F
:201B80005A4EE863707C41072046C0300290002954DA208EFEF7A5FB019900908880204604
:201BA00060300390807BC00745D1608EFEF798FA0098FEF71BFBB07C042805D250498A8838
:201BC000920709D5012206E0042805D94C498A88920701D403228A80FEF7EDFAB17C0A29FB
:201BE00001D2002008E00F2901D2012004E0142901D2022000E00320414A1288F0239A43B0
:201C0000800102433E480280072901D9162100E006213B488181818802888901D2081823F7
:201C20001A4000881143400906221040014303980173FEF79DFAFFF740FF1BE0FFF73DFF6C
:201C4000717C0A0716D40298A28D008A824205D838686A6C801A2B4A904209DB0720014302
:201C600071743220A86438682838E86305B0F0BD372007E0411D0A2902D9717C090701D5F7
:201C8000962100E03221A9641B49144B40314A6C803B002A38D03E68B21A164EB24201D9D2
:201CA00000224A64134AA68D263A964206D39A7F2D2A03D2002801DA002034E0032832DDFD
:201CC000E28A019C2489A2422DD114468F3C082C02D9B83A082A26D8032024E0A00000202F
:201CE000FFFF00004820000000300040D0010020040A0A00DC050000F0030020802005006C
:201D000000340040B80B0000029AC54E128AA48D9219944215D90A7C082A02D338682864E8
:201D2000A4E7521C0A74C322920098752A82A874002801D0012048710120087202F0DBF9AC
:201D400094E70022EEE700B5B6490C220A7415224A748874B44908208871B4480321C1724F
:201D6000012002F0C8F900BD00B5AE490C220A7425224A74020A8A74C874AB490220887120
:201D800002F0B9F900BDA84810B52038007CFFF785FBC4B2A449A348621C1039113002F09B
:201DA0002FF9A0480C2101749F4902208871204602F0A1F910BD9B4810B52030417C0124D5
:201DC000491EC9B241748A079948002A03DA818B2143818310BDCA079649028B0BD08A43CD
:201DE000092109025118018393488480018830229143018010BD8A431B21090251180183E4
:201E00008A4880228038018C114301841046FEF745F98A4801782143017084486038C07AE9
:201E20006028E7D17F4805214038817210BDF8B57C4A2032507C800702D0FFF7BCFFF8BDED
:201E40007A484030017F002902D0FFF75FF9F8BD7449744D744F803909682E6C403F0E231D
:201E6000FB5E8C1B9C4203DB296448210177ECE76E4C607A870705D5FD210840607202F03F
:201E8000EFF9F8BDC7070BD0517D002902D0491E517502E0400840006072FFF713F9F8BD13
:201EA000420705D5FB210840607202F0CFF9F8BD020713D5EA6B8A1A642A0FDA711AFF224D
:201EC000C9185F32914209DDF72108406072554806214038817202F0B1F9F8BDFFF7EDFD45
:201EE0005249302260398875617AC01D0A400E2802D9FFF730FEF8BD5148002A70D003234A
:201F00001B02C018037A002BF3D0002610270672302A05D1207AC00601D5202200E01022D2
:201F2000D306424A0125803AEF20002B33DA134640339E77237A3B432372A77A002F0BD059
:201F4000012F0ED0022F1BD0032F1DD00140580861724000207230E00020FFF705FF26732F
:201F6000F8BD3849487809780002084346BA3046FFF7FAFE7005400D2573001D2080F8BD6D
:201F8000FFF701FF022004E00520C002FFF7ECFE03202073F8BD237ADF2603402372E07A3F
:201FA000002812D001282BD002282BD003282BD03140FD206172034023726573108C284390
:201FC00010840120FEF76AF8F8BD980616D598070DD5E088A188884203D10120400201E0C3
:201FE00016E00120118C01431184FEF757F8607ADD2130406072207A08402072FF2004E07F
:20200000002002E0552000E03320FFF79CFEF8BD0068E96B401AA96C884200DB69E7F8BDFC
:2020200049020000B0010020300400208000002000300040001F000000340040406C0040A1
:2020400030010020000800209204190CEA000D00140D0000965A845A963E963D963CA02825
:202060001400000072B6DA480179FD2211400171D74962B6002020310870D64801210180C4
:2020800003210180D549D4488880D548082181727047F8B5002105220846D201D04B4400F4
:2020A000403BE3189B181B8D401C59181028F5DB0803010CCB4CCC4A48086186801802F074
:2020C00079FA264640363081C548807A05287DD12046008EFEF705F92146B08060310091D8
:2020E0002546897B2C46C907E034C03500295BD1FEF77CF8BA4F6037B87C022808D2F18A15
:202100000905C90E052903D1298AFF3125312982A97F8008081806214843B049C01C888194
:20212000B048408EFDF7DCFFB87C052805D2AF498A88920709D5012206E0052805D9AB4949
:202140008A88920701D403228A80FEF734F8BA7C0B2A01D2002108E00F2A01D2012104E056
:20216000142A01D2022100E00321A0480388F026B34389010B430380297F891A00D500210C
:202180006A7F23794900D21851186983818802888901D20818231A40008811434009062259
:2021A00010400143009801738E482B8A878D90485E1F00210211B74219DA6356002B0EDB9E
:2021C00009D0462B0ADD5923DB4300E03FE023703C23EB7703E0E87F401C20701046637979
:2021E000002B27D061716178491C617022E06E8B21709B19BB4216D2E97761797D4800298F
:2022000004D1012161716178491C61707349898BBB22D200914211D97D225201821A914249
:202220000CD200230BE06E4940390978CB014B4059B208186949898B9042E9D10C236B4A49
:20224000118A0C24A1431943118264498880F8BD10B5FEF71DFA6848FEF77EF8FFF719FF7C
:20226000002010BD5E4900B564484039C8675D480F21203081776249582008825E48FEF75C
:202280006BF8604940200881FDF760FF00BDFEB553480090877A52495248403102910146DA
:2022A000C0310A8A01924E4A868D403A1446A0341568627CE0303B0002F0A6F90604162636
:2022C00088884088D00604D4102002436274FFF7C9FF4348403800681E2877D902F095F8EF
:2022E00000980121817271E00120000385426DD93C484030C08A0005C00E052801D1424815
:202300000882029805645EE0930702D0FFF753FD5CE0019B9E4206D2029B1B6CEB1A7D25E5
:20232000ED00AB4206DB07231A4362740022CA8442704BE029483549818047E0334D019B05
:20234000A43D5D19324BAE4219D91D7CFA2D03D9224B81251D8001E06D1C1D740023C35644
:20236000002B01D05B1C03701E4B4578E0331B79052D06D90025CD84457018330FE000250F
:20238000EBE7CD8C4B266D1CADB2F600CD84B54208D90025CD844570042B02D91B1F0371B7
:2023A00000E0057150070CD5E07B401CC0B2E073FA2803D30020E07302F001F8FDF7D8FEF3
:2023C00004E0100702D40099022088720020FEBD0060004000440040BF5D000000380040E4
:2023E000700100200000002000DC050000340040DF2E00006F170000142400005122000099
:2024000000300040003C0040B6050000ED020000300400201211120312111204F3041E0844
:20242000240109000F0DC30012300E0010B52D480022407A02280AD0012808D0FF202A4992
:202440000130086029480272FEF7C4F807E02849C878030603D5030703D0401EC870002041
:2024600010BD24480274CA70F9E710B520480021C170214801210180812202801E4A8820D3
:20248000203210711B4A4802403A90801B48108030209081174820388183164B1981184CC2
:2024A0009480104C647A022C01D01C7410BD154B138381818182818091830A210182018330
:2024C00001810180FF210231818308487F218182402101720C49801508600349803908601C
:2024E00010BD00006000002080E100E0406C0040700400204034004000380040F30A0000A5
:20250000030200000550000080E200E0FC4910B50020C8640A46C8678032D0624031D065C0
:202520004887012353850B46022280335A83032240335A810872487210BDF2491C208882D6
:20254000F148A5210180002101757047ED48818A072212029143ED4A137C1B02194381821A
:20256000517C08020843E7494039088188817047E74806218172403801688030C164E0491F
:20258000C87A420702D5FB221040C872DF48007F002802D1DD492031C870DE480122018C0C
:2025A0001203914301847047DB4A41088A1810B50146104601F0FEFFD6494031088110BDB0
:2025C000F0B5D449D54AC031084620308C8C80796043000A01239383497F002926D1CD4B93
:2025E0006108C0331B7F884201D3002005E0CD1A081A2E1F864200D2281F03256D03641EF1
:20260000C64F2C43203F3C839C1C94818C1C1482022595821D191583851C5E19968041187A
:20262000891C1181BD83181800191080FF2002309083F0BD70B50446B1480021C173014635
:2026400020314879002804D0401E4871052C00DD0524B048B24A40300188914205D2012165
:20266000C9438C4208DD0C4606E0AD4A5A32914202D2022C00DD022422224188825EA5482E
:20268000891A6030007808264843C511A148038E0246C91A128C00290ADC49420909491CAC
:2026A0003243494202844CB20820FDF7F7FC0AE098490822098C9143AB42018403D9002CAF
:2026C00001DD012407E0002C45D004DA61427F2902D97F2100E021468E4DC035AA8CE88A6C
:2026E0002B462033824219D98E4E8908715CFF26D536B24202D9012900D94908002C05DBC7
:202700005018A98A814205D2084603E04418944200D2501A80219971A88417E0042901D811
:20272000012200E04A089E79002C09DBB11880290BD980398908891C4018A884802104E0CF
:20274000E97C8818B04200D2B11A9971FFF738FFA88CFFF729FF70BD30B46C4AD37D5B1CCE
:20276000D375034620331C46DB7B0B43E373002101601046C038007B012828D81046A03877
:20278000007F012823D810466038007B01281ED810464038007F012819D85D48807A0428DC
:2027A0000AD0104620304278521C52B24270052A00DD417030BCDBE6D07D032807D9507F2A
:2027C000002804D13220507730BC052032E730BC70474F4806218172403801688030C164AF
:2027E0004A49002020314870704749484030407C411FC92900D3ECE74649E03108727047E0
:202800003F48407A010908290BD101074048090F4030C27C5207520F914202D1417C8A095A
:2028200000D0D6E78A063B49920EA0318A71027D4031D30852078B72520F4A7234490422AA
:202840008A72344A0021203291752D4A20329171E03251772032917051702D49403909686C
:20286000C1630164704710B52548417AC02902D0FFF7AFFF10BD80214172254925480822A6
:202880005131F83001F0BCFB10BD70B51C4C607A002802D0FFF79DFF70BD1D481D4D4030BA
:2028A000417CE0356974408A294640BA20394886422803D115490120C031487314491548EC
:2028C00004225431F43001F09BFB287D000601D5C02000E08020607270BD0D4810B5403038
:2028E000017C28292ED1427C803892211923095C5B01C0180C2A17D0012A21D022E00000D2
:20290000B00200206040004000740040B0030020700100200000002060EA000020340040EF
:20292000B8100000D43E000000290BD1FE4902220A7400224A74817B10221143817310BDAC
:20294000002918D0F84C403C208C0004F7D4F748C17B042901D90421C173F348CAB2F4495C
:20296000183001F04DFB218C0120C00301432184FDF794FB10BDED4A4032D17B491CC9B237
:20298000D1730329F6D2017E01221143017610BDF0B4E748062150388172E4490023603967
:2029A000FF304B704130C27A04242243C272FF38813802688030FF32F532C264DA4C407C55
:2029C000203C0A46203AE076092803D2D94E4500755B5562012808D0CB785B1CDBB2CB701F
:2029E000022B06D9082802D003E0CB7001E0D2485062E07A0A2801D0F0BC6EE7F0BC70473D
:202A0000C94905220A744874C84810222030817B11438173C44801222030C17B1143C1732A
:202A20007047F8B5C148826D416D006D8918081A0D210907401801F01DFCBC482030007BED
:202A400000280ED00421B848A030427A5118B84AF032127A511A00D52C31847A002C02D00D
:202A600002E00521EFE70124081B00D52C300022AF4E1546903E0AE083009B19C0331F8BF9
:202A80005B8BBA185D19401C2C2800D300208842F2D12146104601F08DFDA34E0746B08032
:202AA0002146284601F086FD0146A448BB094843020C7809C018328080183246403A908791
:202AC0004F43F800C01B000BF8BDF8B59848964D90380168803000900164FF300121013009
:202AE0000173A035687C112843D3E8787F2840D0FFF797FF294620398885074600982039A4
:202B0000407C89792C4648437D21C9004843060A603CA6871020205EE17B381A48436421C3
:202B200001F05EFD381A618A801B411A0320285628225043081A21462039097A022900D335
:202B400000207B4990390A680099C96C511A7C4A91420EDD754B0024603B002808DD9878FD
:202B6000401CC0B29870032803D92720FFF748FF9C70F8BDFEB56E4FF037B87A401C000608
:202B8000000EB87206D169496039C878002801D0401EC870664E644C503E304640380068C4
:202BA000354686464035403C687C23465F4AB17A8446E033287C403260340193042904D0A0
:202BC00002297DD003297CD00DE17D218901F982564E55492036203903281ED004285BD013
:202BE00033461B7E02285AD005286BD00F287AD0182867D0192865D028287BD029287FD05E
:202C000038287DD001286AD00628FCD05128FAD07128F8D08128F6D0E5E011202856887526
:202C2000484A0092002809DD9279521CD3B2009A192B937105D31923937102E0009B0022CB
:202C40009A7118228A56904209DB6078401CC0B26070497E884204D34020FDF71FFA00202E
:202C60006070334890380068E8630120F8730198017A0098C171307EC1070FD04008400047
:202C80003076294828494030027F0A74407F4874B07B102108432BE0FFF717FFA3E0507BB6
:202CA000C0076FD06046C87606286BD1E96C7046411A1D487D222030D200007A914203E004
:202CC00042E062E01CE00EE00ADC401CC0B22072022802D301200343337684E00AE07BE0A8
:202CE00002284FD37FE07046E863B07BF7210840B07378E06046182802D1A87C012802D04A
:202D0000FFF7EBFD6FE0102003433376002090730A20C872FFF73CFE054890380068E864E7
:202D20002020FDF7BBF95EE04000002030040020C0010020F43E0000FFFF000080B5010072
:202D400070170000D0020020012802D0022819D042E06046D871002078720321B172FE4943
:202D60000B7C4D7C1B016D082B430B75FA4B714680339966019905230B7220725073D073FF
:202D800031E0FFE7FFF704FE2DE071280AD0812813D0512814D0062815D0002815D005288E
:202DA0001AD912E0ED4901200A8CC00202430A84FDF774F9FFF769FD15E0FFF754FD12E0C1
:202DC000FFF71EFD0FE0FFF710FD787A401CC0B201097872082902D0FFF7FBFC03E0000762
:202DE000000F0728F8D80020FEBDDB49087C072801D2401C08747047D749087C002801D014
:202E0000401E0874704730B5D34CFF23A289E1891520C333002520568A4208D9511AE5742F
:202E2000994208D9022804DDFFF7E6FF09E0E57403E0801C08E0642907D2811C03DAFFF771
:202E4000D4FF65750BE0801E607515202056002801DD401E02E0002801DA401C6075E17DE4
:202E6000A07D8900628B4018D108FF2800D9FF20884214D0884202D9637E5B42637610189D
:202E8000401A6083607C617E4018C0B26074022801D2022002E0202801D920206074A5754B
:202EA000E575FFF753FB0020A581C043E08130BDAB49002008804815AA490860704700B51D
:202EC000FFF7F6FFA64918206031888200BD10B5FFF7F5FFA44981200880A44900208880AE
:202EE0004A15A24940398A800A8802239A430A809F498A8B520852008A83974A0A21803273
:202F000051729C49954A0874944940310881118C080509D510462030C07A0A2804D09802CF
:202F200081431184FDF7BAF810BDF0B58A4F91B00D1E044611D03946C039201D0591032D35
:202F400016D0A278E9B2002A42D0072A3BD940212046FFF701FC11B0F0BDB87D401CB8756F
:202F60002078012801D90121F2E700202060F2E7059A01219172A278002A1FD00022227394
:202F800015460226A278521ED2B2A270135C012B08D0237B002B08D00023AD00AD1C23734B
:202FA000B61C05E06D006D1C01E021736D00761C002AE7D1701C4008E07001E000250226BC
:202FC0000020207312E01154A078401CA070C2E7012D0AD02078012821D0207B002823D04A
:202FE000002001252073022600E001262078002802D06078401C60705E48617860380E907E
:2030000006297AD901203877786A002875D052480021203041700E99062088729BE70120E9
:20302000A07021710599F8E7012020730025DCE7E807C00F049020786D08761E002808D0E2
:2030400001282BD0022859D0032863D00020207041E1049800281ED06078401CC0B26070A1
:203060000428F5D301202070F97C002904D1F8740020B881401EF8810B98C07A0A28E7D1D5
:203080000A98807B0028E3D109981021007E0843099908761FE1002060701CE1049800284B
:2030A00004D060784128D3D902212BE0032020700021A1736173E173079841822D48E278E0
:2030C000A0380068801A089A10650E9A927A022A02D1089A5438D0640B98C07A0A28B7D153
:2030E0000A98807B0228B3D209981022007E1043099A10760A988173EDE0D2E004980028DE
:2031000004D004212046FFF727FBE4E0032020700020C4E0607B082809D2A07B0199049AC4
:20312000415C4908D2011143019A8154B5E0082826D00498002874D0A07B019AE17B825C57
:203140005140E173002830D0009A127B904269D1002969D010210FE0B003002000000020BA
:203160000040004080E100E0003800404034004000300040D00100202046FFF7EDFA84E05A
:20318000A17B0198085C00F04DFF01460498814201D008217EE0A07B00287ED00099097B2E
:2031A00088427AD10126354677E00D98807B400604D5FB480178402251400170207CFEF791
:2031C0006DF90099401C087302202070217C042904D10799097B0143079801730B98C07A70
:2031E0000A2852D1207C01284FD10A98807B022810D2FFF76CFEFFF75BFE05990020887285
:20320000E8480168089841650C9906200874079948733AE00B980821C1722020FCF73EFFA4
:2032200033E036E02FE0FFE7FFF742FE059900208872DC480168089841650C990620087468
:2032400007994873FFF7DFFDFFF760F900980199027BD448903000F0D3FE0098D249007B78
:20326000C87372B6D14801F021F862B60D98807B40060AD5CA49087820225040087008788E
:203280005040087001E002202070A07B401CA07303E020212046FFF75FFA607B401C607326
:2032A00019E0C14840300A90C148014660300D90BC482031A0300C90204620300090BD4879
:2032C000079020460B9110300190B64880300890B54820300990002E00D0A9E63BE6F8B5FD
:2032E0000520B04CC0012618FF34C134207A617A884202D10020E072F8BDAF48008AB28991
:20330000824200D2B081F289824200D9F0814800A44A491C8018FF308130058D0807000F9A
:20332000A44F60724C3708E0680704D5A907890F3846FFF7FAFD2D093037002DD6D0F3E718
:2033400010B59D48027803799B494039087E0F240C769B07410804249B0F21401943930622
:2033600009019B0F0B43014621401943130709019B0F0B434100214019430B019107890FF1
:20338000C0078C4C1943400F08434034217A854A49008918FF3181310885207A401C000764
:2033A000000F2072E07A002806D1844800F07EFF002801D10120E07210BD00B5FFF7A6F857
:2033C00080497F4848627C49142020318882FFF7BDF879480822403802710D2101726021BC
:2033E0000173754920390A71774A0A82774A8A82774A0A83774A8A83774A41151160774A48
:203400001160FF21017668498039897C01821021018000BD10B5664901200A8C00030243D0
:203420000A84FCF73BFEFF205F49F5304866002010BD70B56A4E6520B080FFF7C1F85A4C64
:20344000A07B401CC1B25748A173A030027E914206D9817E0025012910D000F0F4FDA573A6
:203460005048A17B8030C08EC840C2074E4950484039C030002A17D0098B16E003210174FD
:203480004C488573B5800120544940028031086047496031C87BC20705D040084000C8738D
:2034A000504800F003FF70BD498A818470BDFEB53D48404920300190807B002500285DD039
:2034C000384CC2062646920F8036A034002A2CD0327C042A52D0C10620460F3800900029B8
:2034E0000CDA33484030007CFDF7D8FF30490746421C5031009800F083FD03E0707CFDF744
:20350000CDFF07463574791C009800F082FD2549C91980318874FF1C27736573A5736576D0
:203520000220A07600F08FFD0FE0C20701D02E4806E0820701D52D4802E040071CD52C4890
:20354000F0860F2020760120A0760198184B8573154825748573C0334038998C1A46418264
:20356000203AD4790222A507AD0FAA4092B20283640705D5891804E0019885738D73FEBD4F
:20358000891A018399840F491A484862012012494002086011490860114905208880FEBD59
:2035A000406C00403001002030040020752B000000000020B002002040400040DF32000017
:2035C00041330000000100201D260000151D00000E1500002C10000080E200E000E100E07F
:2035E000403400401534000055550000333300002D2D0000333400008100FB4A091F89186E
:203600008B8DFA498000001F8B858018C08DC8857047F8B5F648F5498446406D8039C0019D
:20362000000CC8856046006DF24FC001000C8885397AEE4E8A00F049403E5118C0314883AE
:20364000EE494843000CEE493080884201D2012005E0EC49884201D2022000E00320E34CEC
:20366000E17E2546203D002906D06A7B824208D06873012903D004E0E07668730120FFF79F
:20368000BBFF6046416D806D09186046006D091A0091A18ADC4800F08DFF0099228B4843AB
:2036A000F188891AA27E514301229204891800F097FF2C21615EFF31FF3102314143C81758
:2036C000C00D40182E21615E40120B1800D50023287A002402281ED3C548F18C4030994294
:2036E00003DA018C491C018400E00484B18C994203DA418C491C418400E04484018CC34AE0
:20370000914203D8418CC24A914204D9048444843220FFF775F958119911401831884118EF
:20372000B248803881870386387A8100B2480818C0300383387A401CC0B238722C2800D332
:203740003C72F8BD10B5FFF750FBA9480821803841740121417600214183FEF7F7FE0020B1
:20376000C043FEF767FF10BDAA4A90800020108190811082A74B012020331870002909D0D6
:20378000092111801978C907FCD01080908A0005000D70471121F4E710B59F4881210180F2
:2037A000FF218180052101819C49818107220280018200240475FEF703FF9949012008810B
:2037C00097489849403801809149EB398180302181818948A0300474E0308473C47310BDBA
:2037E00010B58348002101654165C165417A0422114341728C48FCF7AFFD10BD00B5FFF713
:203800005EFB7D4805214030817200BDF8B577494039C88900286FD00022CA81810602D5DB
:20382000FDF74DFA67E07249C30720318A7B002B01D0102002E0830703D5012002438A7358
:2038400059E06D4C15235B01E3189E462646254623684206803640359C46002A17DA634886
:20386000724A8038018C4B0409D5914301846046F0640620A8720020714648703BE0114389
:203880000184A87A042836D1FFF7B8FF33E00206574F002A20DA55483B466038C27A403357
:2038A000082A02D00A2A0DD025E00A7E10252A430A76002199730A21C172FFF769F82068DA
:2038C000F06418E00821C172002098730620714648706046B8660EE0C0050CD5FFF7F7FA41
:2038E0005348818B012211438183787AFD21084078720520A8720020F8BDF0B53E4889B0EC
:2039000040300390827A394839492038089039486039403007903548374E4038059020382D
:2039200001903548324D00680091304906916031049120398036803D2E4C2D4F0291130063
:2039400000F062FE070520A4FAF9F8F71F00787AC00710D1796D386D1622411A0698825E10
:203960008818B8650898C07B800705D5082078720398052181726FE12D48818B490849001D
:20398000818366E10199C97A0929F4D00A2968D0F16C401A1E2857DB02D1264910208882F3
:2039A0000020254D00904CE028780821084328700098401C0090052840DB00210520FFF705
:2039C000D3FE0599497B09018142D4DA01980921C172064822228038018C1143018410463D
:2039E000FCF75CFB38E10000404700008000002030040020B00200203001002080B5010090
:203A00006A1800003A200000B083850030750000EE0200000044004000380040FFFF000083
:203A200040340040F3090000CC3E0000004000000030004060400040003C0040142000F09C
:203A40005DFD28780007AFD4FE48B96E0068401AFD49884203DB01204003FCF71FFBFA203A
:203A600001E00298C07BF749F26C09688A1A8242B8DBF16403980221817200206072A0727C
:203A8000F248818B012211438183E5E0607A002808D100210420FFF767FE0599C880607A65
:203AA00000281FD0C0B2022865D0142876D0E548F16C0068401A682859DB0198C07A0A2887
:203AC0000FD0287F002807D000984078401C41B200980629417004DB009900204870686230
:203AE000287789E008980025457002980299008A888405997D2209889201914202D90499CD
:203B00008A7B02E002998A7C04998A71FEF74CFD079885720198C07A0A2829D1CC490A7E15
:203B20000846D3062030002B07DB817B491C817306E089E0D2E067E056E0EF231A400A7642
:203B4000817B052914D38573009806214170BD4801220068B86601990820C872BD48D20269
:203B6000018C9143018441204001FCF797FA37E0FFF712FE34E000990120085600280ED0EA
:203B800000216182297C4200491C8907890F2974697C80180818C006C00E0EE014E00020DD
:203BA0006883012068760198C07A0A2809D0287D4106490F00072974C00E6874FEF7BDFCFD
:203BC0000EE00698C07FF3E7787AFD2108407872FFF7F3FB9F48008C400401D5FFF70EFE8B
:203BE000607A401C607237E00799897A002906D0316D401AAA282FDBFEF7BAFC24E0716DA3
:203C0000401A1628F8DA27E0316C934A8D4B411A914205DB217B03290FD1002121733064E2
:203C2000F16B8E4A411A91421DDB0098C078401CC1B200980A29C17002D8FEF799FC01E04A
:203C4000FEF7C7FD1868B866FFF741F904990020C871039901208872E07A40084000E072FC
:203C6000002009B0F0BD697F002901D0491E6977E18A002908D0491E0904090CE18203D169
:203C80000146FF3978393165316DFF22411A7832914202DB3065FFF755FD607B002808D032
:203CA0000121401E0006A173000E607301D1FFF7FEFB6B48C1790029CED0491E0906090E87
:203CC000C171C9D1A17B002902D00121C171C3E7019916200856FEF7ADFCBDE70006000E7F
:203CE000BAD1FEF79EFEFEF76BFC0298808CFEF75BFCB1E770B5554802212030018055496E
:203D00006031497A032906D05A210180FFF7DFF8FCF760FC48E04E4D203D687A082802D130
:203D20005048FCF719FB47480126A030017C0446E03400290ED0491E0906090E017409D1A0
:203D4000A17B002902D1E17B002901D0067401E0FFF733FBE07AC00708D172B6424800F0DA
:203D6000A5FA002802D1E07A3043E07262B635480078800704D1687A400701D4FFF749FCE8
:203D8000686E002810D0401E68660DD1314809212030C1722038018C2022114301841046BF
:203DA000FCF77CF9FEF715FD002070BDF8B501202E4940028880411E24480182818B01223B
:203DC000114381832A490183FCF71AFE1F481325203005804221017322491E4820223C31BE
:203DE000D03000F029F91B481C494030C8390246418073232032137096224284E1229200F1
:203E00008284AF229200C2840446642240342282E573618201467F2220390A764A766E22BF
:203E200042730848002540308572064F1148FD6778601148B86708467D22A030C273C038A5
:203E4000828C1BE03001002020BF0200003000405004002000000020D8590000A406000048
:203E6000D0020020CC3E0000FB380000003400407B1B0000F53C00000D380000114B082609
:203E80001A438284CE72018C2022114301841046FCF704F90C4938683A4688668032FA384A
:203EA000D0640A20487208468038603945624D70057446740F218174A17F0175FFF790FC77
:203EC000F8BD000002380000300400200203020302030504010204070C0E10121416181AE1
:203EE0001C1E1F202122232425262728292A2B2C2D2E2F3000006900D200B80B00000000C3
:203F0000FFFF00000000000096018033120296010000000005000000000000500000000059
:203F20000000000000004C00FFFFFFFFFFFFFFFFFFFFFFFFFFFFFFFFFFFFFFFFFFFFFFFF4D
:203F4000FFFFFFFFFFFFFFFFFFFFFFFFFFFFFFFFFFFFFFFFFFFFFFFFFFFFFFFFFFFFFFFF81
:203F6000FFFFFFFFFFFFFFFFFFFFFFFFFFFFFFFFFFFFFFFFFFFFFFFFFFFFFFFFFFFFFFFF61
:203F8000FFFFFFFFFFFFFFFFFFFFFFFFFFFFFFFFFFFFFFFFFFFFFFFFFFFFFFFFFFFFFFFF41
:203FA000FFFFFFFFFFFFFFFFFFFFFFFFFFFFFFFFFFFFFFFFFFFFFFFFFFFFFFFFFFFFFFFF21
:203FC000FFFFFFFFFFFFFFFFFFFFFFFFFFFFFFFFFFFFFFFFFFFFFFFFFFFFFFFFFFFFFFFF01
:203FE000FFFFFFFFFFFFFFFFFFFFFFFFFFFFFFFFFFFFFFFFFFFFFFFFFFFFFFFFFFFFFFFFE1
:00000001FF
